{
	"contracts/CrowdFunding.sol": {
		"CrowdFunding": {
			"abi": [
				{
					"inputs": [
						{
							"internalType": "string",
							"name": "_campaignName",
							"type": "string"
						},
						{
							"internalType": "string",
							"name": "_description",
							"type": "string"
						},
						{
							"internalType": "uint256",
							"name": "_targetAmount",
							"type": "uint256"
						},
						{
							"internalType": "uint256",
							"name": "_durationInDays",
							"type": "uint256"
						}
					],
					"stateMutability": "nonpayable",
					"type": "constructor"
				},
				{
					"inputs": [
						{
							"internalType": "uint256",
							"name": "_amount",
							"type": "uint256"
						},
						{
							"internalType": "string",
							"name": "_name",
							"type": "string"
						}
					],
					"name": "addTier",
					"outputs": [],
					"stateMutability": "nonpayable",
					"type": "function"
				},
				{
					"inputs": [
						{
							"internalType": "address",
							"name": "",
							"type": "address"
						}
					],
					"name": "backers",
					"outputs": [
						{
							"internalType": "uint256",
							"name": "totalContribution",
							"type": "uint256"
						}
					],
					"stateMutability": "view",
					"type": "function"
				},
				{
					"inputs": [],
					"name": "campaignName",
					"outputs": [
						{
							"internalType": "string",
							"name": "",
							"type": "string"
						}
					],
					"stateMutability": "view",
					"type": "function"
				},
				{
					"inputs": [],
					"name": "deadline",
					"outputs": [
						{
							"internalType": "uint256",
							"name": "",
							"type": "uint256"
						}
					],
					"stateMutability": "view",
					"type": "function"
				},
				{
					"inputs": [],
					"name": "description",
					"outputs": [
						{
							"internalType": "string",
							"name": "",
							"type": "string"
						}
					],
					"stateMutability": "view",
					"type": "function"
				},
				{
					"inputs": [
						{
							"internalType": "uint256",
							"name": "_tierIndex",
							"type": "uint256"
						}
					],
					"name": "fund",
					"outputs": [],
					"stateMutability": "payable",
					"type": "function"
				},
				{
					"inputs": [],
					"name": "getBalance",
					"outputs": [
						{
							"internalType": "uint256",
							"name": "",
							"type": "uint256"
						}
					],
					"stateMutability": "view",
					"type": "function"
				},
				{
					"inputs": [],
					"name": "owner",
					"outputs": [
						{
							"internalType": "address",
							"name": "",
							"type": "address"
						}
					],
					"stateMutability": "view",
					"type": "function"
				},
				{
					"inputs": [],
					"name": "refund",
					"outputs": [],
					"stateMutability": "nonpayable",
					"type": "function"
				},
				{
					"inputs": [
						{
							"internalType": "uint256",
							"name": "_index",
							"type": "uint256"
						}
					],
					"name": "removeTier",
					"outputs": [],
					"stateMutability": "nonpayable",
					"type": "function"
				},
				{
					"inputs": [],
					"name": "state",
					"outputs": [
						{
							"internalType": "enum CrowdFunding.CampaignState",
							"name": "",
							"type": "uint8"
						}
					],
					"stateMutability": "view",
					"type": "function"
				},
				{
					"inputs": [],
					"name": "targetAmount",
					"outputs": [
						{
							"internalType": "uint256",
							"name": "",
							"type": "uint256"
						}
					],
					"stateMutability": "view",
					"type": "function"
				},
				{
					"inputs": [
						{
							"internalType": "uint256",
							"name": "",
							"type": "uint256"
						}
					],
					"name": "tiers",
					"outputs": [
						{
							"internalType": "string",
							"name": "name",
							"type": "string"
						},
						{
							"internalType": "uint256",
							"name": "amount",
							"type": "uint256"
						},
						{
							"internalType": "uint256",
							"name": "backers",
							"type": "uint256"
						}
					],
					"stateMutability": "view",
					"type": "function"
				},
				{
					"inputs": [],
					"name": "withdraw",
					"outputs": [],
					"stateMutability": "nonpayable",
					"type": "function"
				}
			],
			"devdoc": {
				"kind": "dev",
				"methods": {},
				"version": 1
			},
			"evm": {
				"assembly": "    /* \"contracts/CrowdFunding.sol\":57:3239  contract CrowdFunding{... */\n  mstore(0x40, 0x80)\n    /* \"contracts/CrowdFunding.sol\":829:1202  constructor(string memory _campaignName, ... */\n  callvalue\n  dup1\n  iszero\n  tag_1\n  jumpi\n  0x00\n  dup1\n  revert\ntag_1:\n  pop\n  mload(0x40)\n  sub(codesize, bytecodeSize)\n  dup1\n  bytecodeSize\n  dup4\n  codecopy\n  dup2\n  dup2\n  add\n  0x40\n  mstore\n  dup2\n  add\n  swap1\n  tag_2\n  swap2\n  swap1\n  tag_3\n  jump\t// in\ntag_2:\n    /* \"contracts/CrowdFunding.sol\":977:990  _campaignName */\n  dup4\n    /* \"contracts/CrowdFunding.sol\":962:974  campaignName */\n  0x00\n    /* \"contracts/CrowdFunding.sol\":962:990  campaignName = _campaignName */\n  swap1\n  dup2\n  tag_6\n  swap2\n  swap1\n  tag_7\n  jump\t// in\ntag_6:\n  pop\n    /* \"contracts/CrowdFunding.sol\":1014:1026  _description */\n  dup3\n    /* \"contracts/CrowdFunding.sol\":1000:1011  description */\n  0x01\n    /* \"contracts/CrowdFunding.sol\":1000:1026  description = _description */\n  swap1\n  dup2\n  tag_8\n  swap2\n  swap1\n  tag_7\n  jump\t// in\ntag_8:\n  pop\n    /* \"contracts/CrowdFunding.sol\":1051:1064  _targetAmount */\n  dup2\n    /* \"contracts/CrowdFunding.sol\":1036:1048  targetAmount */\n  0x02\n    /* \"contracts/CrowdFunding.sol\":1036:1064  targetAmount = _targetAmount */\n  dup2\n  swap1\n  sstore\n  pop\n    /* \"contracts/CrowdFunding.sol\":1122:1128  1 days */\n  0x015180\n    /* \"contracts/CrowdFunding.sol\":1104:1119  _durationInDays */\n  dup2\n    /* \"contracts/CrowdFunding.sol\":1104:1128  _durationInDays * 1 days */\n  tag_9\n  swap2\n  swap1\n  tag_10\n  jump\t// in\ntag_9:\n    /* \"contracts/CrowdFunding.sol\":1085:1100  block.timestamp */\n  timestamp\n    /* \"contracts/CrowdFunding.sol\":1085:1129  block.timestamp + (_durationInDays * 1 days) */\n  tag_11\n  swap2\n  swap1\n  tag_12\n  jump\t// in\ntag_11:\n    /* \"contracts/CrowdFunding.sol\":1074:1082  deadline */\n  0x03\n    /* \"contracts/CrowdFunding.sol\":1074:1129  deadline = block.timestamp + (_durationInDays * 1 days) */\n  dup2\n  swap1\n  sstore\n  pop\n    /* \"contracts/CrowdFunding.sol\":1147:1157  msg.sender */\n  caller\n    /* \"contracts/CrowdFunding.sol\":1139:1144  owner */\n  0x04\n  0x00\n    /* \"contracts/CrowdFunding.sol\":1139:1157  owner = msg.sender */\n  0x0100\n  exp\n  dup2\n  sload\n  dup2\n  0xffffffffffffffffffffffffffffffffffffffff\n  mul\n  not\n  and\n  swap1\n  dup4\n  0xffffffffffffffffffffffffffffffffffffffff\n  and\n  mul\n  or\n  swap1\n  sstore\n  pop\n    /* \"contracts/CrowdFunding.sol\":1175:1195  CampaignState.Active */\n  0x00\n    /* \"contracts/CrowdFunding.sol\":1167:1172  state */\n  0x04\n  0x14\n    /* \"contracts/CrowdFunding.sol\":1167:1195  state = CampaignState.Active */\n  0x0100\n  exp\n  dup2\n  sload\n  dup2\n  0xff\n  mul\n  not\n  and\n  swap1\n  dup4\n  0x02\n  dup2\n  gt\n  iszero\n  tag_13\n  jumpi\n  tag_14\n  tag_15\n  jump\t// in\ntag_14:\ntag_13:\n  mul\n  or\n  swap1\n  sstore\n  pop\n    /* \"contracts/CrowdFunding.sol\":829:1202  constructor(string memory _campaignName, ... */\n  pop\n  pop\n  pop\n  pop\n    /* \"contracts/CrowdFunding.sol\":57:3239  contract CrowdFunding{... */\n  jump(tag_16)\n    /* \"#utility.yul\":7:82   */\ntag_17:\n    /* \"#utility.yul\":40:46   */\n  0x00\n    /* \"#utility.yul\":73:75   */\n  0x40\n    /* \"#utility.yul\":67:76   */\n  mload\n    /* \"#utility.yul\":57:76   */\n  swap1\n  pop\n    /* \"#utility.yul\":7:82   */\n  swap1\n  jump\t// out\n    /* \"#utility.yul\":88:205   */\ntag_18:\n    /* \"#utility.yul\":197:198   */\n  0x00\n    /* \"#utility.yul\":194:195   */\n  dup1\n    /* \"#utility.yul\":187:199   */\n  revert\n    /* \"#utility.yul\":211:328   */\ntag_19:\n    /* \"#utility.yul\":320:321   */\n  0x00\n    /* \"#utility.yul\":317:318   */\n  dup1\n    /* \"#utility.yul\":310:322   */\n  revert\n    /* \"#utility.yul\":334:451   */\ntag_20:\n    /* \"#utility.yul\":443:444   */\n  0x00\n    /* \"#utility.yul\":440:441   */\n  dup1\n    /* \"#utility.yul\":433:445   */\n  revert\n    /* \"#utility.yul\":457:574   */\ntag_21:\n    /* \"#utility.yul\":566:567   */\n  0x00\n    /* \"#utility.yul\":563:564   */\n  dup1\n    /* \"#utility.yul\":556:568   */\n  revert\n    /* \"#utility.yul\":580:682   */\ntag_22:\n    /* \"#utility.yul\":621:627   */\n  0x00\n    /* \"#utility.yul\":672:674   */\n  0x1f\n    /* \"#utility.yul\":668:675   */\n  not\n    /* \"#utility.yul\":663:665   */\n  0x1f\n    /* \"#utility.yul\":656:661   */\n  dup4\n    /* \"#utility.yul\":652:666   */\n  add\n    /* \"#utility.yul\":648:676   */\n  and\n    /* \"#utility.yul\":638:676   */\n  swap1\n  pop\n    /* \"#utility.yul\":580:682   */\n  swap2\n  swap1\n  pop\n  jump\t// out\n    /* \"#utility.yul\":688:868   */\ntag_23:\n    /* \"#utility.yul\":736:813   */\n  0x4e487b7100000000000000000000000000000000000000000000000000000000\n    /* \"#utility.yul\":733:734   */\n  0x00\n    /* \"#utility.yul\":726:814   */\n  mstore\n    /* \"#utility.yul\":833:837   */\n  0x41\n    /* \"#utility.yul\":830:831   */\n  0x04\n    /* \"#utility.yul\":823:838   */\n  mstore\n    /* \"#utility.yul\":857:861   */\n  0x24\n    /* \"#utility.yul\":854:855   */\n  0x00\n    /* \"#utility.yul\":847:862   */\n  revert\n    /* \"#utility.yul\":874:1155   */\ntag_24:\n    /* \"#utility.yul\":957:984   */\n  tag_61\n    /* \"#utility.yul\":979:983   */\n  dup3\n    /* \"#utility.yul\":957:984   */\n  tag_22\n  jump\t// in\ntag_61:\n    /* \"#utility.yul\":949:955   */\n  dup2\n    /* \"#utility.yul\":945:985   */\n  add\n    /* \"#utility.yul\":1087:1093   */\n  dup2\n    /* \"#utility.yul\":1075:1085   */\n  dup2\n    /* \"#utility.yul\":1072:1094   */\n  lt\n    /* \"#utility.yul\":1051:1069   */\n  0xffffffffffffffff\n    /* \"#utility.yul\":1039:1049   */\n  dup3\n    /* \"#utility.yul\":1036:1070   */\n  gt\n    /* \"#utility.yul\":1033:1095   */\n  or\n    /* \"#utility.yul\":1030:1118   */\n  iszero\n  tag_62\n  jumpi\n    /* \"#utility.yul\":1098:1116   */\n  tag_63\n  tag_23\n  jump\t// in\ntag_63:\n    /* \"#utility.yul\":1030:1118   */\ntag_62:\n    /* \"#utility.yul\":1138:1148   */\n  dup1\n    /* \"#utility.yul\":1134:1136   */\n  0x40\n    /* \"#utility.yul\":1127:1149   */\n  mstore\n    /* \"#utility.yul\":917:1155   */\n  pop\n    /* \"#utility.yul\":874:1155   */\n  pop\n  pop\n  jump\t// out\n    /* \"#utility.yul\":1161:1290   */\ntag_25:\n    /* \"#utility.yul\":1195:1201   */\n  0x00\n    /* \"#utility.yul\":1222:1242   */\n  tag_65\n  tag_17\n  jump\t// in\ntag_65:\n    /* \"#utility.yul\":1212:1242   */\n  swap1\n  pop\n    /* \"#utility.yul\":1251:1284   */\n  tag_66\n    /* \"#utility.yul\":1279:1283   */\n  dup3\n    /* \"#utility.yul\":1271:1277   */\n  dup3\n    /* \"#utility.yul\":1251:1284   */\n  tag_24\n  jump\t// in\ntag_66:\n    /* \"#utility.yul\":1161:1290   */\n  swap2\n  swap1\n  pop\n  jump\t// out\n    /* \"#utility.yul\":1296:1604   */\ntag_26:\n    /* \"#utility.yul\":1358:1362   */\n  0x00\n    /* \"#utility.yul\":1448:1466   */\n  0xffffffffffffffff\n    /* \"#utility.yul\":1440:1446   */\n  dup3\n    /* \"#utility.yul\":1437:1467   */\n  gt\n    /* \"#utility.yul\":1434:1490   */\n  iszero\n  tag_68\n  jumpi\n    /* \"#utility.yul\":1470:1488   */\n  tag_69\n  tag_23\n  jump\t// in\ntag_69:\n    /* \"#utility.yul\":1434:1490   */\ntag_68:\n    /* \"#utility.yul\":1508:1537   */\n  tag_70\n    /* \"#utility.yul\":1530:1536   */\n  dup3\n    /* \"#utility.yul\":1508:1537   */\n  tag_22\n  jump\t// in\ntag_70:\n    /* \"#utility.yul\":1500:1537   */\n  swap1\n  pop\n    /* \"#utility.yul\":1592:1596   */\n  0x20\n    /* \"#utility.yul\":1586:1590   */\n  dup2\n    /* \"#utility.yul\":1582:1597   */\n  add\n    /* \"#utility.yul\":1574:1597   */\n  swap1\n  pop\n    /* \"#utility.yul\":1296:1604   */\n  swap2\n  swap1\n  pop\n  jump\t// out\n    /* \"#utility.yul\":1610:1749   */\ntag_27:\n    /* \"#utility.yul\":1699:1705   */\n  dup3\n    /* \"#utility.yul\":1694:1697   */\n  dup2\n    /* \"#utility.yul\":1689:1692   */\n  dup4\n    /* \"#utility.yul\":1683:1706   */\n  mcopy\n    /* \"#utility.yul\":1740:1741   */\n  0x00\n    /* \"#utility.yul\":1731:1737   */\n  dup4\n    /* \"#utility.yul\":1726:1729   */\n  dup4\n    /* \"#utility.yul\":1722:1738   */\n  add\n    /* \"#utility.yul\":1715:1742   */\n  mstore\n    /* \"#utility.yul\":1610:1749   */\n  pop\n  pop\n  pop\n  jump\t// out\n    /* \"#utility.yul\":1755:2189   */\ntag_28:\n    /* \"#utility.yul\":1844:1849   */\n  0x00\n    /* \"#utility.yul\":1869:1935   */\n  tag_73\n    /* \"#utility.yul\":1885:1934   */\n  tag_74\n    /* \"#utility.yul\":1927:1933   */\n  dup5\n    /* \"#utility.yul\":1885:1934   */\n  tag_26\n  jump\t// in\ntag_74:\n    /* \"#utility.yul\":1869:1935   */\n  tag_25\n  jump\t// in\ntag_73:\n    /* \"#utility.yul\":1860:1935   */\n  swap1\n  pop\n    /* \"#utility.yul\":1958:1964   */\n  dup3\n    /* \"#utility.yul\":1951:1956   */\n  dup2\n    /* \"#utility.yul\":1944:1965   */\n  mstore\n    /* \"#utility.yul\":1996:2000   */\n  0x20\n    /* \"#utility.yul\":1989:1994   */\n  dup2\n    /* \"#utility.yul\":1985:2001   */\n  add\n    /* \"#utility.yul\":2034:2037   */\n  dup5\n    /* \"#utility.yul\":2025:2031   */\n  dup5\n    /* \"#utility.yul\":2020:2023   */\n  dup5\n    /* \"#utility.yul\":2016:2032   */\n  add\n    /* \"#utility.yul\":2013:2038   */\n  gt\n    /* \"#utility.yul\":2010:2122   */\n  iszero\n  tag_75\n  jumpi\n    /* \"#utility.yul\":2041:2120   */\n  tag_76\n  tag_21\n  jump\t// in\ntag_76:\n    /* \"#utility.yul\":2010:2122   */\ntag_75:\n    /* \"#utility.yul\":2131:2183   */\n  tag_77\n    /* \"#utility.yul\":2176:2182   */\n  dup5\n    /* \"#utility.yul\":2171:2174   */\n  dup3\n    /* \"#utility.yul\":2166:2169   */\n  dup6\n    /* \"#utility.yul\":2131:2183   */\n  tag_27\n  jump\t// in\ntag_77:\n    /* \"#utility.yul\":1850:2189   */\n  pop\n    /* \"#utility.yul\":1755:2189   */\n  swap4\n  swap3\n  pop\n  pop\n  pop\n  jump\t// out\n    /* \"#utility.yul\":2209:2564   */\ntag_29:\n    /* \"#utility.yul\":2276:2281   */\n  0x00\n    /* \"#utility.yul\":2325:2328   */\n  dup3\n    /* \"#utility.yul\":2318:2322   */\n  0x1f\n    /* \"#utility.yul\":2310:2316   */\n  dup4\n    /* \"#utility.yul\":2306:2323   */\n  add\n    /* \"#utility.yul\":2302:2329   */\n  slt\n    /* \"#utility.yul\":2292:2414   */\n  tag_79\n  jumpi\n    /* \"#utility.yul\":2333:2412   */\n  tag_80\n  tag_20\n  jump\t// in\ntag_80:\n    /* \"#utility.yul\":2292:2414   */\ntag_79:\n    /* \"#utility.yul\":2443:2449   */\n  dup2\n    /* \"#utility.yul\":2437:2450   */\n  mload\n    /* \"#utility.yul\":2468:2558   */\n  tag_81\n    /* \"#utility.yul\":2554:2557   */\n  dup5\n    /* \"#utility.yul\":2546:2552   */\n  dup3\n    /* \"#utility.yul\":2539:2543   */\n  0x20\n    /* \"#utility.yul\":2531:2537   */\n  dup7\n    /* \"#utility.yul\":2527:2544   */\n  add\n    /* \"#utility.yul\":2468:2558   */\n  tag_28\n  jump\t// in\ntag_81:\n    /* \"#utility.yul\":2459:2558   */\n  swap2\n  pop\n    /* \"#utility.yul\":2282:2564   */\n  pop\n    /* \"#utility.yul\":2209:2564   */\n  swap3\n  swap2\n  pop\n  pop\n  jump\t// out\n    /* \"#utility.yul\":2570:2647   */\ntag_30:\n    /* \"#utility.yul\":2607:2614   */\n  0x00\n    /* \"#utility.yul\":2636:2641   */\n  dup2\n    /* \"#utility.yul\":2625:2641   */\n  swap1\n  pop\n    /* \"#utility.yul\":2570:2647   */\n  swap2\n  swap1\n  pop\n  jump\t// out\n    /* \"#utility.yul\":2653:2775   */\ntag_31:\n    /* \"#utility.yul\":2726:2750   */\n  tag_84\n    /* \"#utility.yul\":2744:2749   */\n  dup2\n    /* \"#utility.yul\":2726:2750   */\n  tag_30\n  jump\t// in\ntag_84:\n    /* \"#utility.yul\":2719:2724   */\n  dup2\n    /* \"#utility.yul\":2716:2751   */\n  eq\n    /* \"#utility.yul\":2706:2769   */\n  tag_85\n  jumpi\n    /* \"#utility.yul\":2765:2766   */\n  0x00\n    /* \"#utility.yul\":2762:2763   */\n  dup1\n    /* \"#utility.yul\":2755:2767   */\n  revert\n    /* \"#utility.yul\":2706:2769   */\ntag_85:\n    /* \"#utility.yul\":2653:2775   */\n  pop\n  jump\t// out\n    /* \"#utility.yul\":2781:2924   */\ntag_32:\n    /* \"#utility.yul\":2838:2843   */\n  0x00\n    /* \"#utility.yul\":2869:2875   */\n  dup2\n    /* \"#utility.yul\":2863:2876   */\n  mload\n    /* \"#utility.yul\":2854:2876   */\n  swap1\n  pop\n    /* \"#utility.yul\":2885:2918   */\n  tag_87\n    /* \"#utility.yul\":2912:2917   */\n  dup2\n    /* \"#utility.yul\":2885:2918   */\n  tag_31\n  jump\t// in\ntag_87:\n    /* \"#utility.yul\":2781:2924   */\n  swap3\n  swap2\n  pop\n  pop\n  jump\t// out\n    /* \"#utility.yul\":2930:4096   */\ntag_3:\n    /* \"#utility.yul\":3047:3053   */\n  0x00\n    /* \"#utility.yul\":3055:3061   */\n  dup1\n    /* \"#utility.yul\":3063:3069   */\n  0x00\n    /* \"#utility.yul\":3071:3077   */\n  dup1\n    /* \"#utility.yul\":3120:3123   */\n  0x80\n    /* \"#utility.yul\":3108:3117   */\n  dup6\n    /* \"#utility.yul\":3099:3106   */\n  dup8\n    /* \"#utility.yul\":3095:3118   */\n  sub\n    /* \"#utility.yul\":3091:3124   */\n  slt\n    /* \"#utility.yul\":3088:3208   */\n  iszero\n  tag_89\n  jumpi\n    /* \"#utility.yul\":3127:3206   */\n  tag_90\n  tag_18\n  jump\t// in\ntag_90:\n    /* \"#utility.yul\":3088:3208   */\ntag_89:\n    /* \"#utility.yul\":3268:3269   */\n  0x00\n    /* \"#utility.yul\":3257:3266   */\n  dup6\n    /* \"#utility.yul\":3253:3270   */\n  add\n    /* \"#utility.yul\":3247:3271   */\n  mload\n    /* \"#utility.yul\":3298:3316   */\n  0xffffffffffffffff\n    /* \"#utility.yul\":3290:3296   */\n  dup2\n    /* \"#utility.yul\":3287:3317   */\n  gt\n    /* \"#utility.yul\":3284:3401   */\n  iszero\n  tag_91\n  jumpi\n    /* \"#utility.yul\":3320:3399   */\n  tag_92\n  tag_19\n  jump\t// in\ntag_92:\n    /* \"#utility.yul\":3284:3401   */\ntag_91:\n    /* \"#utility.yul\":3425:3499   */\n  tag_93\n    /* \"#utility.yul\":3491:3498   */\n  dup8\n    /* \"#utility.yul\":3482:3488   */\n  dup3\n    /* \"#utility.yul\":3471:3480   */\n  dup9\n    /* \"#utility.yul\":3467:3489   */\n  add\n    /* \"#utility.yul\":3425:3499   */\n  tag_29\n  jump\t// in\ntag_93:\n    /* \"#utility.yul\":3415:3499   */\n  swap5\n  pop\n    /* \"#utility.yul\":3218:3509   */\n  pop\n    /* \"#utility.yul\":3569:3571   */\n  0x20\n    /* \"#utility.yul\":3558:3567   */\n  dup6\n    /* \"#utility.yul\":3554:3572   */\n  add\n    /* \"#utility.yul\":3548:3573   */\n  mload\n    /* \"#utility.yul\":3600:3618   */\n  0xffffffffffffffff\n    /* \"#utility.yul\":3592:3598   */\n  dup2\n    /* \"#utility.yul\":3589:3619   */\n  gt\n    /* \"#utility.yul\":3586:3703   */\n  iszero\n  tag_94\n  jumpi\n    /* \"#utility.yul\":3622:3701   */\n  tag_95\n  tag_19\n  jump\t// in\ntag_95:\n    /* \"#utility.yul\":3586:3703   */\ntag_94:\n    /* \"#utility.yul\":3727:3801   */\n  tag_96\n    /* \"#utility.yul\":3793:3800   */\n  dup8\n    /* \"#utility.yul\":3784:3790   */\n  dup3\n    /* \"#utility.yul\":3773:3782   */\n  dup9\n    /* \"#utility.yul\":3769:3791   */\n  add\n    /* \"#utility.yul\":3727:3801   */\n  tag_29\n  jump\t// in\ntag_96:\n    /* \"#utility.yul\":3717:3801   */\n  swap4\n  pop\n    /* \"#utility.yul\":3519:3811   */\n  pop\n    /* \"#utility.yul\":3850:3852   */\n  0x40\n    /* \"#utility.yul\":3876:3940   */\n  tag_97\n    /* \"#utility.yul\":3932:3939   */\n  dup8\n    /* \"#utility.yul\":3923:3929   */\n  dup3\n    /* \"#utility.yul\":3912:3921   */\n  dup9\n    /* \"#utility.yul\":3908:3930   */\n  add\n    /* \"#utility.yul\":3876:3940   */\n  tag_32\n  jump\t// in\ntag_97:\n    /* \"#utility.yul\":3866:3940   */\n  swap3\n  pop\n    /* \"#utility.yul\":3821:3950   */\n  pop\n    /* \"#utility.yul\":3989:3991   */\n  0x60\n    /* \"#utility.yul\":4015:4079   */\n  tag_98\n    /* \"#utility.yul\":4071:4078   */\n  dup8\n    /* \"#utility.yul\":4062:4068   */\n  dup3\n    /* \"#utility.yul\":4051:4060   */\n  dup9\n    /* \"#utility.yul\":4047:4069   */\n  add\n    /* \"#utility.yul\":4015:4079   */\n  tag_32\n  jump\t// in\ntag_98:\n    /* \"#utility.yul\":4005:4079   */\n  swap2\n  pop\n    /* \"#utility.yul\":3960:4089   */\n  pop\n    /* \"#utility.yul\":2930:4096   */\n  swap3\n  swap6\n  swap2\n  swap5\n  pop\n  swap3\n  pop\n  jump\t// out\n    /* \"#utility.yul\":4102:4201   */\ntag_33:\n    /* \"#utility.yul\":4154:4160   */\n  0x00\n    /* \"#utility.yul\":4188:4193   */\n  dup2\n    /* \"#utility.yul\":4182:4194   */\n  mload\n    /* \"#utility.yul\":4172:4194   */\n  swap1\n  pop\n    /* \"#utility.yul\":4102:4201   */\n  swap2\n  swap1\n  pop\n  jump\t// out\n    /* \"#utility.yul\":4207:4387   */\ntag_34:\n    /* \"#utility.yul\":4255:4332   */\n  0x4e487b7100000000000000000000000000000000000000000000000000000000\n    /* \"#utility.yul\":4252:4253   */\n  0x00\n    /* \"#utility.yul\":4245:4333   */\n  mstore\n    /* \"#utility.yul\":4352:4356   */\n  0x22\n    /* \"#utility.yul\":4349:4350   */\n  0x04\n    /* \"#utility.yul\":4342:4357   */\n  mstore\n    /* \"#utility.yul\":4376:4380   */\n  0x24\n    /* \"#utility.yul\":4373:4374   */\n  0x00\n    /* \"#utility.yul\":4366:4381   */\n  revert\n    /* \"#utility.yul\":4393:4713   */\ntag_35:\n    /* \"#utility.yul\":4437:4443   */\n  0x00\n    /* \"#utility.yul\":4474:4475   */\n  0x02\n    /* \"#utility.yul\":4468:4472   */\n  dup3\n    /* \"#utility.yul\":4464:4476   */\n  div\n    /* \"#utility.yul\":4454:4476   */\n  swap1\n  pop\n    /* \"#utility.yul\":4521:4522   */\n  0x01\n    /* \"#utility.yul\":4515:4519   */\n  dup3\n    /* \"#utility.yul\":4511:4523   */\n  and\n    /* \"#utility.yul\":4542:4560   */\n  dup1\n    /* \"#utility.yul\":4532:4613   */\n  tag_102\n  jumpi\n    /* \"#utility.yul\":4598:4602   */\n  0x7f\n    /* \"#utility.yul\":4590:4596   */\n  dup3\n    /* \"#utility.yul\":4586:4603   */\n  and\n    /* \"#utility.yul\":4576:4603   */\n  swap2\n  pop\n    /* \"#utility.yul\":4532:4613   */\ntag_102:\n    /* \"#utility.yul\":4660:4662   */\n  0x20\n    /* \"#utility.yul\":4652:4658   */\n  dup3\n    /* \"#utility.yul\":4649:4663   */\n  lt\n    /* \"#utility.yul\":4629:4647   */\n  dup2\n    /* \"#utility.yul\":4626:4664   */\n  sub\n    /* \"#utility.yul\":4623:4707   */\n  tag_103\n  jumpi\n    /* \"#utility.yul\":4679:4697   */\n  tag_104\n  tag_34\n  jump\t// in\ntag_104:\n    /* \"#utility.yul\":4623:4707   */\ntag_103:\n    /* \"#utility.yul\":4444:4713   */\n  pop\n    /* \"#utility.yul\":4393:4713   */\n  swap2\n  swap1\n  pop\n  jump\t// out\n    /* \"#utility.yul\":4719:4860   */\ntag_36:\n    /* \"#utility.yul\":4768:4772   */\n  0x00\n    /* \"#utility.yul\":4791:4794   */\n  dup2\n    /* \"#utility.yul\":4783:4794   */\n  swap1\n  pop\n    /* \"#utility.yul\":4814:4817   */\n  dup2\n    /* \"#utility.yul\":4811:4812   */\n  0x00\n    /* \"#utility.yul\":4804:4818   */\n  mstore\n    /* \"#utility.yul\":4848:4852   */\n  0x20\n    /* \"#utility.yul\":4845:4846   */\n  0x00\n    /* \"#utility.yul\":4835:4853   */\n  keccak256\n    /* \"#utility.yul\":4827:4853   */\n  swap1\n  pop\n    /* \"#utility.yul\":4719:4860   */\n  swap2\n  swap1\n  pop\n  jump\t// out\n    /* \"#utility.yul\":4866:4959   */\ntag_37:\n    /* \"#utility.yul\":4903:4909   */\n  0x00\n    /* \"#utility.yul\":4950:4952   */\n  0x20\n    /* \"#utility.yul\":4945:4947   */\n  0x1f\n    /* \"#utility.yul\":4938:4943   */\n  dup4\n    /* \"#utility.yul\":4934:4948   */\n  add\n    /* \"#utility.yul\":4930:4953   */\n  div\n    /* \"#utility.yul\":4920:4953   */\n  swap1\n  pop\n    /* \"#utility.yul\":4866:4959   */\n  swap2\n  swap1\n  pop\n  jump\t// out\n    /* \"#utility.yul\":4965:5072   */\ntag_38:\n    /* \"#utility.yul\":5009:5017   */\n  0x00\n    /* \"#utility.yul\":5059:5064   */\n  dup3\n    /* \"#utility.yul\":5053:5057   */\n  dup3\n    /* \"#utility.yul\":5049:5065   */\n  shl\n    /* \"#utility.yul\":5028:5065   */\n  swap1\n  pop\n    /* \"#utility.yul\":4965:5072   */\n  swap3\n  swap2\n  pop\n  pop\n  jump\t// out\n    /* \"#utility.yul\":5078:5471   */\ntag_39:\n    /* \"#utility.yul\":5147:5153   */\n  0x00\n    /* \"#utility.yul\":5197:5198   */\n  0x08\n    /* \"#utility.yul\":5185:5195   */\n  dup4\n    /* \"#utility.yul\":5181:5199   */\n  mul\n    /* \"#utility.yul\":5220:5317   */\n  tag_109\n    /* \"#utility.yul\":5250:5316   */\n  0xffffffffffffffffffffffffffffffffffffffffffffffffffffffffffffffff\n    /* \"#utility.yul\":5239:5248   */\n  dup3\n    /* \"#utility.yul\":5220:5317   */\n  tag_38\n  jump\t// in\ntag_109:\n    /* \"#utility.yul\":5338:5377   */\n  tag_110\n    /* \"#utility.yul\":5368:5376   */\n  dup7\n    /* \"#utility.yul\":5357:5366   */\n  dup4\n    /* \"#utility.yul\":5338:5377   */\n  tag_38\n  jump\t// in\ntag_110:\n    /* \"#utility.yul\":5326:5377   */\n  swap6\n  pop\n    /* \"#utility.yul\":5410:5414   */\n  dup1\n    /* \"#utility.yul\":5406:5415   */\n  not\n    /* \"#utility.yul\":5399:5404   */\n  dup5\n    /* \"#utility.yul\":5395:5416   */\n  and\n    /* \"#utility.yul\":5386:5416   */\n  swap4\n  pop\n    /* \"#utility.yul\":5459:5463   */\n  dup1\n    /* \"#utility.yul\":5449:5457   */\n  dup7\n    /* \"#utility.yul\":5445:5464   */\n  and\n    /* \"#utility.yul\":5438:5443   */\n  dup5\n    /* \"#utility.yul\":5435:5465   */\n  or\n    /* \"#utility.yul\":5425:5465   */\n  swap3\n  pop\n    /* \"#utility.yul\":5154:5471   */\n  pop\n  pop\n    /* \"#utility.yul\":5078:5471   */\n  swap4\n  swap3\n  pop\n  pop\n  pop\n  jump\t// out\n    /* \"#utility.yul\":5477:5537   */\ntag_40:\n    /* \"#utility.yul\":5505:5508   */\n  0x00\n    /* \"#utility.yul\":5526:5531   */\n  dup2\n    /* \"#utility.yul\":5519:5531   */\n  swap1\n  pop\n    /* \"#utility.yul\":5477:5537   */\n  swap2\n  swap1\n  pop\n  jump\t// out\n    /* \"#utility.yul\":5543:5685   */\ntag_41:\n    /* \"#utility.yul\":5593:5602   */\n  0x00\n    /* \"#utility.yul\":5626:5679   */\n  tag_113\n    /* \"#utility.yul\":5644:5678   */\n  tag_114\n    /* \"#utility.yul\":5653:5677   */\n  tag_115\n    /* \"#utility.yul\":5671:5676   */\n  dup5\n    /* \"#utility.yul\":5653:5677   */\n  tag_30\n  jump\t// in\ntag_115:\n    /* \"#utility.yul\":5644:5678   */\n  tag_40\n  jump\t// in\ntag_114:\n    /* \"#utility.yul\":5626:5679   */\n  tag_30\n  jump\t// in\ntag_113:\n    /* \"#utility.yul\":5613:5679   */\n  swap1\n  pop\n    /* \"#utility.yul\":5543:5685   */\n  swap2\n  swap1\n  pop\n  jump\t// out\n    /* \"#utility.yul\":5691:5766   */\ntag_42:\n    /* \"#utility.yul\":5734:5737   */\n  0x00\n    /* \"#utility.yul\":5755:5760   */\n  dup2\n    /* \"#utility.yul\":5748:5760   */\n  swap1\n  pop\n    /* \"#utility.yul\":5691:5766   */\n  swap2\n  swap1\n  pop\n  jump\t// out\n    /* \"#utility.yul\":5772:6041   */\ntag_43:\n    /* \"#utility.yul\":5882:5921   */\n  tag_118\n    /* \"#utility.yul\":5913:5920   */\n  dup4\n    /* \"#utility.yul\":5882:5921   */\n  tag_41\n  jump\t// in\ntag_118:\n    /* \"#utility.yul\":5943:6034   */\n  tag_119\n    /* \"#utility.yul\":5992:6033   */\n  tag_120\n    /* \"#utility.yul\":6016:6032   */\n  dup3\n    /* \"#utility.yul\":5992:6033   */\n  tag_42\n  jump\t// in\ntag_120:\n    /* \"#utility.yul\":5984:5990   */\n  dup5\n    /* \"#utility.yul\":5977:5981   */\n  dup5\n    /* \"#utility.yul\":5971:5982   */\n  sload\n    /* \"#utility.yul\":5943:6034   */\n  tag_39\n  jump\t// in\ntag_119:\n    /* \"#utility.yul\":5937:5941   */\n  dup3\n    /* \"#utility.yul\":5930:6035   */\n  sstore\n    /* \"#utility.yul\":5848:6041   */\n  pop\n    /* \"#utility.yul\":5772:6041   */\n  pop\n  pop\n  pop\n  jump\t// out\n    /* \"#utility.yul\":6047:6120   */\ntag_44:\n    /* \"#utility.yul\":6092:6095   */\n  0x00\n    /* \"#utility.yul\":6047:6120   */\n  swap1\n  jump\t// out\n    /* \"#utility.yul\":6126:6315   */\ntag_45:\n    /* \"#utility.yul\":6203:6235   */\n  tag_123\n  tag_44\n  jump\t// in\ntag_123:\n    /* \"#utility.yul\":6244:6309   */\n  tag_124\n    /* \"#utility.yul\":6302:6308   */\n  dup2\n    /* \"#utility.yul\":6294:6300   */\n  dup5\n    /* \"#utility.yul\":6288:6292   */\n  dup5\n    /* \"#utility.yul\":6244:6309   */\n  tag_43\n  jump\t// in\ntag_124:\n    /* \"#utility.yul\":6179:6315   */\n  pop\n    /* \"#utility.yul\":6126:6315   */\n  pop\n  pop\n  jump\t// out\n    /* \"#utility.yul\":6321:6507   */\ntag_46:\n    /* \"#utility.yul\":6381:6501   */\ntag_126:\n    /* \"#utility.yul\":6398:6401   */\n  dup2\n    /* \"#utility.yul\":6391:6396   */\n  dup2\n    /* \"#utility.yul\":6388:6402   */\n  lt\n    /* \"#utility.yul\":6381:6501   */\n  iszero\n  tag_128\n  jumpi\n    /* \"#utility.yul\":6452:6491   */\n  tag_129\n    /* \"#utility.yul\":6489:6490   */\n  0x00\n    /* \"#utility.yul\":6482:6487   */\n  dup3\n    /* \"#utility.yul\":6452:6491   */\n  tag_45\n  jump\t// in\ntag_129:\n    /* \"#utility.yul\":6425:6426   */\n  0x01\n    /* \"#utility.yul\":6418:6423   */\n  dup2\n    /* \"#utility.yul\":6414:6427   */\n  add\n    /* \"#utility.yul\":6405:6427   */\n  swap1\n  pop\n    /* \"#utility.yul\":6381:6501   */\n  jump(tag_126)\ntag_128:\n    /* \"#utility.yul\":6321:6507   */\n  pop\n  pop\n  jump\t// out\n    /* \"#utility.yul\":6513:7056   */\ntag_47:\n    /* \"#utility.yul\":6614:6616   */\n  0x1f\n    /* \"#utility.yul\":6609:6612   */\n  dup3\n    /* \"#utility.yul\":6606:6617   */\n  gt\n    /* \"#utility.yul\":6603:7049   */\n  iszero\n  tag_131\n  jumpi\n    /* \"#utility.yul\":6648:6686   */\n  tag_132\n    /* \"#utility.yul\":6680:6685   */\n  dup2\n    /* \"#utility.yul\":6648:6686   */\n  tag_36\n  jump\t// in\ntag_132:\n    /* \"#utility.yul\":6732:6761   */\n  tag_133\n    /* \"#utility.yul\":6750:6760   */\n  dup5\n    /* \"#utility.yul\":6732:6761   */\n  tag_37\n  jump\t// in\ntag_133:\n    /* \"#utility.yul\":6722:6730   */\n  dup2\n    /* \"#utility.yul\":6718:6762   */\n  add\n    /* \"#utility.yul\":6915:6917   */\n  0x20\n    /* \"#utility.yul\":6903:6913   */\n  dup6\n    /* \"#utility.yul\":6900:6918   */\n  lt\n    /* \"#utility.yul\":6897:6946   */\n  iszero\n  tag_134\n  jumpi\n    /* \"#utility.yul\":6936:6944   */\n  dup2\n    /* \"#utility.yul\":6921:6944   */\n  swap1\n  pop\n    /* \"#utility.yul\":6897:6946   */\ntag_134:\n    /* \"#utility.yul\":6959:7039   */\n  tag_135\n    /* \"#utility.yul\":7015:7037   */\n  tag_136\n    /* \"#utility.yul\":7033:7036   */\n  dup6\n    /* \"#utility.yul\":7015:7037   */\n  tag_37\n  jump\t// in\ntag_136:\n    /* \"#utility.yul\":7005:7013   */\n  dup4\n    /* \"#utility.yul\":7001:7038   */\n  add\n    /* \"#utility.yul\":6988:6999   */\n  dup3\n    /* \"#utility.yul\":6959:7039   */\n  tag_46\n  jump\t// in\ntag_135:\n    /* \"#utility.yul\":6618:7049   */\n  pop\n  pop\n    /* \"#utility.yul\":6603:7049   */\ntag_131:\n    /* \"#utility.yul\":6513:7056   */\n  pop\n  pop\n  pop\n  jump\t// out\n    /* \"#utility.yul\":7062:7179   */\ntag_48:\n    /* \"#utility.yul\":7116:7124   */\n  0x00\n    /* \"#utility.yul\":7166:7171   */\n  dup3\n    /* \"#utility.yul\":7160:7164   */\n  dup3\n    /* \"#utility.yul\":7156:7172   */\n  shr\n    /* \"#utility.yul\":7135:7172   */\n  swap1\n  pop\n    /* \"#utility.yul\":7062:7179   */\n  swap3\n  swap2\n  pop\n  pop\n  jump\t// out\n    /* \"#utility.yul\":7185:7354   */\ntag_49:\n    /* \"#utility.yul\":7229:7235   */\n  0x00\n    /* \"#utility.yul\":7262:7313   */\n  tag_139\n    /* \"#utility.yul\":7310:7311   */\n  0x00\n    /* \"#utility.yul\":7306:7312   */\n  not\n    /* \"#utility.yul\":7298:7303   */\n  dup5\n    /* \"#utility.yul\":7295:7296   */\n  0x08\n    /* \"#utility.yul\":7291:7304   */\n  mul\n    /* \"#utility.yul\":7262:7313   */\n  tag_48\n  jump\t// in\ntag_139:\n    /* \"#utility.yul\":7258:7314   */\n  not\n    /* \"#utility.yul\":7343:7347   */\n  dup1\n    /* \"#utility.yul\":7337:7341   */\n  dup4\n    /* \"#utility.yul\":7333:7348   */\n  and\n    /* \"#utility.yul\":7323:7348   */\n  swap2\n  pop\n    /* \"#utility.yul\":7236:7354   */\n  pop\n    /* \"#utility.yul\":7185:7354   */\n  swap3\n  swap2\n  pop\n  pop\n  jump\t// out\n    /* \"#utility.yul\":7359:7654   */\ntag_50:\n    /* \"#utility.yul\":7435:7439   */\n  0x00\n    /* \"#utility.yul\":7581:7610   */\n  tag_141\n    /* \"#utility.yul\":7606:7609   */\n  dup4\n    /* \"#utility.yul\":7600:7604   */\n  dup4\n    /* \"#utility.yul\":7581:7610   */\n  tag_49\n  jump\t// in\ntag_141:\n    /* \"#utility.yul\":7573:7610   */\n  swap2\n  pop\n    /* \"#utility.yul\":7643:7646   */\n  dup3\n    /* \"#utility.yul\":7640:7641   */\n  0x02\n    /* \"#utility.yul\":7636:7647   */\n  mul\n    /* \"#utility.yul\":7630:7634   */\n  dup3\n    /* \"#utility.yul\":7627:7648   */\n  or\n    /* \"#utility.yul\":7619:7648   */\n  swap1\n  pop\n    /* \"#utility.yul\":7359:7654   */\n  swap3\n  swap2\n  pop\n  pop\n  jump\t// out\n    /* \"#utility.yul\":7659:9054   */\ntag_7:\n    /* \"#utility.yul\":7776:7813   */\n  tag_143\n    /* \"#utility.yul\":7809:7812   */\n  dup3\n    /* \"#utility.yul\":7776:7813   */\n  tag_33\n  jump\t// in\ntag_143:\n    /* \"#utility.yul\":7878:7896   */\n  0xffffffffffffffff\n    /* \"#utility.yul\":7870:7876   */\n  dup2\n    /* \"#utility.yul\":7867:7897   */\n  gt\n    /* \"#utility.yul\":7864:7920   */\n  iszero\n  tag_144\n  jumpi\n    /* \"#utility.yul\":7900:7918   */\n  tag_145\n  tag_23\n  jump\t// in\ntag_145:\n    /* \"#utility.yul\":7864:7920   */\ntag_144:\n    /* \"#utility.yul\":7944:7982   */\n  tag_146\n    /* \"#utility.yul\":7976:7980   */\n  dup3\n    /* \"#utility.yul\":7970:7981   */\n  sload\n    /* \"#utility.yul\":7944:7982   */\n  tag_35\n  jump\t// in\ntag_146:\n    /* \"#utility.yul\":8029:8096   */\n  tag_147\n    /* \"#utility.yul\":8089:8095   */\n  dup3\n    /* \"#utility.yul\":8081:8087   */\n  dup3\n    /* \"#utility.yul\":8075:8079   */\n  dup6\n    /* \"#utility.yul\":8029:8096   */\n  tag_47\n  jump\t// in\ntag_147:\n    /* \"#utility.yul\":8123:8124   */\n  0x00\n    /* \"#utility.yul\":8147:8151   */\n  0x20\n    /* \"#utility.yul\":8134:8151   */\n  swap1\n  pop\n    /* \"#utility.yul\":8179:8181   */\n  0x1f\n    /* \"#utility.yul\":8171:8177   */\n  dup4\n    /* \"#utility.yul\":8168:8182   */\n  gt\n    /* \"#utility.yul\":8196:8197   */\n  0x01\n    /* \"#utility.yul\":8191:8809   */\n  dup2\n  eq\n  tag_149\n  jumpi\n    /* \"#utility.yul\":8853:8854   */\n  0x00\n    /* \"#utility.yul\":8870:8876   */\n  dup5\n    /* \"#utility.yul\":8867:8944   */\n  iszero\n  tag_150\n  jumpi\n    /* \"#utility.yul\":8919:8928   */\n  dup3\n    /* \"#utility.yul\":8914:8917   */\n  dup8\n    /* \"#utility.yul\":8910:8929   */\n  add\n    /* \"#utility.yul\":8904:8930   */\n  mload\n    /* \"#utility.yul\":8895:8930   */\n  swap1\n  pop\n    /* \"#utility.yul\":8867:8944   */\ntag_150:\n    /* \"#utility.yul\":8970:9037   */\n  tag_151\n    /* \"#utility.yul\":9030:9036   */\n  dup6\n    /* \"#utility.yul\":9023:9028   */\n  dup3\n    /* \"#utility.yul\":8970:9037   */\n  tag_50\n  jump\t// in\ntag_151:\n    /* \"#utility.yul\":8964:8968   */\n  dup7\n    /* \"#utility.yul\":8957:9038   */\n  sstore\n    /* \"#utility.yul\":8826:9048   */\n  pop\n    /* \"#utility.yul\":8161:9048   */\n  jump(tag_148)\n    /* \"#utility.yul\":8191:8809   */\ntag_149:\n    /* \"#utility.yul\":8243:8247   */\n  0x1f\n    /* \"#utility.yul\":8239:8248   */\n  not\n    /* \"#utility.yul\":8231:8237   */\n  dup5\n    /* \"#utility.yul\":8227:8249   */\n  and\n    /* \"#utility.yul\":8277:8314   */\n  tag_152\n    /* \"#utility.yul\":8309:8313   */\n  dup7\n    /* \"#utility.yul\":8277:8314   */\n  tag_36\n  jump\t// in\ntag_152:\n    /* \"#utility.yul\":8336:8337   */\n  0x00\n    /* \"#utility.yul\":8350:8558   */\ntag_153:\n    /* \"#utility.yul\":8364:8371   */\n  dup3\n    /* \"#utility.yul\":8361:8362   */\n  dup2\n    /* \"#utility.yul\":8358:8372   */\n  lt\n    /* \"#utility.yul\":8350:8558   */\n  iszero\n  tag_155\n  jumpi\n    /* \"#utility.yul\":8443:8452   */\n  dup5\n    /* \"#utility.yul\":8438:8441   */\n  dup10\n    /* \"#utility.yul\":8434:8453   */\n  add\n    /* \"#utility.yul\":8428:8454   */\n  mload\n    /* \"#utility.yul\":8420:8426   */\n  dup3\n    /* \"#utility.yul\":8413:8455   */\n  sstore\n    /* \"#utility.yul\":8494:8495   */\n  0x01\n    /* \"#utility.yul\":8486:8492   */\n  dup3\n    /* \"#utility.yul\":8482:8496   */\n  add\n    /* \"#utility.yul\":8472:8496   */\n  swap2\n  pop\n    /* \"#utility.yul\":8541:8543   */\n  0x20\n    /* \"#utility.yul\":8530:8539   */\n  dup6\n    /* \"#utility.yul\":8526:8544   */\n  add\n    /* \"#utility.yul\":8513:8544   */\n  swap5\n  pop\n    /* \"#utility.yul\":8387:8391   */\n  0x20\n    /* \"#utility.yul\":8384:8385   */\n  dup2\n    /* \"#utility.yul\":8380:8392   */\n  add\n    /* \"#utility.yul\":8375:8392   */\n  swap1\n  pop\n    /* \"#utility.yul\":8350:8558   */\n  jump(tag_153)\ntag_155:\n    /* \"#utility.yul\":8586:8592   */\n  dup7\n    /* \"#utility.yul\":8577:8584   */\n  dup4\n    /* \"#utility.yul\":8574:8593   */\n  lt\n    /* \"#utility.yul\":8571:8750   */\n  iszero\n  tag_156\n  jumpi\n    /* \"#utility.yul\":8644:8653   */\n  dup5\n    /* \"#utility.yul\":8639:8642   */\n  dup10\n    /* \"#utility.yul\":8635:8654   */\n  add\n    /* \"#utility.yul\":8629:8655   */\n  mload\n    /* \"#utility.yul\":8687:8735   */\n  tag_157\n    /* \"#utility.yul\":8729:8733   */\n  0x1f\n    /* \"#utility.yul\":8721:8727   */\n  dup10\n    /* \"#utility.yul\":8717:8734   */\n  and\n    /* \"#utility.yul\":8706:8715   */\n  dup3\n    /* \"#utility.yul\":8687:8735   */\n  tag_49\n  jump\t// in\ntag_157:\n    /* \"#utility.yul\":8679:8685   */\n  dup4\n    /* \"#utility.yul\":8672:8736   */\n  sstore\n    /* \"#utility.yul\":8594:8750   */\n  pop\n    /* \"#utility.yul\":8571:8750   */\ntag_156:\n    /* \"#utility.yul\":8796:8797   */\n  0x01\n    /* \"#utility.yul\":8792:8793   */\n  0x02\n    /* \"#utility.yul\":8784:8790   */\n  dup9\n    /* \"#utility.yul\":8780:8794   */\n  mul\n    /* \"#utility.yul\":8776:8798   */\n  add\n    /* \"#utility.yul\":8770:8774   */\n  dup9\n    /* \"#utility.yul\":8763:8799   */\n  sstore\n    /* \"#utility.yul\":8198:8809   */\n  pop\n  pop\n  pop\n    /* \"#utility.yul\":8161:9048   */\ntag_148:\n  pop\n    /* \"#utility.yul\":7751:9054   */\n  pop\n  pop\n  pop\n    /* \"#utility.yul\":7659:9054   */\n  pop\n  pop\n  jump\t// out\n    /* \"#utility.yul\":9060:9240   */\ntag_51:\n    /* \"#utility.yul\":9108:9185   */\n  0x4e487b7100000000000000000000000000000000000000000000000000000000\n    /* \"#utility.yul\":9105:9106   */\n  0x00\n    /* \"#utility.yul\":9098:9186   */\n  mstore\n    /* \"#utility.yul\":9205:9209   */\n  0x11\n    /* \"#utility.yul\":9202:9203   */\n  0x04\n    /* \"#utility.yul\":9195:9210   */\n  mstore\n    /* \"#utility.yul\":9229:9233   */\n  0x24\n    /* \"#utility.yul\":9226:9227   */\n  0x00\n    /* \"#utility.yul\":9219:9234   */\n  revert\n    /* \"#utility.yul\":9246:9656   */\ntag_10:\n    /* \"#utility.yul\":9286:9293   */\n  0x00\n    /* \"#utility.yul\":9309:9329   */\n  tag_160\n    /* \"#utility.yul\":9327:9328   */\n  dup3\n    /* \"#utility.yul\":9309:9329   */\n  tag_30\n  jump\t// in\ntag_160:\n    /* \"#utility.yul\":9304:9329   */\n  swap2\n  pop\n    /* \"#utility.yul\":9343:9363   */\n  tag_161\n    /* \"#utility.yul\":9361:9362   */\n  dup4\n    /* \"#utility.yul\":9343:9363   */\n  tag_30\n  jump\t// in\ntag_161:\n    /* \"#utility.yul\":9338:9363   */\n  swap3\n  pop\n    /* \"#utility.yul\":9398:9399   */\n  dup3\n    /* \"#utility.yul\":9395:9396   */\n  dup3\n    /* \"#utility.yul\":9391:9400   */\n  mul\n    /* \"#utility.yul\":9420:9450   */\n  tag_162\n    /* \"#utility.yul\":9438:9449   */\n  dup2\n    /* \"#utility.yul\":9420:9450   */\n  tag_30\n  jump\t// in\ntag_162:\n    /* \"#utility.yul\":9409:9450   */\n  swap2\n  pop\n    /* \"#utility.yul\":9599:9600   */\n  dup3\n    /* \"#utility.yul\":9590:9597   */\n  dup3\n    /* \"#utility.yul\":9586:9601   */\n  div\n    /* \"#utility.yul\":9583:9584   */\n  dup5\n    /* \"#utility.yul\":9580:9602   */\n  eq\n    /* \"#utility.yul\":9560:9561   */\n  dup4\n    /* \"#utility.yul\":9553:9562   */\n  iszero\n    /* \"#utility.yul\":9533:9616   */\n  or\n    /* \"#utility.yul\":9510:9649   */\n  tag_163\n  jumpi\n    /* \"#utility.yul\":9629:9647   */\n  tag_164\n  tag_51\n  jump\t// in\ntag_164:\n    /* \"#utility.yul\":9510:9649   */\ntag_163:\n    /* \"#utility.yul\":9294:9656   */\n  pop\n    /* \"#utility.yul\":9246:9656   */\n  swap3\n  swap2\n  pop\n  pop\n  jump\t// out\n    /* \"#utility.yul\":9662:9853   */\ntag_12:\n    /* \"#utility.yul\":9702:9705   */\n  0x00\n    /* \"#utility.yul\":9721:9741   */\n  tag_166\n    /* \"#utility.yul\":9739:9740   */\n  dup3\n    /* \"#utility.yul\":9721:9741   */\n  tag_30\n  jump\t// in\ntag_166:\n    /* \"#utility.yul\":9716:9741   */\n  swap2\n  pop\n    /* \"#utility.yul\":9755:9775   */\n  tag_167\n    /* \"#utility.yul\":9773:9774   */\n  dup4\n    /* \"#utility.yul\":9755:9775   */\n  tag_30\n  jump\t// in\ntag_167:\n    /* \"#utility.yul\":9750:9775   */\n  swap3\n  pop\n    /* \"#utility.yul\":9798:9799   */\n  dup3\n    /* \"#utility.yul\":9795:9796   */\n  dup3\n    /* \"#utility.yul\":9791:9800   */\n  add\n    /* \"#utility.yul\":9784:9800   */\n  swap1\n  pop\n    /* \"#utility.yul\":9819:9822   */\n  dup1\n    /* \"#utility.yul\":9816:9817   */\n  dup3\n    /* \"#utility.yul\":9813:9823   */\n  gt\n    /* \"#utility.yul\":9810:9846   */\n  iszero\n  tag_168\n  jumpi\n    /* \"#utility.yul\":9826:9844   */\n  tag_169\n  tag_51\n  jump\t// in\ntag_169:\n    /* \"#utility.yul\":9810:9846   */\ntag_168:\n    /* \"#utility.yul\":9662:9853   */\n  swap3\n  swap2\n  pop\n  pop\n  jump\t// out\n    /* \"#utility.yul\":9859:10039   */\ntag_15:\n    /* \"#utility.yul\":9907:9984   */\n  0x4e487b7100000000000000000000000000000000000000000000000000000000\n    /* \"#utility.yul\":9904:9905   */\n  0x00\n    /* \"#utility.yul\":9897:9985   */\n  mstore\n    /* \"#utility.yul\":10004:10008   */\n  0x21\n    /* \"#utility.yul\":10001:10002   */\n  0x04\n    /* \"#utility.yul\":9994:10009   */\n  mstore\n    /* \"#utility.yul\":10028:10032   */\n  0x24\n    /* \"#utility.yul\":10025:10026   */\n  0x00\n    /* \"#utility.yul\":10018:10033   */\n  revert\n    /* \"contracts/CrowdFunding.sol\":57:3239  contract CrowdFunding{... */\ntag_16:\n  dataSize(sub_0)\n  dup1\n  dataOffset(sub_0)\n  0x00\n  codecopy\n  0x00\n  return\nstop\n\nsub_0: assembly {\n        /* \"contracts/CrowdFunding.sol\":57:3239  contract CrowdFunding{... */\n      mstore(0x40, 0x80)\n      jumpi(tag_1, lt(calldatasize, 0x04))\n      shr(0xe0, calldataload(0x00))\n      dup1\n      0x7497211b\n      gt\n      tag_16\n      jumpi\n      dup1\n      0xb85dfb80\n      gt\n      tag_17\n      jumpi\n      dup1\n      0xb85dfb80\n      eq\n      tag_12\n      jumpi\n      dup1\n      0xc19d93fb\n      eq\n      tag_13\n      jumpi\n      dup1\n      0xca1d209d\n      eq\n      tag_14\n      jumpi\n      dup1\n      0xf38210c6\n      eq\n      tag_15\n      jumpi\n      jump(tag_1)\n    tag_17:\n      dup1\n      0x7497211b\n      eq\n      tag_9\n      jumpi\n      dup1\n      0x8da5cb5b\n      eq\n      tag_10\n      jumpi\n      dup1\n      0x953b8fb8\n      eq\n      tag_11\n      jumpi\n      jump(tag_1)\n    tag_16:\n      dup1\n      0x29dcb0cf\n      gt\n      tag_18\n      jumpi\n      dup1\n      0x29dcb0cf\n      eq\n      tag_5\n      jumpi\n      dup1\n      0x3ccfd60b\n      eq\n      tag_6\n      jumpi\n      dup1\n      0x590e1ae3\n      eq\n      tag_7\n      jumpi\n      dup1\n      0x7284e416\n      eq\n      tag_8\n      jumpi\n      jump(tag_1)\n    tag_18:\n      dup1\n      0x039af9eb\n      eq\n      tag_2\n      jumpi\n      dup1\n      0x0724fda9\n      eq\n      tag_3\n      jumpi\n      dup1\n      0x12065fe0\n      eq\n      tag_4\n      jumpi\n    tag_1:\n      0x00\n      dup1\n      revert\n        /* \"contracts/CrowdFunding.sol\":557:576  Tier[] public tiers */\n    tag_2:\n      callvalue\n      dup1\n      iszero\n      tag_19\n      jumpi\n      0x00\n      dup1\n      revert\n    tag_19:\n      pop\n      tag_20\n      0x04\n      dup1\n      calldatasize\n      sub\n      dup2\n      add\n      swap1\n      tag_21\n      swap2\n      swap1\n      tag_22\n      jump\t// in\n    tag_21:\n      tag_23\n      jump\t// in\n    tag_20:\n      mload(0x40)\n      tag_24\n      swap4\n      swap3\n      swap2\n      swap1\n      tag_25\n      jump\t// in\n    tag_24:\n      mload(0x40)\n      dup1\n      swap2\n      sub\n      swap1\n      return\n        /* \"contracts/CrowdFunding.sol\":85:111  string public campaignName */\n    tag_3:\n      callvalue\n      dup1\n      iszero\n      tag_26\n      jumpi\n      0x00\n      dup1\n      revert\n    tag_26:\n      pop\n      tag_27\n      tag_28\n      jump\t// in\n    tag_27:\n      mload(0x40)\n      tag_29\n      swap2\n      swap1\n      tag_30\n      jump\t// in\n    tag_29:\n      mload(0x40)\n      dup1\n      swap2\n      sub\n      swap1\n      return\n        /* \"contracts/CrowdFunding.sol\":2873:2968  function getBalance()public view returns (uint256){... */\n    tag_4:\n      callvalue\n      dup1\n      iszero\n      tag_31\n      jumpi\n      0x00\n      dup1\n      revert\n    tag_31:\n      pop\n      tag_32\n      tag_33\n      jump\t// in\n    tag_32:\n      mload(0x40)\n      tag_34\n      swap2\n      swap1\n      tag_35\n      jump\t// in\n    tag_34:\n      mload(0x40)\n      dup1\n      swap2\n      sub\n      swap1\n      return\n        /* \"contracts/CrowdFunding.sol\":178:198  uint public deadline */\n    tag_5:\n      callvalue\n      dup1\n      iszero\n      tag_36\n      jumpi\n      0x00\n      dup1\n      revert\n    tag_36:\n      pop\n      tag_37\n      tag_38\n      jump\t// in\n    tag_37:\n      mload(0x40)\n      tag_39\n      swap2\n      swap1\n      tag_35\n      jump\t// in\n    tag_39:\n      mload(0x40)\n      dup1\n      swap2\n      sub\n      swap1\n      return\n        /* \"contracts/CrowdFunding.sol\":2526:2866  function withdraw() public onlyOwner{... */\n    tag_6:\n      callvalue\n      dup1\n      iszero\n      tag_40\n      jumpi\n      0x00\n      dup1\n      revert\n    tag_40:\n      pop\n      tag_41\n      tag_42\n      jump\t// in\n    tag_41:\n      stop\n        /* \"contracts/CrowdFunding.sol\":2973:3232  function refund() public {... */\n    tag_7:\n      callvalue\n      dup1\n      iszero\n      tag_43\n      jumpi\n      0x00\n      dup1\n      revert\n    tag_43:\n      pop\n      tag_44\n      tag_45\n      jump\t// in\n    tag_44:\n      stop\n        /* \"contracts/CrowdFunding.sol\":117:142  string public description */\n    tag_8:\n      callvalue\n      dup1\n      iszero\n      tag_46\n      jumpi\n      0x00\n      dup1\n      revert\n    tag_46:\n      pop\n      tag_47\n      tag_48\n      jump\t// in\n    tag_47:\n      mload(0x40)\n      tag_49\n      swap2\n      swap1\n      tag_30\n      jump\t// in\n    tag_49:\n      mload(0x40)\n      dup1\n      swap2\n      sub\n      swap1\n      return\n        /* \"contracts/CrowdFunding.sol\":1843:2038  function removeTier(uint256 _index) public onlyOwner{... */\n    tag_9:\n      callvalue\n      dup1\n      iszero\n      tag_50\n      jumpi\n      0x00\n      dup1\n      revert\n    tag_50:\n      pop\n      tag_51\n      0x04\n      dup1\n      calldatasize\n      sub\n      dup2\n      add\n      swap1\n      tag_52\n      swap2\n      swap1\n      tag_22\n      jump\t// in\n    tag_52:\n      tag_53\n      jump\t// in\n    tag_51:\n      stop\n        /* \"contracts/CrowdFunding.sol\":204:224  address public owner */\n    tag_10:\n      callvalue\n      dup1\n      iszero\n      tag_54\n      jumpi\n      0x00\n      dup1\n      revert\n    tag_54:\n      pop\n      tag_55\n      tag_56\n      jump\t// in\n    tag_55:\n      mload(0x40)\n      tag_57\n      swap2\n      swap1\n      tag_58\n      jump\t// in\n    tag_57:\n      mload(0x40)\n      dup1\n      swap2\n      sub\n      swap1\n      return\n        /* \"contracts/CrowdFunding.sol\":148:172  uint public targetAmount */\n    tag_11:\n      callvalue\n      dup1\n      iszero\n      tag_59\n      jumpi\n      0x00\n      dup1\n      revert\n    tag_59:\n      pop\n      tag_60\n      tag_61\n      jump\t// in\n    tag_60:\n      mload(0x40)\n      tag_62\n      swap2\n      swap1\n      tag_35\n      jump\t// in\n    tag_62:\n      mload(0x40)\n      dup1\n      swap2\n      sub\n      swap1\n      return\n        /* \"contracts/CrowdFunding.sol\":509:550  mapping(address => Backer) public backers */\n    tag_12:\n      callvalue\n      dup1\n      iszero\n      tag_63\n      jumpi\n      0x00\n      dup1\n      revert\n    tag_63:\n      pop\n      tag_64\n      0x04\n      dup1\n      calldatasize\n      sub\n      dup2\n      add\n      swap1\n      tag_65\n      swap2\n      swap1\n      tag_66\n      jump\t// in\n    tag_65:\n      tag_67\n      jump\t// in\n    tag_64:\n      mload(0x40)\n      tag_68\n      swap2\n      swap1\n      tag_35\n      jump\t// in\n    tag_68:\n      mload(0x40)\n      dup1\n      swap2\n      sub\n      swap1\n      return\n        /* \"contracts/CrowdFunding.sol\":281:307  CampaignState public state */\n    tag_13:\n      callvalue\n      dup1\n      iszero\n      tag_69\n      jumpi\n      0x00\n      dup1\n      revert\n    tag_69:\n      pop\n      tag_70\n      tag_71\n      jump\t// in\n    tag_70:\n      mload(0x40)\n      tag_72\n      swap2\n      swap1\n      tag_73\n      jump\t// in\n    tag_72:\n      mload(0x40)\n      dup1\n      swap2\n      sub\n      swap1\n      return\n        /* \"contracts/CrowdFunding.sol\":2044:2520  function fund(uint256 _tierIndex)public payable isCampaignActive{... */\n    tag_14:\n      tag_74\n      0x04\n      dup1\n      calldatasize\n      sub\n      dup2\n      add\n      swap1\n      tag_75\n      swap2\n      swap1\n      tag_22\n      jump\t// in\n    tag_75:\n      tag_76\n      jump\t// in\n    tag_74:\n      stop\n        /* \"contracts/CrowdFunding.sol\":1644:1837  function addTier (uint256 _amount, string memory _name)  public onlyOwner{... */\n    tag_15:\n      callvalue\n      dup1\n      iszero\n      tag_77\n      jumpi\n      0x00\n      dup1\n      revert\n    tag_77:\n      pop\n      tag_78\n      0x04\n      dup1\n      calldatasize\n      sub\n      dup2\n      add\n      swap1\n      tag_79\n      swap2\n      swap1\n      tag_80\n      jump\t// in\n    tag_79:\n      tag_81\n      jump\t// in\n    tag_78:\n      stop\n        /* \"contracts/CrowdFunding.sol\":557:576  Tier[] public tiers */\n    tag_23:\n      0x06\n      dup2\n      dup2\n      sload\n      dup2\n      lt\n      tag_82\n      jumpi\n      0x00\n      dup1\n      revert\n    tag_82:\n      swap1\n      0x00\n      mstore\n      keccak256(0x00, 0x20)\n      swap1\n      0x03\n      mul\n      add\n      0x00\n      swap2\n      pop\n      swap1\n      pop\n      dup1\n      0x00\n      add\n      dup1\n      sload\n      tag_84\n      swap1\n      tag_85\n      jump\t// in\n    tag_84:\n      dup1\n      0x1f\n      add\n      0x20\n      dup1\n      swap2\n      div\n      mul\n      0x20\n      add\n      mload(0x40)\n      swap1\n      dup2\n      add\n      0x40\n      mstore\n      dup1\n      swap3\n      swap2\n      swap1\n      dup2\n      dup2\n      mstore\n      0x20\n      add\n      dup3\n      dup1\n      sload\n      tag_86\n      swap1\n      tag_85\n      jump\t// in\n    tag_86:\n      dup1\n      iszero\n      tag_87\n      jumpi\n      dup1\n      0x1f\n      lt\n      tag_88\n      jumpi\n      0x0100\n      dup1\n      dup4\n      sload\n      div\n      mul\n      dup4\n      mstore\n      swap2\n      0x20\n      add\n      swap2\n      jump(tag_87)\n    tag_88:\n      dup3\n      add\n      swap2\n      swap1\n      0x00\n      mstore\n      keccak256(0x00, 0x20)\n      swap1\n    tag_89:\n      dup2\n      sload\n      dup2\n      mstore\n      swap1\n      0x01\n      add\n      swap1\n      0x20\n      add\n      dup1\n      dup4\n      gt\n      tag_89\n      jumpi\n      dup3\n      swap1\n      sub\n      0x1f\n      and\n      dup3\n      add\n      swap2\n    tag_87:\n      pop\n      pop\n      pop\n      pop\n      pop\n      swap1\n      dup1\n      0x01\n      add\n      sload\n      swap1\n      dup1\n      0x02\n      add\n      sload\n      swap1\n      pop\n      dup4\n      jump\t// out\n        /* \"contracts/CrowdFunding.sol\":85:111  string public campaignName */\n    tag_28:\n      0x00\n      dup1\n      sload\n      tag_90\n      swap1\n      tag_85\n      jump\t// in\n    tag_90:\n      dup1\n      0x1f\n      add\n      0x20\n      dup1\n      swap2\n      div\n      mul\n      0x20\n      add\n      mload(0x40)\n      swap1\n      dup2\n      add\n      0x40\n      mstore\n      dup1\n      swap3\n      swap2\n      swap1\n      dup2\n      dup2\n      mstore\n      0x20\n      add\n      dup3\n      dup1\n      sload\n      tag_91\n      swap1\n      tag_85\n      jump\t// in\n    tag_91:\n      dup1\n      iszero\n      tag_92\n      jumpi\n      dup1\n      0x1f\n      lt\n      tag_93\n      jumpi\n      0x0100\n      dup1\n      dup4\n      sload\n      div\n      mul\n      dup4\n      mstore\n      swap2\n      0x20\n      add\n      swap2\n      jump(tag_92)\n    tag_93:\n      dup3\n      add\n      swap2\n      swap1\n      0x00\n      mstore\n      keccak256(0x00, 0x20)\n      swap1\n    tag_94:\n      dup2\n      sload\n      dup2\n      mstore\n      swap1\n      0x01\n      add\n      swap1\n      0x20\n      add\n      dup1\n      dup4\n      gt\n      tag_94\n      jumpi\n      dup3\n      swap1\n      sub\n      0x1f\n      and\n      dup3\n      add\n      swap2\n    tag_92:\n      pop\n      pop\n      pop\n      pop\n      pop\n      dup2\n      jump\t// out\n        /* \"contracts/CrowdFunding.sol\":2873:2968  function getBalance()public view returns (uint256){... */\n    tag_33:\n        /* \"contracts/CrowdFunding.sol\":2915:2922  uint256 */\n      0x00\n        /* \"contracts/CrowdFunding.sol\":2940:2961  address(this).balance */\n      selfbalance\n        /* \"contracts/CrowdFunding.sol\":2933:2961  return address(this).balance */\n      swap1\n      pop\n        /* \"contracts/CrowdFunding.sol\":2873:2968  function getBalance()public view returns (uint256){... */\n      swap1\n      jump\t// out\n        /* \"contracts/CrowdFunding.sol\":178:198  uint public deadline */\n    tag_38:\n      sload(0x03)\n      dup2\n      jump\t// out\n        /* \"contracts/CrowdFunding.sol\":2526:2866  function withdraw() public onlyOwner{... */\n    tag_42:\n        /* \"contracts/CrowdFunding.sol\":636:641  owner */\n      0x04\n      0x00\n      swap1\n      sload\n      swap1\n      0x0100\n      exp\n      swap1\n      div\n      0xffffffffffffffffffffffffffffffffffffffff\n      and\n        /* \"contracts/CrowdFunding.sol\":622:641  msg.sender == owner */\n      0xffffffffffffffffffffffffffffffffffffffff\n      and\n        /* \"contracts/CrowdFunding.sol\":622:632  msg.sender */\n      caller\n        /* \"contracts/CrowdFunding.sol\":622:641  msg.sender == owner */\n      0xffffffffffffffffffffffffffffffffffffffff\n      and\n      eq\n        /* \"contracts/CrowdFunding.sol\":613:681  require (msg.sender == owner, \"Only Owners Can Perform This Action\") */\n      tag_97\n      jumpi\n      mload(0x40)\n      0x08c379a000000000000000000000000000000000000000000000000000000000\n      dup2\n      mstore\n      0x04\n      add\n      tag_98\n      swap1\n      tag_99\n      jump\t// in\n    tag_98:\n      mload(0x40)\n      dup1\n      swap2\n      sub\n      swap1\n      revert\n    tag_97:\n        /* \"contracts/CrowdFunding.sol\":2572:2601  checkAndUpdateCampaignState() */\n      tag_101\n        /* \"contracts/CrowdFunding.sol\":2572:2599  checkAndUpdateCampaignState */\n      tag_102\n        /* \"contracts/CrowdFunding.sol\":2572:2601  checkAndUpdateCampaignState() */\n      jump\t// in\n    tag_101:\n        /* \"contracts/CrowdFunding.sol\":2628:2652  CampaignState.Successful */\n      0x01\n        /* \"contracts/CrowdFunding.sol\":2619:2652  state == CampaignState.Successful */\n      0x02\n      dup2\n      gt\n      iszero\n      tag_103\n      jumpi\n      tag_104\n      tag_105\n      jump\t// in\n    tag_104:\n    tag_103:\n        /* \"contracts/CrowdFunding.sol\":2619:2624  state */\n      0x04\n      0x14\n      swap1\n      sload\n      swap1\n      0x0100\n      exp\n      swap1\n      div\n      0xff\n      and\n        /* \"contracts/CrowdFunding.sol\":2619:2652  state == CampaignState.Successful */\n      0x02\n      dup2\n      gt\n      iszero\n      tag_106\n      jumpi\n      tag_107\n      tag_105\n      jump\t// in\n    tag_107:\n    tag_106:\n      eq\n        /* \"contracts/CrowdFunding.sol\":2611:2685  require(state == CampaignState.Successful , \"Campaign not yet Successful\") */\n      tag_108\n      jumpi\n      mload(0x40)\n      0x08c379a000000000000000000000000000000000000000000000000000000000\n      dup2\n      mstore\n      0x04\n      add\n      tag_109\n      swap1\n      tag_110\n      jump\t// in\n    tag_109:\n      mload(0x40)\n      dup1\n      swap2\n      sub\n      swap1\n      revert\n    tag_108:\n        /* \"contracts/CrowdFunding.sol\":2696:2711  uint256 balance */\n      0x00\n        /* \"contracts/CrowdFunding.sol\":2714:2735  address(this).balance */\n      selfbalance\n        /* \"contracts/CrowdFunding.sol\":2696:2735  uint256 balance = address(this).balance */\n      swap1\n      pop\n        /* \"contracts/CrowdFunding.sol\":2764:2765  0 */\n      0x00\n        /* \"contracts/CrowdFunding.sol\":2754:2761  balance */\n      dup2\n        /* \"contracts/CrowdFunding.sol\":2754:2765  balance > 0 */\n      gt\n        /* \"contracts/CrowdFunding.sol\":2746:2805  require(balance > 0, \"Transfer amount must be more than 0\") */\n      tag_111\n      jumpi\n      mload(0x40)\n      0x08c379a000000000000000000000000000000000000000000000000000000000\n      dup2\n      mstore\n      0x04\n      add\n      tag_112\n      swap1\n      tag_113\n      jump\t// in\n    tag_112:\n      mload(0x40)\n      dup1\n      swap2\n      sub\n      swap1\n      revert\n    tag_111:\n        /* \"contracts/CrowdFunding.sol\":2824:2829  owner */\n      0x04\n      0x00\n      swap1\n      sload\n      swap1\n      0x0100\n      exp\n      swap1\n      div\n      0xffffffffffffffffffffffffffffffffffffffff\n      and\n        /* \"contracts/CrowdFunding.sol\":2816:2839  payable(owner).transfer */\n      0xffffffffffffffffffffffffffffffffffffffff\n      and\n        /* \"contracts/CrowdFunding.sol\":2816:2848  payable(owner).transfer(balance) */\n      0x08fc\n        /* \"contracts/CrowdFunding.sol\":2840:2847  balance */\n      dup3\n        /* \"contracts/CrowdFunding.sol\":2816:2848  payable(owner).transfer(balance) */\n      swap1\n      dup2\n      iszero\n      mul\n      swap1\n      mload(0x40)\n      0x00\n      mload(0x40)\n      dup1\n      dup4\n      sub\n      dup2\n      dup6\n      dup9\n      dup9\n      call\n      swap4\n      pop\n      pop\n      pop\n      pop\n      iszero\n      dup1\n      iszero\n      tag_115\n      jumpi\n      returndatasize\n      0x00\n      dup1\n      returndatacopy\n      revert(0x00, returndatasize)\n    tag_115:\n      pop\n        /* \"contracts/CrowdFunding.sol\":2562:2866  {... */\n      pop\n        /* \"contracts/CrowdFunding.sol\":2526:2866  function withdraw() public onlyOwner{... */\n      jump\t// out\n        /* \"contracts/CrowdFunding.sol\":2973:3232  function refund() public {... */\n    tag_45:\n        /* \"contracts/CrowdFunding.sol\":3008:3037  checkAndUpdateCampaignState() */\n      tag_117\n        /* \"contracts/CrowdFunding.sol\":3008:3035  checkAndUpdateCampaignState */\n      tag_102\n        /* \"contracts/CrowdFunding.sol\":3008:3037  checkAndUpdateCampaignState() */\n      jump\t// in\n    tag_117:\n        /* \"contracts/CrowdFunding.sol\":3127:3138  uint amount */\n      0x00\n        /* \"contracts/CrowdFunding.sol\":3142:3149  backers */\n      0x05\n        /* \"contracts/CrowdFunding.sol\":3142:3161  backers[msg.sender] */\n      0x00\n        /* \"contracts/CrowdFunding.sol\":3150:3160  msg.sender */\n      caller\n        /* \"contracts/CrowdFunding.sol\":3142:3161  backers[msg.sender] */\n      0xffffffffffffffffffffffffffffffffffffffff\n      and\n      0xffffffffffffffffffffffffffffffffffffffff\n      and\n      dup2\n      mstore\n      0x20\n      add\n      swap1\n      dup2\n      mstore\n      0x20\n      add\n      0x00\n      keccak256\n        /* \"contracts/CrowdFunding.sol\":3142:3179  backers[msg.sender].totalContribution */\n      0x00\n      add\n      sload\n        /* \"contracts/CrowdFunding.sol\":3127:3179  uint amount =  backers[msg.sender].totalContribution */\n      swap1\n      pop\n        /* \"contracts/CrowdFunding.sol\":3196:3206  msg.sender */\n      caller\n        /* \"contracts/CrowdFunding.sol\":3188:3216  payable(msg.sender).transfer */\n      0xffffffffffffffffffffffffffffffffffffffff\n      and\n        /* \"contracts/CrowdFunding.sol\":3188:3224  payable(msg.sender).transfer(amount) */\n      0x08fc\n        /* \"contracts/CrowdFunding.sol\":3217:3223  amount */\n      dup3\n        /* \"contracts/CrowdFunding.sol\":3188:3224  payable(msg.sender).transfer(amount) */\n      swap1\n      dup2\n      iszero\n      mul\n      swap1\n      mload(0x40)\n      0x00\n      mload(0x40)\n      dup1\n      dup4\n      sub\n      dup2\n      dup6\n      dup9\n      dup9\n      call\n      swap4\n      pop\n      pop\n      pop\n      pop\n      iszero\n      dup1\n      iszero\n      tag_119\n      jumpi\n      returndatasize\n      0x00\n      dup1\n      returndatacopy\n      revert(0x00, returndatasize)\n    tag_119:\n      pop\n        /* \"contracts/CrowdFunding.sol\":2998:3232  {... */\n      pop\n        /* \"contracts/CrowdFunding.sol\":2973:3232  function refund() public {... */\n      jump\t// out\n        /* \"contracts/CrowdFunding.sol\":117:142  string public description */\n    tag_48:\n      0x01\n      dup1\n      sload\n      tag_120\n      swap1\n      tag_85\n      jump\t// in\n    tag_120:\n      dup1\n      0x1f\n      add\n      0x20\n      dup1\n      swap2\n      div\n      mul\n      0x20\n      add\n      mload(0x40)\n      swap1\n      dup2\n      add\n      0x40\n      mstore\n      dup1\n      swap3\n      swap2\n      swap1\n      dup2\n      dup2\n      mstore\n      0x20\n      add\n      dup3\n      dup1\n      sload\n      tag_121\n      swap1\n      tag_85\n      jump\t// in\n    tag_121:\n      dup1\n      iszero\n      tag_122\n      jumpi\n      dup1\n      0x1f\n      lt\n      tag_123\n      jumpi\n      0x0100\n      dup1\n      dup4\n      sload\n      div\n      mul\n      dup4\n      mstore\n      swap2\n      0x20\n      add\n      swap2\n      jump(tag_122)\n    tag_123:\n      dup3\n      add\n      swap2\n      swap1\n      0x00\n      mstore\n      keccak256(0x00, 0x20)\n      swap1\n    tag_124:\n      dup2\n      sload\n      dup2\n      mstore\n      swap1\n      0x01\n      add\n      swap1\n      0x20\n      add\n      dup1\n      dup4\n      gt\n      tag_124\n      jumpi\n      dup3\n      swap1\n      sub\n      0x1f\n      and\n      dup3\n      add\n      swap2\n    tag_122:\n      pop\n      pop\n      pop\n      pop\n      pop\n      dup2\n      jump\t// out\n        /* \"contracts/CrowdFunding.sol\":1843:2038  function removeTier(uint256 _index) public onlyOwner{... */\n    tag_53:\n        /* \"contracts/CrowdFunding.sol\":636:641  owner */\n      0x04\n      0x00\n      swap1\n      sload\n      swap1\n      0x0100\n      exp\n      swap1\n      div\n      0xffffffffffffffffffffffffffffffffffffffff\n      and\n        /* \"contracts/CrowdFunding.sol\":622:641  msg.sender == owner */\n      0xffffffffffffffffffffffffffffffffffffffff\n      and\n        /* \"contracts/CrowdFunding.sol\":622:632  msg.sender */\n      caller\n        /* \"contracts/CrowdFunding.sol\":622:641  msg.sender == owner */\n      0xffffffffffffffffffffffffffffffffffffffff\n      and\n      eq\n        /* \"contracts/CrowdFunding.sol\":613:681  require (msg.sender == owner, \"Only Owners Can Perform This Action\") */\n      tag_126\n      jumpi\n      mload(0x40)\n      0x08c379a000000000000000000000000000000000000000000000000000000000\n      dup2\n      mstore\n      0x04\n      add\n      tag_127\n      swap1\n      tag_99\n      jump\t// in\n    tag_127:\n      mload(0x40)\n      dup1\n      swap2\n      sub\n      swap1\n      revert\n    tag_126:\n        /* \"contracts/CrowdFunding.sol\":1922:1927  tiers */\n      0x06\n        /* \"contracts/CrowdFunding.sol\":1922:1934  tiers.length */\n      dup1\n      sload\n      swap1\n      pop\n        /* \"contracts/CrowdFunding.sol\":1913:1919  _index */\n      dup2\n        /* \"contracts/CrowdFunding.sol\":1913:1934  _index < tiers.length */\n      lt\n        /* \"contracts/CrowdFunding.sol\":1905:1958  require(_index < tiers.length, \"Tier does not exist\") */\n      tag_129\n      jumpi\n      mload(0x40)\n      0x08c379a000000000000000000000000000000000000000000000000000000000\n      dup2\n      mstore\n      0x04\n      add\n      tag_130\n      swap1\n      tag_131\n      jump\t// in\n    tag_130:\n      mload(0x40)\n      dup1\n      swap2\n      sub\n      swap1\n      revert\n    tag_129:\n        /* \"contracts/CrowdFunding.sol\":1985:1990  tiers */\n      0x06\n        /* \"contracts/CrowdFunding.sol\":2006:2007  1 */\n      0x01\n        /* \"contracts/CrowdFunding.sol\":1991:1996  tiers */\n      0x06\n        /* \"contracts/CrowdFunding.sol\":1991:2003  tiers.length */\n      dup1\n      sload\n      swap1\n      pop\n        /* \"contracts/CrowdFunding.sol\":1991:2007  tiers.length - 1 */\n      tag_132\n      swap2\n      swap1\n      tag_133\n      jump\t// in\n    tag_132:\n        /* \"contracts/CrowdFunding.sol\":1985:2008  tiers[tiers.length - 1] */\n      dup2\n      sload\n      dup2\n      lt\n      tag_134\n      jumpi\n      tag_135\n      tag_136\n      jump\t// in\n    tag_135:\n    tag_134:\n      swap1\n      0x00\n      mstore\n      keccak256(0x00, 0x20)\n      swap1\n      0x03\n      mul\n      add\n        /* \"contracts/CrowdFunding.sol\":1969:1974  tiers */\n      0x06\n        /* \"contracts/CrowdFunding.sol\":1975:1981  _index */\n      dup3\n        /* \"contracts/CrowdFunding.sol\":1969:1982  tiers[_index] */\n      dup2\n      sload\n      dup2\n      lt\n      tag_138\n      jumpi\n      tag_139\n      tag_136\n      jump\t// in\n    tag_139:\n    tag_138:\n      swap1\n      0x00\n      mstore\n      keccak256(0x00, 0x20)\n      swap1\n      0x03\n      mul\n      add\n        /* \"contracts/CrowdFunding.sol\":1969:2008  tiers[_index] = tiers[tiers.length - 1] */\n      0x00\n      dup3\n      add\n      dup2\n      0x00\n      add\n      swap1\n      dup2\n      tag_141\n      swap2\n      swap1\n      tag_142\n      jump\t// in\n    tag_141:\n      pop\n      0x01\n      dup3\n      add\n      sload\n      dup2\n      0x01\n      add\n      sstore\n      0x02\n      dup3\n      add\n      sload\n      dup2\n      0x02\n      add\n      sstore\n      swap1\n      pop\n      pop\n        /* \"contracts/CrowdFunding.sol\":2019:2024  tiers */\n      0x06\n        /* \"contracts/CrowdFunding.sol\":2019:2030  tiers.pop() */\n      dup1\n      sload\n      dup1\n      tag_143\n      jumpi\n      tag_144\n      tag_145\n      jump\t// in\n    tag_144:\n    tag_143:\n      0x01\n      swap1\n      sub\n      dup2\n      dup2\n      swap1\n      0x00\n      mstore\n      keccak256(0x00, 0x20)\n      swap1\n      0x03\n      mul\n      add\n      0x00\n      dup1\n      dup3\n      add\n      0x00\n      tag_147\n      swap2\n      swap1\n      tag_148\n      jump\t// in\n    tag_147:\n      0x01\n      dup3\n      add\n      0x00\n      swap1\n      sstore\n      0x02\n      dup3\n      add\n      0x00\n      swap1\n      sstore\n      pop\n      pop\n      swap1\n      sstore\n        /* \"contracts/CrowdFunding.sol\":1843:2038  function removeTier(uint256 _index) public onlyOwner{... */\n      pop\n      jump\t// out\n        /* \"contracts/CrowdFunding.sol\":204:224  address public owner */\n    tag_56:\n      0x04\n      0x00\n      swap1\n      sload\n      swap1\n      0x0100\n      exp\n      swap1\n      div\n      0xffffffffffffffffffffffffffffffffffffffff\n      and\n      dup2\n      jump\t// out\n        /* \"contracts/CrowdFunding.sol\":148:172  uint public targetAmount */\n    tag_61:\n      sload(0x02)\n      dup2\n      jump\t// out\n        /* \"contracts/CrowdFunding.sol\":509:550  mapping(address => Backer) public backers */\n    tag_67:\n      mstore(0x20, 0x05)\n      dup1\n      0x00\n      mstore\n      keccak256(0x00, 0x40)\n      0x00\n      swap2\n      pop\n      swap1\n      pop\n      dup1\n      0x00\n      add\n      sload\n      swap1\n      pop\n      dup2\n      jump\t// out\n        /* \"contracts/CrowdFunding.sol\":281:307  CampaignState public state */\n    tag_71:\n      0x04\n      0x14\n      swap1\n      sload\n      swap1\n      0x0100\n      exp\n      swap1\n      div\n      0xff\n      and\n      dup2\n      jump\t// out\n        /* \"contracts/CrowdFunding.sol\":2044:2520  function fund(uint256 _tierIndex)public payable isCampaignActive{... */\n    tag_76:\n        /* \"contracts/CrowdFunding.sol\":758:778  CampaignState.Active */\n      0x00\n        /* \"contracts/CrowdFunding.sol\":749:778  state == CampaignState.Active */\n      0x02\n      dup2\n      gt\n      iszero\n      tag_150\n      jumpi\n      tag_151\n      tag_105\n      jump\t// in\n    tag_151:\n    tag_150:\n        /* \"contracts/CrowdFunding.sol\":749:754  state */\n      0x04\n      0x14\n      swap1\n      sload\n      swap1\n      0x0100\n      exp\n      swap1\n      div\n      0xff\n      and\n        /* \"contracts/CrowdFunding.sol\":749:778  state == CampaignState.Active */\n      0x02\n      dup2\n      gt\n      iszero\n      tag_152\n      jumpi\n      tag_153\n      tag_105\n      jump\t// in\n    tag_153:\n    tag_152:\n      eq\n        /* \"contracts/CrowdFunding.sol\":741:805  require(state == CampaignState.Active, \"Campaign is not Active\") */\n      tag_154\n      jumpi\n      mload(0x40)\n      0x08c379a000000000000000000000000000000000000000000000000000000000\n      dup2\n      mstore\n      0x04\n      add\n      tag_155\n      swap1\n      tag_156\n      jump\t// in\n    tag_155:\n      mload(0x40)\n      dup1\n      swap2\n      sub\n      swap1\n      revert\n    tag_154:\n        /* \"contracts/CrowdFunding.sol\":2144:2152  deadline */\n      sload(0x03)\n        /* \"contracts/CrowdFunding.sol\":2126:2141  block.timestamp */\n      timestamp\n        /* \"contracts/CrowdFunding.sol\":2126:2152  block.timestamp < deadline */\n      lt\n        /* \"contracts/CrowdFunding.sol\":2118:2175  require(block.timestamp < deadline, \"Campaign has ended\") */\n      tag_158\n      jumpi\n      mload(0x40)\n      0x08c379a000000000000000000000000000000000000000000000000000000000\n      dup2\n      mstore\n      0x04\n      add\n      tag_159\n      swap1\n      tag_160\n      jump\t// in\n    tag_159:\n      mload(0x40)\n      dup1\n      swap2\n      sub\n      swap1\n      revert\n    tag_158:\n        /* \"contracts/CrowdFunding.sol\":2206:2211  tiers */\n      0x06\n        /* \"contracts/CrowdFunding.sol\":2206:2218  tiers.length */\n      dup1\n      sload\n      swap1\n      pop\n        /* \"contracts/CrowdFunding.sol\":2193:2203  _tierIndex */\n      dup2\n        /* \"contracts/CrowdFunding.sol\":2193:2218  _tierIndex < tiers.length */\n      lt\n        /* \"contracts/CrowdFunding.sol\":2185:2235  require(_tierIndex < tiers.length, \"Invalid Tier\") */\n      tag_161\n      jumpi\n      mload(0x40)\n      0x08c379a000000000000000000000000000000000000000000000000000000000\n      dup2\n      mstore\n      0x04\n      add\n      tag_162\n      swap1\n      tag_163\n      jump\t// in\n    tag_162:\n      mload(0x40)\n      dup1\n      swap2\n      sub\n      swap1\n      revert\n    tag_161:\n        /* \"contracts/CrowdFunding.sol\":2265:2270  tiers */\n      0x06\n        /* \"contracts/CrowdFunding.sol\":2271:2281  _tierIndex */\n      dup2\n        /* \"contracts/CrowdFunding.sol\":2265:2282  tiers[_tierIndex] */\n      dup2\n      sload\n      dup2\n      lt\n      tag_164\n      jumpi\n      tag_165\n      tag_136\n      jump\t// in\n    tag_165:\n    tag_164:\n      swap1\n      0x00\n      mstore\n      keccak256(0x00, 0x20)\n      swap1\n      0x03\n      mul\n      add\n        /* \"contracts/CrowdFunding.sol\":2265:2289  tiers[_tierIndex].amount */\n      0x01\n      add\n      sload\n        /* \"contracts/CrowdFunding.sol\":2252:2261  msg.value */\n      callvalue\n        /* \"contracts/CrowdFunding.sol\":2252:2289  msg.value == tiers[_tierIndex].amount */\n      eq\n        /* \"contracts/CrowdFunding.sol\":2244:2321  require(msg.value == tiers[_tierIndex].amount , \"Tier amount does not match\") */\n      tag_167\n      jumpi\n      mload(0x40)\n      0x08c379a000000000000000000000000000000000000000000000000000000000\n      dup2\n      mstore\n      0x04\n      add\n      tag_168\n      swap1\n      tag_169\n      jump\t// in\n    tag_168:\n      mload(0x40)\n      dup1\n      swap2\n      sub\n      swap1\n      revert\n    tag_167:\n        /* \"contracts/CrowdFunding.sol\":2332:2337  tiers */\n      0x06\n        /* \"contracts/CrowdFunding.sol\":2338:2348  _tierIndex */\n      dup2\n        /* \"contracts/CrowdFunding.sol\":2332:2349  tiers[_tierIndex] */\n      dup2\n      sload\n      dup2\n      lt\n      tag_170\n      jumpi\n      tag_171\n      tag_136\n      jump\t// in\n    tag_171:\n    tag_170:\n      swap1\n      0x00\n      mstore\n      keccak256(0x00, 0x20)\n      swap1\n      0x03\n      mul\n      add\n        /* \"contracts/CrowdFunding.sol\":2332:2357  tiers[_tierIndex].backers */\n      0x02\n      add\n      0x00\n        /* \"contracts/CrowdFunding.sol\":2332:2359  tiers[_tierIndex].backers++ */\n      dup2\n      sload\n      dup1\n      swap3\n      swap2\n      swap1\n      tag_173\n      swap1\n      tag_174\n      jump\t// in\n    tag_173:\n      swap2\n      swap1\n      pop\n      sstore\n      pop\n        /* \"contracts/CrowdFunding.sol\":2413:2417  true */\n      0x01\n        /* \"contracts/CrowdFunding.sol\":2368:2375  backers */\n      0x05\n        /* \"contracts/CrowdFunding.sol\":2368:2387  backers[msg.sender] */\n      0x00\n        /* \"contracts/CrowdFunding.sol\":2376:2386  msg.sender */\n      caller\n        /* \"contracts/CrowdFunding.sol\":2368:2387  backers[msg.sender] */\n      0xffffffffffffffffffffffffffffffffffffffff\n      and\n      0xffffffffffffffffffffffffffffffffffffffff\n      and\n      dup2\n      mstore\n      0x20\n      add\n      swap1\n      dup2\n      mstore\n      0x20\n      add\n      0x00\n      keccak256\n        /* \"contracts/CrowdFunding.sol\":2368:2398  backers[msg.sender].fundedTier */\n      0x01\n      add\n        /* \"contracts/CrowdFunding.sol\":2368:2410  backers[msg.sender].fundedTier[_tierIndex] */\n      0x00\n        /* \"contracts/CrowdFunding.sol\":2399:2409  _tierIndex */\n      dup4\n        /* \"contracts/CrowdFunding.sol\":2368:2410  backers[msg.sender].fundedTier[_tierIndex] */\n      dup2\n      mstore\n      0x20\n      add\n      swap1\n      dup2\n      mstore\n      0x20\n      add\n      0x00\n      keccak256\n      0x00\n        /* \"contracts/CrowdFunding.sol\":2368:2417  backers[msg.sender].fundedTier[_tierIndex] = true */\n      0x0100\n      exp\n      dup2\n      sload\n      dup2\n      0xff\n      mul\n      not\n      and\n      swap1\n      dup4\n      iszero\n      iszero\n      mul\n      or\n      swap1\n      sstore\n      pop\n        /* \"contracts/CrowdFunding.sol\":2467:2476  msg.value */\n      callvalue\n        /* \"contracts/CrowdFunding.sol\":2426:2433  backers */\n      0x05\n        /* \"contracts/CrowdFunding.sol\":2426:2445  backers[msg.sender] */\n      0x00\n        /* \"contracts/CrowdFunding.sol\":2434:2444  msg.sender */\n      caller\n        /* \"contracts/CrowdFunding.sol\":2426:2445  backers[msg.sender] */\n      0xffffffffffffffffffffffffffffffffffffffff\n      and\n      0xffffffffffffffffffffffffffffffffffffffff\n      and\n      dup2\n      mstore\n      0x20\n      add\n      swap1\n      dup2\n      mstore\n      0x20\n      add\n      0x00\n      keccak256\n        /* \"contracts/CrowdFunding.sol\":2426:2463  backers[msg.sender].totalContribution */\n      0x00\n      add\n      0x00\n        /* \"contracts/CrowdFunding.sol\":2426:2476  backers[msg.sender].totalContribution += msg.value */\n      dup3\n      dup3\n      sload\n      tag_175\n      swap2\n      swap1\n      tag_176\n      jump\t// in\n    tag_175:\n      swap3\n      pop\n      pop\n      dup2\n      swap1\n      sstore\n      pop\n        /* \"contracts/CrowdFunding.sol\":2483:2512  checkAndUpdateCampaignState() */\n      tag_177\n        /* \"contracts/CrowdFunding.sol\":2483:2510  checkAndUpdateCampaignState */\n      tag_102\n        /* \"contracts/CrowdFunding.sol\":2483:2512  checkAndUpdateCampaignState() */\n      jump\t// in\n    tag_177:\n        /* \"contracts/CrowdFunding.sol\":2044:2520  function fund(uint256 _tierIndex)public payable isCampaignActive{... */\n      pop\n      jump\t// out\n        /* \"contracts/CrowdFunding.sol\":1644:1837  function addTier (uint256 _amount, string memory _name)  public onlyOwner{... */\n    tag_81:\n        /* \"contracts/CrowdFunding.sol\":636:641  owner */\n      0x04\n      0x00\n      swap1\n      sload\n      swap1\n      0x0100\n      exp\n      swap1\n      div\n      0xffffffffffffffffffffffffffffffffffffffff\n      and\n        /* \"contracts/CrowdFunding.sol\":622:641  msg.sender == owner */\n      0xffffffffffffffffffffffffffffffffffffffff\n      and\n        /* \"contracts/CrowdFunding.sol\":622:632  msg.sender */\n      caller\n        /* \"contracts/CrowdFunding.sol\":622:641  msg.sender == owner */\n      0xffffffffffffffffffffffffffffffffffffffff\n      and\n      eq\n        /* \"contracts/CrowdFunding.sol\":613:681  require (msg.sender == owner, \"Only Owners Can Perform This Action\") */\n      tag_179\n      jumpi\n      mload(0x40)\n      0x08c379a000000000000000000000000000000000000000000000000000000000\n      dup2\n      mstore\n      0x04\n      add\n      tag_180\n      swap1\n      tag_99\n      jump\t// in\n    tag_180:\n      mload(0x40)\n      dup1\n      swap2\n      sub\n      swap1\n      revert\n    tag_179:\n        /* \"contracts/CrowdFunding.sol\":1745:1746  0 */\n      0x00\n        /* \"contracts/CrowdFunding.sol\":1735:1742  _amount */\n      dup3\n        /* \"contracts/CrowdFunding.sol\":1735:1746  _amount > 0 */\n      gt\n        /* \"contracts/CrowdFunding.sol\":1727:1783  require(_amount > 0, \"Amount must be greater than zero\") */\n      tag_182\n      jumpi\n      mload(0x40)\n      0x08c379a000000000000000000000000000000000000000000000000000000000\n      dup2\n      mstore\n      0x04\n      add\n      tag_183\n      swap1\n      tag_184\n      jump\t// in\n    tag_183:\n      mload(0x40)\n      dup1\n      swap2\n      sub\n      swap1\n      revert\n    tag_182:\n        /* \"contracts/CrowdFunding.sol\":1794:1799  tiers */\n      0x06\n        /* \"contracts/CrowdFunding.sol\":1805:1828  Tier(_name,_amount, 0 ) */\n      mload(0x40)\n      dup1\n      0x60\n      add\n      0x40\n      mstore\n      dup1\n        /* \"contracts/CrowdFunding.sol\":1810:1815  _name */\n      dup4\n        /* \"contracts/CrowdFunding.sol\":1805:1828  Tier(_name,_amount, 0 ) */\n      dup2\n      mstore\n      0x20\n      add\n        /* \"contracts/CrowdFunding.sol\":1816:1823  _amount */\n      dup5\n        /* \"contracts/CrowdFunding.sol\":1805:1828  Tier(_name,_amount, 0 ) */\n      dup2\n      mstore\n      0x20\n      add\n        /* \"contracts/CrowdFunding.sol\":1825:1826  0 */\n      0x00\n        /* \"contracts/CrowdFunding.sol\":1805:1828  Tier(_name,_amount, 0 ) */\n      dup2\n      mstore\n      pop\n        /* \"contracts/CrowdFunding.sol\":1794:1829  tiers.push(Tier(_name,_amount, 0 )) */\n      swap1\n      dup1\n      0x01\n      dup2\n      sload\n      add\n      dup1\n      dup3\n      sstore\n      dup1\n      swap2\n      pop\n      pop\n      0x01\n      swap1\n      sub\n      swap1\n      0x00\n      mstore\n      keccak256(0x00, 0x20)\n      swap1\n      0x03\n      mul\n      add\n      0x00\n      swap1\n      swap2\n      swap1\n      swap2\n      swap1\n      swap2\n      pop\n      0x00\n      dup3\n      add\n      mload\n      dup2\n      0x00\n      add\n      swap1\n      dup2\n      tag_186\n      swap2\n      swap1\n      tag_187\n      jump\t// in\n    tag_186:\n      pop\n      0x20\n      dup3\n      add\n      mload\n      dup2\n      0x01\n      add\n      sstore\n      0x40\n      dup3\n      add\n      mload\n      dup2\n      0x02\n      add\n      sstore\n      pop\n      pop\n        /* \"contracts/CrowdFunding.sol\":1644:1837  function addTier (uint256 _amount, string memory _name)  public onlyOwner{... */\n      pop\n      pop\n      jump\t// out\n        /* \"contracts/CrowdFunding.sol\":1208:1639  function checkAndUpdateCampaignState() internal{... */\n    tag_102:\n        /* \"contracts/CrowdFunding.sol\":1277:1297  CampaignState.Active */\n      0x00\n        /* \"contracts/CrowdFunding.sol\":1268:1297  state == CampaignState.Active */\n      0x02\n      dup2\n      gt\n      iszero\n      tag_189\n      jumpi\n      tag_190\n      tag_105\n      jump\t// in\n    tag_190:\n    tag_189:\n        /* \"contracts/CrowdFunding.sol\":1268:1273  state */\n      0x04\n      0x14\n      swap1\n      sload\n      swap1\n      0x0100\n      exp\n      swap1\n      div\n      0xff\n      and\n        /* \"contracts/CrowdFunding.sol\":1268:1297  state == CampaignState.Active */\n      0x02\n      dup2\n      gt\n      iszero\n      tag_191\n      jumpi\n      tag_192\n      tag_105\n      jump\t// in\n    tag_192:\n    tag_191:\n      sub\n        /* \"contracts/CrowdFunding.sol\":1265:1633  if(state == CampaignState.Active){... */\n      tag_193\n      jumpi\n        /* \"contracts/CrowdFunding.sol\":1334:1342  deadline */\n      sload(0x03)\n        /* \"contracts/CrowdFunding.sol\":1315:1330  block.timestamp */\n      timestamp\n        /* \"contracts/CrowdFunding.sol\":1315:1342  block.timestamp >= deadline */\n      lt\n        /* \"contracts/CrowdFunding.sol\":1312:1610  if(block.timestamp >= deadline){... */\n      tag_194\n      jumpi\n        /* \"contracts/CrowdFunding.sol\":1398:1410  targetAmount */\n      sload(0x02)\n        /* \"contracts/CrowdFunding.sol\":1373:1394  address(this).balance */\n      selfbalance\n        /* \"contracts/CrowdFunding.sol\":1373:1410  address(this).balance >= targetAmount */\n      lt\n      iszero\n        /* \"contracts/CrowdFunding.sol\":1373:1458  address(this).balance >= targetAmount? CampaignState.Successful :CampaignState.Failed */\n      tag_195\n      jumpi\n        /* \"contracts/CrowdFunding.sol\":1438:1458  CampaignState.Failed */\n      0x02\n        /* \"contracts/CrowdFunding.sol\":1373:1458  address(this).balance >= targetAmount? CampaignState.Successful :CampaignState.Failed */\n      jump(tag_196)\n    tag_195:\n        /* \"contracts/CrowdFunding.sol\":1412:1436  CampaignState.Successful */\n      0x01\n        /* \"contracts/CrowdFunding.sol\":1373:1458  address(this).balance >= targetAmount? CampaignState.Successful :CampaignState.Failed */\n    tag_196:\n        /* \"contracts/CrowdFunding.sol\":1365:1370  state */\n      0x04\n      0x14\n        /* \"contracts/CrowdFunding.sol\":1365:1458  state = address(this).balance >= targetAmount? CampaignState.Successful :CampaignState.Failed */\n      0x0100\n      exp\n      dup2\n      sload\n      dup2\n      0xff\n      mul\n      not\n      and\n      swap1\n      dup4\n      0x02\n      dup2\n      gt\n      iszero\n      tag_197\n      jumpi\n      tag_198\n      tag_105\n      jump\t// in\n    tag_198:\n    tag_197:\n      mul\n      or\n      swap1\n      sstore\n      pop\n        /* \"contracts/CrowdFunding.sol\":1312:1610  if(block.timestamp >= deadline){... */\n      jump(tag_199)\n    tag_194:\n        /* \"contracts/CrowdFunding.sol\":1531:1543  targetAmount */\n      sload(0x02)\n        /* \"contracts/CrowdFunding.sol\":1506:1527  address(this).balance */\n      selfbalance\n        /* \"contracts/CrowdFunding.sol\":1506:1543  address(this).balance >= targetAmount */\n      lt\n      iszero\n        /* \"contracts/CrowdFunding.sol\":1506:1591  address(this).balance >= targetAmount? CampaignState.Successful :CampaignState.Active */\n      tag_200\n      jumpi\n        /* \"contracts/CrowdFunding.sol\":1571:1591  CampaignState.Active */\n      0x00\n        /* \"contracts/CrowdFunding.sol\":1506:1591  address(this).balance >= targetAmount? CampaignState.Successful :CampaignState.Active */\n      jump(tag_201)\n    tag_200:\n        /* \"contracts/CrowdFunding.sol\":1545:1569  CampaignState.Successful */\n      0x01\n        /* \"contracts/CrowdFunding.sol\":1506:1591  address(this).balance >= targetAmount? CampaignState.Successful :CampaignState.Active */\n    tag_201:\n        /* \"contracts/CrowdFunding.sol\":1498:1503  state */\n      0x04\n      0x14\n        /* \"contracts/CrowdFunding.sol\":1498:1591  state = address(this).balance >= targetAmount? CampaignState.Successful :CampaignState.Active */\n      0x0100\n      exp\n      dup2\n      sload\n      dup2\n      0xff\n      mul\n      not\n      and\n      swap1\n      dup4\n      0x02\n      dup2\n      gt\n      iszero\n      tag_202\n      jumpi\n      tag_203\n      tag_105\n      jump\t// in\n    tag_203:\n    tag_202:\n      mul\n      or\n      swap1\n      sstore\n      pop\n        /* \"contracts/CrowdFunding.sol\":1312:1610  if(block.timestamp >= deadline){... */\n    tag_199:\n        /* \"contracts/CrowdFunding.sol\":1265:1633  if(state == CampaignState.Active){... */\n    tag_193:\n        /* \"contracts/CrowdFunding.sol\":1208:1639  function checkAndUpdateCampaignState() internal{... */\n      jump\t// out\n    tag_148:\n      pop\n      dup1\n      sload\n      tag_204\n      swap1\n      tag_85\n      jump\t// in\n    tag_204:\n      0x00\n      dup3\n      sstore\n      dup1\n      0x1f\n      lt\n      tag_206\n      jumpi\n      pop\n      jump(tag_205)\n    tag_206:\n      0x1f\n      add\n      0x20\n      swap1\n      div\n      swap1\n      0x00\n      mstore\n      keccak256(0x00, 0x20)\n      swap1\n      dup2\n      add\n      swap1\n      tag_207\n      swap2\n      swap1\n      tag_208\n      jump\t// in\n    tag_207:\n    tag_205:\n      pop\n      jump\t// out\n    tag_208:\n    tag_209:\n      dup1\n      dup3\n      gt\n      iszero\n      tag_210\n      jumpi\n      0x00\n      dup2\n      0x00\n      swap1\n      sstore\n      pop\n      0x01\n      add\n      jump(tag_209)\n    tag_210:\n      pop\n      swap1\n      jump\t// out\n        /* \"#utility.yul\":7:82   */\n    tag_211:\n        /* \"#utility.yul\":40:46   */\n      0x00\n        /* \"#utility.yul\":73:75   */\n      0x40\n        /* \"#utility.yul\":67:76   */\n      mload\n        /* \"#utility.yul\":57:76   */\n      swap1\n      pop\n        /* \"#utility.yul\":7:82   */\n      swap1\n      jump\t// out\n        /* \"#utility.yul\":88:205   */\n    tag_212:\n        /* \"#utility.yul\":197:198   */\n      0x00\n        /* \"#utility.yul\":194:195   */\n      dup1\n        /* \"#utility.yul\":187:199   */\n      revert\n        /* \"#utility.yul\":211:328   */\n    tag_213:\n        /* \"#utility.yul\":320:321   */\n      0x00\n        /* \"#utility.yul\":317:318   */\n      dup1\n        /* \"#utility.yul\":310:322   */\n      revert\n        /* \"#utility.yul\":334:411   */\n    tag_214:\n        /* \"#utility.yul\":371:378   */\n      0x00\n        /* \"#utility.yul\":400:405   */\n      dup2\n        /* \"#utility.yul\":389:405   */\n      swap1\n      pop\n        /* \"#utility.yul\":334:411   */\n      swap2\n      swap1\n      pop\n      jump\t// out\n        /* \"#utility.yul\":417:539   */\n    tag_215:\n        /* \"#utility.yul\":490:514   */\n      tag_283\n        /* \"#utility.yul\":508:513   */\n      dup2\n        /* \"#utility.yul\":490:514   */\n      tag_214\n      jump\t// in\n    tag_283:\n        /* \"#utility.yul\":483:488   */\n      dup2\n        /* \"#utility.yul\":480:515   */\n      eq\n        /* \"#utility.yul\":470:533   */\n      tag_284\n      jumpi\n        /* \"#utility.yul\":529:530   */\n      0x00\n        /* \"#utility.yul\":526:527   */\n      dup1\n        /* \"#utility.yul\":519:531   */\n      revert\n        /* \"#utility.yul\":470:533   */\n    tag_284:\n        /* \"#utility.yul\":417:539   */\n      pop\n      jump\t// out\n        /* \"#utility.yul\":545:684   */\n    tag_216:\n        /* \"#utility.yul\":591:596   */\n      0x00\n        /* \"#utility.yul\":629:635   */\n      dup2\n        /* \"#utility.yul\":616:636   */\n      calldataload\n        /* \"#utility.yul\":607:636   */\n      swap1\n      pop\n        /* \"#utility.yul\":645:678   */\n      tag_286\n        /* \"#utility.yul\":672:677   */\n      dup2\n        /* \"#utility.yul\":645:678   */\n      tag_215\n      jump\t// in\n    tag_286:\n        /* \"#utility.yul\":545:684   */\n      swap3\n      swap2\n      pop\n      pop\n      jump\t// out\n        /* \"#utility.yul\":690:1019   */\n    tag_22:\n        /* \"#utility.yul\":749:755   */\n      0x00\n        /* \"#utility.yul\":798:800   */\n      0x20\n        /* \"#utility.yul\":786:795   */\n      dup3\n        /* \"#utility.yul\":777:784   */\n      dup5\n        /* \"#utility.yul\":773:796   */\n      sub\n        /* \"#utility.yul\":769:801   */\n      slt\n        /* \"#utility.yul\":766:885   */\n      iszero\n      tag_288\n      jumpi\n        /* \"#utility.yul\":804:883   */\n      tag_289\n      tag_212\n      jump\t// in\n    tag_289:\n        /* \"#utility.yul\":766:885   */\n    tag_288:\n        /* \"#utility.yul\":924:925   */\n      0x00\n        /* \"#utility.yul\":949:1002   */\n      tag_290\n        /* \"#utility.yul\":994:1001   */\n      dup5\n        /* \"#utility.yul\":985:991   */\n      dup3\n        /* \"#utility.yul\":974:983   */\n      dup6\n        /* \"#utility.yul\":970:992   */\n      add\n        /* \"#utility.yul\":949:1002   */\n      tag_216\n      jump\t// in\n    tag_290:\n        /* \"#utility.yul\":939:1002   */\n      swap2\n      pop\n        /* \"#utility.yul\":895:1012   */\n      pop\n        /* \"#utility.yul\":690:1019   */\n      swap3\n      swap2\n      pop\n      pop\n      jump\t// out\n        /* \"#utility.yul\":1025:1124   */\n    tag_217:\n        /* \"#utility.yul\":1077:1083   */\n      0x00\n        /* \"#utility.yul\":1111:1116   */\n      dup2\n        /* \"#utility.yul\":1105:1117   */\n      mload\n        /* \"#utility.yul\":1095:1117   */\n      swap1\n      pop\n        /* \"#utility.yul\":1025:1124   */\n      swap2\n      swap1\n      pop\n      jump\t// out\n        /* \"#utility.yul\":1130:1299   */\n    tag_218:\n        /* \"#utility.yul\":1214:1225   */\n      0x00\n        /* \"#utility.yul\":1248:1254   */\n      dup3\n        /* \"#utility.yul\":1243:1246   */\n      dup3\n        /* \"#utility.yul\":1236:1255   */\n      mstore\n        /* \"#utility.yul\":1288:1292   */\n      0x20\n        /* \"#utility.yul\":1283:1286   */\n      dup3\n        /* \"#utility.yul\":1279:1293   */\n      add\n        /* \"#utility.yul\":1264:1293   */\n      swap1\n      pop\n        /* \"#utility.yul\":1130:1299   */\n      swap3\n      swap2\n      pop\n      pop\n      jump\t// out\n        /* \"#utility.yul\":1305:1444   */\n    tag_219:\n        /* \"#utility.yul\":1394:1400   */\n      dup3\n        /* \"#utility.yul\":1389:1392   */\n      dup2\n        /* \"#utility.yul\":1384:1387   */\n      dup4\n        /* \"#utility.yul\":1378:1401   */\n      mcopy\n        /* \"#utility.yul\":1435:1436   */\n      0x00\n        /* \"#utility.yul\":1426:1432   */\n      dup4\n        /* \"#utility.yul\":1421:1424   */\n      dup4\n        /* \"#utility.yul\":1417:1433   */\n      add\n        /* \"#utility.yul\":1410:1437   */\n      mstore\n        /* \"#utility.yul\":1305:1444   */\n      pop\n      pop\n      pop\n      jump\t// out\n        /* \"#utility.yul\":1450:1552   */\n    tag_220:\n        /* \"#utility.yul\":1491:1497   */\n      0x00\n        /* \"#utility.yul\":1542:1544   */\n      0x1f\n        /* \"#utility.yul\":1538:1545   */\n      not\n        /* \"#utility.yul\":1533:1535   */\n      0x1f\n        /* \"#utility.yul\":1526:1531   */\n      dup4\n        /* \"#utility.yul\":1522:1536   */\n      add\n        /* \"#utility.yul\":1518:1546   */\n      and\n        /* \"#utility.yul\":1508:1546   */\n      swap1\n      pop\n        /* \"#utility.yul\":1450:1552   */\n      swap2\n      swap1\n      pop\n      jump\t// out\n        /* \"#utility.yul\":1558:1935   */\n    tag_221:\n        /* \"#utility.yul\":1646:1649   */\n      0x00\n        /* \"#utility.yul\":1674:1713   */\n      tag_296\n        /* \"#utility.yul\":1707:1712   */\n      dup3\n        /* \"#utility.yul\":1674:1713   */\n      tag_217\n      jump\t// in\n    tag_296:\n        /* \"#utility.yul\":1729:1800   */\n      tag_297\n        /* \"#utility.yul\":1793:1799   */\n      dup2\n        /* \"#utility.yul\":1788:1791   */\n      dup6\n        /* \"#utility.yul\":1729:1800   */\n      tag_218\n      jump\t// in\n    tag_297:\n        /* \"#utility.yul\":1722:1800   */\n      swap4\n      pop\n        /* \"#utility.yul\":1809:1874   */\n      tag_298\n        /* \"#utility.yul\":1867:1873   */\n      dup2\n        /* \"#utility.yul\":1862:1865   */\n      dup6\n        /* \"#utility.yul\":1855:1859   */\n      0x20\n        /* \"#utility.yul\":1848:1853   */\n      dup7\n        /* \"#utility.yul\":1844:1860   */\n      add\n        /* \"#utility.yul\":1809:1874   */\n      tag_219\n      jump\t// in\n    tag_298:\n        /* \"#utility.yul\":1899:1928   */\n      tag_299\n        /* \"#utility.yul\":1921:1927   */\n      dup2\n        /* \"#utility.yul\":1899:1928   */\n      tag_220\n      jump\t// in\n    tag_299:\n        /* \"#utility.yul\":1894:1897   */\n      dup5\n        /* \"#utility.yul\":1890:1929   */\n      add\n        /* \"#utility.yul\":1883:1929   */\n      swap2\n      pop\n        /* \"#utility.yul\":1650:1935   */\n      pop\n        /* \"#utility.yul\":1558:1935   */\n      swap3\n      swap2\n      pop\n      pop\n      jump\t// out\n        /* \"#utility.yul\":1941:2059   */\n    tag_222:\n        /* \"#utility.yul\":2028:2052   */\n      tag_301\n        /* \"#utility.yul\":2046:2051   */\n      dup2\n        /* \"#utility.yul\":2028:2052   */\n      tag_214\n      jump\t// in\n    tag_301:\n        /* \"#utility.yul\":2023:2026   */\n      dup3\n        /* \"#utility.yul\":2016:2053   */\n      mstore\n        /* \"#utility.yul\":1941:2059   */\n      pop\n      pop\n      jump\t// out\n        /* \"#utility.yul\":2065:2598   */\n    tag_25:\n        /* \"#utility.yul\":2234:2238   */\n      0x00\n        /* \"#utility.yul\":2272:2274   */\n      0x60\n        /* \"#utility.yul\":2261:2270   */\n      dup3\n        /* \"#utility.yul\":2257:2275   */\n      add\n        /* \"#utility.yul\":2249:2275   */\n      swap1\n      pop\n        /* \"#utility.yul\":2321:2330   */\n      dup2\n        /* \"#utility.yul\":2315:2319   */\n      dup2\n        /* \"#utility.yul\":2311:2331   */\n      sub\n        /* \"#utility.yul\":2307:2308   */\n      0x00\n        /* \"#utility.yul\":2296:2305   */\n      dup4\n        /* \"#utility.yul\":2292:2309   */\n      add\n        /* \"#utility.yul\":2285:2332   */\n      mstore\n        /* \"#utility.yul\":2349:2427   */\n      tag_303\n        /* \"#utility.yul\":2422:2426   */\n      dup2\n        /* \"#utility.yul\":2413:2419   */\n      dup7\n        /* \"#utility.yul\":2349:2427   */\n      tag_221\n      jump\t// in\n    tag_303:\n        /* \"#utility.yul\":2341:2427   */\n      swap1\n      pop\n        /* \"#utility.yul\":2437:2509   */\n      tag_304\n        /* \"#utility.yul\":2505:2507   */\n      0x20\n        /* \"#utility.yul\":2494:2503   */\n      dup4\n        /* \"#utility.yul\":2490:2508   */\n      add\n        /* \"#utility.yul\":2481:2487   */\n      dup6\n        /* \"#utility.yul\":2437:2509   */\n      tag_222\n      jump\t// in\n    tag_304:\n        /* \"#utility.yul\":2519:2591   */\n      tag_305\n        /* \"#utility.yul\":2587:2589   */\n      0x40\n        /* \"#utility.yul\":2576:2585   */\n      dup4\n        /* \"#utility.yul\":2572:2590   */\n      add\n        /* \"#utility.yul\":2563:2569   */\n      dup5\n        /* \"#utility.yul\":2519:2591   */\n      tag_222\n      jump\t// in\n    tag_305:\n        /* \"#utility.yul\":2065:2598   */\n      swap5\n      swap4\n      pop\n      pop\n      pop\n      pop\n      jump\t// out\n        /* \"#utility.yul\":2604:2917   */\n    tag_30:\n        /* \"#utility.yul\":2717:2721   */\n      0x00\n        /* \"#utility.yul\":2755:2757   */\n      0x20\n        /* \"#utility.yul\":2744:2753   */\n      dup3\n        /* \"#utility.yul\":2740:2758   */\n      add\n        /* \"#utility.yul\":2732:2758   */\n      swap1\n      pop\n        /* \"#utility.yul\":2804:2813   */\n      dup2\n        /* \"#utility.yul\":2798:2802   */\n      dup2\n        /* \"#utility.yul\":2794:2814   */\n      sub\n        /* \"#utility.yul\":2790:2791   */\n      0x00\n        /* \"#utility.yul\":2779:2788   */\n      dup4\n        /* \"#utility.yul\":2775:2792   */\n      add\n        /* \"#utility.yul\":2768:2815   */\n      mstore\n        /* \"#utility.yul\":2832:2910   */\n      tag_307\n        /* \"#utility.yul\":2905:2909   */\n      dup2\n        /* \"#utility.yul\":2896:2902   */\n      dup5\n        /* \"#utility.yul\":2832:2910   */\n      tag_221\n      jump\t// in\n    tag_307:\n        /* \"#utility.yul\":2824:2910   */\n      swap1\n      pop\n        /* \"#utility.yul\":2604:2917   */\n      swap3\n      swap2\n      pop\n      pop\n      jump\t// out\n        /* \"#utility.yul\":2923:3145   */\n    tag_35:\n        /* \"#utility.yul\":3016:3020   */\n      0x00\n        /* \"#utility.yul\":3054:3056   */\n      0x20\n        /* \"#utility.yul\":3043:3052   */\n      dup3\n        /* \"#utility.yul\":3039:3057   */\n      add\n        /* \"#utility.yul\":3031:3057   */\n      swap1\n      pop\n        /* \"#utility.yul\":3067:3138   */\n      tag_309\n        /* \"#utility.yul\":3135:3136   */\n      0x00\n        /* \"#utility.yul\":3124:3133   */\n      dup4\n        /* \"#utility.yul\":3120:3137   */\n      add\n        /* \"#utility.yul\":3111:3117   */\n      dup5\n        /* \"#utility.yul\":3067:3138   */\n      tag_222\n      jump\t// in\n    tag_309:\n        /* \"#utility.yul\":2923:3145   */\n      swap3\n      swap2\n      pop\n      pop\n      jump\t// out\n        /* \"#utility.yul\":3151:3277   */\n    tag_223:\n        /* \"#utility.yul\":3188:3195   */\n      0x00\n        /* \"#utility.yul\":3228:3270   */\n      0xffffffffffffffffffffffffffffffffffffffff\n        /* \"#utility.yul\":3221:3226   */\n      dup3\n        /* \"#utility.yul\":3217:3271   */\n      and\n        /* \"#utility.yul\":3206:3271   */\n      swap1\n      pop\n        /* \"#utility.yul\":3151:3277   */\n      swap2\n      swap1\n      pop\n      jump\t// out\n        /* \"#utility.yul\":3283:3379   */\n    tag_224:\n        /* \"#utility.yul\":3320:3327   */\n      0x00\n        /* \"#utility.yul\":3349:3373   */\n      tag_312\n        /* \"#utility.yul\":3367:3372   */\n      dup3\n        /* \"#utility.yul\":3349:3373   */\n      tag_223\n      jump\t// in\n    tag_312:\n        /* \"#utility.yul\":3338:3373   */\n      swap1\n      pop\n        /* \"#utility.yul\":3283:3379   */\n      swap2\n      swap1\n      pop\n      jump\t// out\n        /* \"#utility.yul\":3385:3503   */\n    tag_225:\n        /* \"#utility.yul\":3472:3496   */\n      tag_314\n        /* \"#utility.yul\":3490:3495   */\n      dup2\n        /* \"#utility.yul\":3472:3496   */\n      tag_224\n      jump\t// in\n    tag_314:\n        /* \"#utility.yul\":3467:3470   */\n      dup3\n        /* \"#utility.yul\":3460:3497   */\n      mstore\n        /* \"#utility.yul\":3385:3503   */\n      pop\n      pop\n      jump\t// out\n        /* \"#utility.yul\":3509:3731   */\n    tag_58:\n        /* \"#utility.yul\":3602:3606   */\n      0x00\n        /* \"#utility.yul\":3640:3642   */\n      0x20\n        /* \"#utility.yul\":3629:3638   */\n      dup3\n        /* \"#utility.yul\":3625:3643   */\n      add\n        /* \"#utility.yul\":3617:3643   */\n      swap1\n      pop\n        /* \"#utility.yul\":3653:3724   */\n      tag_316\n        /* \"#utility.yul\":3721:3722   */\n      0x00\n        /* \"#utility.yul\":3710:3719   */\n      dup4\n        /* \"#utility.yul\":3706:3723   */\n      add\n        /* \"#utility.yul\":3697:3703   */\n      dup5\n        /* \"#utility.yul\":3653:3724   */\n      tag_225\n      jump\t// in\n    tag_316:\n        /* \"#utility.yul\":3509:3731   */\n      swap3\n      swap2\n      pop\n      pop\n      jump\t// out\n        /* \"#utility.yul\":3737:3859   */\n    tag_226:\n        /* \"#utility.yul\":3810:3834   */\n      tag_318\n        /* \"#utility.yul\":3828:3833   */\n      dup2\n        /* \"#utility.yul\":3810:3834   */\n      tag_224\n      jump\t// in\n    tag_318:\n        /* \"#utility.yul\":3803:3808   */\n      dup2\n        /* \"#utility.yul\":3800:3835   */\n      eq\n        /* \"#utility.yul\":3790:3853   */\n      tag_319\n      jumpi\n        /* \"#utility.yul\":3849:3850   */\n      0x00\n        /* \"#utility.yul\":3846:3847   */\n      dup1\n        /* \"#utility.yul\":3839:3851   */\n      revert\n        /* \"#utility.yul\":3790:3853   */\n    tag_319:\n        /* \"#utility.yul\":3737:3859   */\n      pop\n      jump\t// out\n        /* \"#utility.yul\":3865:4004   */\n    tag_227:\n        /* \"#utility.yul\":3911:3916   */\n      0x00\n        /* \"#utility.yul\":3949:3955   */\n      dup2\n        /* \"#utility.yul\":3936:3956   */\n      calldataload\n        /* \"#utility.yul\":3927:3956   */\n      swap1\n      pop\n        /* \"#utility.yul\":3965:3998   */\n      tag_321\n        /* \"#utility.yul\":3992:3997   */\n      dup2\n        /* \"#utility.yul\":3965:3998   */\n      tag_226\n      jump\t// in\n    tag_321:\n        /* \"#utility.yul\":3865:4004   */\n      swap3\n      swap2\n      pop\n      pop\n      jump\t// out\n        /* \"#utility.yul\":4010:4339   */\n    tag_66:\n        /* \"#utility.yul\":4069:4075   */\n      0x00\n        /* \"#utility.yul\":4118:4120   */\n      0x20\n        /* \"#utility.yul\":4106:4115   */\n      dup3\n        /* \"#utility.yul\":4097:4104   */\n      dup5\n        /* \"#utility.yul\":4093:4116   */\n      sub\n        /* \"#utility.yul\":4089:4121   */\n      slt\n        /* \"#utility.yul\":4086:4205   */\n      iszero\n      tag_323\n      jumpi\n        /* \"#utility.yul\":4124:4203   */\n      tag_324\n      tag_212\n      jump\t// in\n    tag_324:\n        /* \"#utility.yul\":4086:4205   */\n    tag_323:\n        /* \"#utility.yul\":4244:4245   */\n      0x00\n        /* \"#utility.yul\":4269:4322   */\n      tag_325\n        /* \"#utility.yul\":4314:4321   */\n      dup5\n        /* \"#utility.yul\":4305:4311   */\n      dup3\n        /* \"#utility.yul\":4294:4303   */\n      dup6\n        /* \"#utility.yul\":4290:4312   */\n      add\n        /* \"#utility.yul\":4269:4322   */\n      tag_227\n      jump\t// in\n    tag_325:\n        /* \"#utility.yul\":4259:4322   */\n      swap2\n      pop\n        /* \"#utility.yul\":4215:4332   */\n      pop\n        /* \"#utility.yul\":4010:4339   */\n      swap3\n      swap2\n      pop\n      pop\n      jump\t// out\n        /* \"#utility.yul\":4345:4525   */\n    tag_105:\n        /* \"#utility.yul\":4393:4470   */\n      0x4e487b7100000000000000000000000000000000000000000000000000000000\n        /* \"#utility.yul\":4390:4391   */\n      0x00\n        /* \"#utility.yul\":4383:4471   */\n      mstore\n        /* \"#utility.yul\":4490:4494   */\n      0x21\n        /* \"#utility.yul\":4487:4488   */\n      0x04\n        /* \"#utility.yul\":4480:4495   */\n      mstore\n        /* \"#utility.yul\":4514:4518   */\n      0x24\n        /* \"#utility.yul\":4511:4512   */\n      0x00\n        /* \"#utility.yul\":4504:4519   */\n      revert\n        /* \"#utility.yul\":4531:4652   */\n    tag_228:\n        /* \"#utility.yul\":4620:4621   */\n      0x03\n        /* \"#utility.yul\":4613:4618   */\n      dup2\n        /* \"#utility.yul\":4610:4622   */\n      lt\n        /* \"#utility.yul\":4600:4646   */\n      tag_328\n      jumpi\n        /* \"#utility.yul\":4626:4644   */\n      tag_329\n      tag_105\n      jump\t// in\n    tag_329:\n        /* \"#utility.yul\":4600:4646   */\n    tag_328:\n        /* \"#utility.yul\":4531:4652   */\n      pop\n      jump\t// out\n        /* \"#utility.yul\":4658:4801   */\n    tag_229:\n        /* \"#utility.yul\":4711:4718   */\n      0x00\n        /* \"#utility.yul\":4740:4745   */\n      dup2\n        /* \"#utility.yul\":4729:4745   */\n      swap1\n      pop\n        /* \"#utility.yul\":4746:4795   */\n      tag_331\n        /* \"#utility.yul\":4789:4794   */\n      dup3\n        /* \"#utility.yul\":4746:4795   */\n      tag_228\n      jump\t// in\n    tag_331:\n        /* \"#utility.yul\":4658:4801   */\n      swap2\n      swap1\n      pop\n      jump\t// out\n        /* \"#utility.yul\":4807:4950   */\n    tag_230:\n        /* \"#utility.yul\":4871:4880   */\n      0x00\n        /* \"#utility.yul\":4904:4944   */\n      tag_333\n        /* \"#utility.yul\":4938:4943   */\n      dup3\n        /* \"#utility.yul\":4904:4944   */\n      tag_229\n      jump\t// in\n    tag_333:\n        /* \"#utility.yul\":4891:4944   */\n      swap1\n      pop\n        /* \"#utility.yul\":4807:4950   */\n      swap2\n      swap1\n      pop\n      jump\t// out\n        /* \"#utility.yul\":4956:5115   */\n    tag_231:\n        /* \"#utility.yul\":5057:5108   */\n      tag_335\n        /* \"#utility.yul\":5102:5107   */\n      dup2\n        /* \"#utility.yul\":5057:5108   */\n      tag_230\n      jump\t// in\n    tag_335:\n        /* \"#utility.yul\":5052:5055   */\n      dup3\n        /* \"#utility.yul\":5045:5109   */\n      mstore\n        /* \"#utility.yul\":4956:5115   */\n      pop\n      pop\n      jump\t// out\n        /* \"#utility.yul\":5121:5371   */\n    tag_73:\n        /* \"#utility.yul\":5228:5232   */\n      0x00\n        /* \"#utility.yul\":5266:5268   */\n      0x20\n        /* \"#utility.yul\":5255:5264   */\n      dup3\n        /* \"#utility.yul\":5251:5269   */\n      add\n        /* \"#utility.yul\":5243:5269   */\n      swap1\n      pop\n        /* \"#utility.yul\":5279:5364   */\n      tag_337\n        /* \"#utility.yul\":5361:5362   */\n      0x00\n        /* \"#utility.yul\":5350:5359   */\n      dup4\n        /* \"#utility.yul\":5346:5363   */\n      add\n        /* \"#utility.yul\":5337:5343   */\n      dup5\n        /* \"#utility.yul\":5279:5364   */\n      tag_231\n      jump\t// in\n    tag_337:\n        /* \"#utility.yul\":5121:5371   */\n      swap3\n      swap2\n      pop\n      pop\n      jump\t// out\n        /* \"#utility.yul\":5377:5494   */\n    tag_232:\n        /* \"#utility.yul\":5486:5487   */\n      0x00\n        /* \"#utility.yul\":5483:5484   */\n      dup1\n        /* \"#utility.yul\":5476:5488   */\n      revert\n        /* \"#utility.yul\":5500:5617   */\n    tag_233:\n        /* \"#utility.yul\":5609:5610   */\n      0x00\n        /* \"#utility.yul\":5606:5607   */\n      dup1\n        /* \"#utility.yul\":5599:5611   */\n      revert\n        /* \"#utility.yul\":5623:5803   */\n    tag_234:\n        /* \"#utility.yul\":5671:5748   */\n      0x4e487b7100000000000000000000000000000000000000000000000000000000\n        /* \"#utility.yul\":5668:5669   */\n      0x00\n        /* \"#utility.yul\":5661:5749   */\n      mstore\n        /* \"#utility.yul\":5768:5772   */\n      0x41\n        /* \"#utility.yul\":5765:5766   */\n      0x04\n        /* \"#utility.yul\":5758:5773   */\n      mstore\n        /* \"#utility.yul\":5792:5796   */\n      0x24\n        /* \"#utility.yul\":5789:5790   */\n      0x00\n        /* \"#utility.yul\":5782:5797   */\n      revert\n        /* \"#utility.yul\":5809:6090   */\n    tag_235:\n        /* \"#utility.yul\":5892:5919   */\n      tag_342\n        /* \"#utility.yul\":5914:5918   */\n      dup3\n        /* \"#utility.yul\":5892:5919   */\n      tag_220\n      jump\t// in\n    tag_342:\n        /* \"#utility.yul\":5884:5890   */\n      dup2\n        /* \"#utility.yul\":5880:5920   */\n      add\n        /* \"#utility.yul\":6022:6028   */\n      dup2\n        /* \"#utility.yul\":6010:6020   */\n      dup2\n        /* \"#utility.yul\":6007:6029   */\n      lt\n        /* \"#utility.yul\":5986:6004   */\n      0xffffffffffffffff\n        /* \"#utility.yul\":5974:5984   */\n      dup3\n        /* \"#utility.yul\":5971:6005   */\n      gt\n        /* \"#utility.yul\":5968:6030   */\n      or\n        /* \"#utility.yul\":5965:6053   */\n      iszero\n      tag_343\n      jumpi\n        /* \"#utility.yul\":6033:6051   */\n      tag_344\n      tag_234\n      jump\t// in\n    tag_344:\n        /* \"#utility.yul\":5965:6053   */\n    tag_343:\n        /* \"#utility.yul\":6073:6083   */\n      dup1\n        /* \"#utility.yul\":6069:6071   */\n      0x40\n        /* \"#utility.yul\":6062:6084   */\n      mstore\n        /* \"#utility.yul\":5852:6090   */\n      pop\n        /* \"#utility.yul\":5809:6090   */\n      pop\n      pop\n      jump\t// out\n        /* \"#utility.yul\":6096:6225   */\n    tag_236:\n        /* \"#utility.yul\":6130:6136   */\n      0x00\n        /* \"#utility.yul\":6157:6177   */\n      tag_346\n      tag_211\n      jump\t// in\n    tag_346:\n        /* \"#utility.yul\":6147:6177   */\n      swap1\n      pop\n        /* \"#utility.yul\":6186:6219   */\n      tag_347\n        /* \"#utility.yul\":6214:6218   */\n      dup3\n        /* \"#utility.yul\":6206:6212   */\n      dup3\n        /* \"#utility.yul\":6186:6219   */\n      tag_235\n      jump\t// in\n    tag_347:\n        /* \"#utility.yul\":6096:6225   */\n      swap2\n      swap1\n      pop\n      jump\t// out\n        /* \"#utility.yul\":6231:6539   */\n    tag_237:\n        /* \"#utility.yul\":6293:6297   */\n      0x00\n        /* \"#utility.yul\":6383:6401   */\n      0xffffffffffffffff\n        /* \"#utility.yul\":6375:6381   */\n      dup3\n        /* \"#utility.yul\":6372:6402   */\n      gt\n        /* \"#utility.yul\":6369:6425   */\n      iszero\n      tag_349\n      jumpi\n        /* \"#utility.yul\":6405:6423   */\n      tag_350\n      tag_234\n      jump\t// in\n    tag_350:\n        /* \"#utility.yul\":6369:6425   */\n    tag_349:\n        /* \"#utility.yul\":6443:6472   */\n      tag_351\n        /* \"#utility.yul\":6465:6471   */\n      dup3\n        /* \"#utility.yul\":6443:6472   */\n      tag_220\n      jump\t// in\n    tag_351:\n        /* \"#utility.yul\":6435:6472   */\n      swap1\n      pop\n        /* \"#utility.yul\":6527:6531   */\n      0x20\n        /* \"#utility.yul\":6521:6525   */\n      dup2\n        /* \"#utility.yul\":6517:6532   */\n      add\n        /* \"#utility.yul\":6509:6532   */\n      swap1\n      pop\n        /* \"#utility.yul\":6231:6539   */\n      swap2\n      swap1\n      pop\n      jump\t// out\n        /* \"#utility.yul\":6545:6693   */\n    tag_238:\n        /* \"#utility.yul\":6643:6649   */\n      dup3\n        /* \"#utility.yul\":6638:6641   */\n      dup2\n        /* \"#utility.yul\":6633:6636   */\n      dup4\n        /* \"#utility.yul\":6620:6650   */\n      calldatacopy\n        /* \"#utility.yul\":6684:6685   */\n      0x00\n        /* \"#utility.yul\":6675:6681   */\n      dup4\n        /* \"#utility.yul\":6670:6673   */\n      dup4\n        /* \"#utility.yul\":6666:6682   */\n      add\n        /* \"#utility.yul\":6659:6686   */\n      mstore\n        /* \"#utility.yul\":6545:6693   */\n      pop\n      pop\n      pop\n      jump\t// out\n        /* \"#utility.yul\":6699:7124   */\n    tag_239:\n        /* \"#utility.yul\":6777:6782   */\n      0x00\n        /* \"#utility.yul\":6802:6868   */\n      tag_354\n        /* \"#utility.yul\":6818:6867   */\n      tag_355\n        /* \"#utility.yul\":6860:6866   */\n      dup5\n        /* \"#utility.yul\":6818:6867   */\n      tag_237\n      jump\t// in\n    tag_355:\n        /* \"#utility.yul\":6802:6868   */\n      tag_236\n      jump\t// in\n    tag_354:\n        /* \"#utility.yul\":6793:6868   */\n      swap1\n      pop\n        /* \"#utility.yul\":6891:6897   */\n      dup3\n        /* \"#utility.yul\":6884:6889   */\n      dup2\n        /* \"#utility.yul\":6877:6898   */\n      mstore\n        /* \"#utility.yul\":6929:6933   */\n      0x20\n        /* \"#utility.yul\":6922:6927   */\n      dup2\n        /* \"#utility.yul\":6918:6934   */\n      add\n        /* \"#utility.yul\":6967:6970   */\n      dup5\n        /* \"#utility.yul\":6958:6964   */\n      dup5\n        /* \"#utility.yul\":6953:6956   */\n      dup5\n        /* \"#utility.yul\":6949:6965   */\n      add\n        /* \"#utility.yul\":6946:6971   */\n      gt\n        /* \"#utility.yul\":6943:7055   */\n      iszero\n      tag_356\n      jumpi\n        /* \"#utility.yul\":6974:7053   */\n      tag_357\n      tag_233\n      jump\t// in\n    tag_357:\n        /* \"#utility.yul\":6943:7055   */\n    tag_356:\n        /* \"#utility.yul\":7064:7118   */\n      tag_358\n        /* \"#utility.yul\":7111:7117   */\n      dup5\n        /* \"#utility.yul\":7106:7109   */\n      dup3\n        /* \"#utility.yul\":7101:7104   */\n      dup6\n        /* \"#utility.yul\":7064:7118   */\n      tag_238\n      jump\t// in\n    tag_358:\n        /* \"#utility.yul\":6783:7124   */\n      pop\n        /* \"#utility.yul\":6699:7124   */\n      swap4\n      swap3\n      pop\n      pop\n      pop\n      jump\t// out\n        /* \"#utility.yul\":7144:7484   */\n    tag_240:\n        /* \"#utility.yul\":7200:7205   */\n      0x00\n        /* \"#utility.yul\":7249:7252   */\n      dup3\n        /* \"#utility.yul\":7242:7246   */\n      0x1f\n        /* \"#utility.yul\":7234:7240   */\n      dup4\n        /* \"#utility.yul\":7230:7247   */\n      add\n        /* \"#utility.yul\":7226:7253   */\n      slt\n        /* \"#utility.yul\":7216:7338   */\n      tag_360\n      jumpi\n        /* \"#utility.yul\":7257:7336   */\n      tag_361\n      tag_232\n      jump\t// in\n    tag_361:\n        /* \"#utility.yul\":7216:7338   */\n    tag_360:\n        /* \"#utility.yul\":7374:7380   */\n      dup2\n        /* \"#utility.yul\":7361:7381   */\n      calldataload\n        /* \"#utility.yul\":7399:7478   */\n      tag_362\n        /* \"#utility.yul\":7474:7477   */\n      dup5\n        /* \"#utility.yul\":7466:7472   */\n      dup3\n        /* \"#utility.yul\":7459:7463   */\n      0x20\n        /* \"#utility.yul\":7451:7457   */\n      dup7\n        /* \"#utility.yul\":7447:7464   */\n      add\n        /* \"#utility.yul\":7399:7478   */\n      tag_239\n      jump\t// in\n    tag_362:\n        /* \"#utility.yul\":7390:7478   */\n      swap2\n      pop\n        /* \"#utility.yul\":7206:7484   */\n      pop\n        /* \"#utility.yul\":7144:7484   */\n      swap3\n      swap2\n      pop\n      pop\n      jump\t// out\n        /* \"#utility.yul\":7490:8144   */\n    tag_80:\n        /* \"#utility.yul\":7568:7574   */\n      0x00\n        /* \"#utility.yul\":7576:7582   */\n      dup1\n        /* \"#utility.yul\":7625:7627   */\n      0x40\n        /* \"#utility.yul\":7613:7622   */\n      dup4\n        /* \"#utility.yul\":7604:7611   */\n      dup6\n        /* \"#utility.yul\":7600:7623   */\n      sub\n        /* \"#utility.yul\":7596:7628   */\n      slt\n        /* \"#utility.yul\":7593:7712   */\n      iszero\n      tag_364\n      jumpi\n        /* \"#utility.yul\":7631:7710   */\n      tag_365\n      tag_212\n      jump\t// in\n    tag_365:\n        /* \"#utility.yul\":7593:7712   */\n    tag_364:\n        /* \"#utility.yul\":7751:7752   */\n      0x00\n        /* \"#utility.yul\":7776:7829   */\n      tag_366\n        /* \"#utility.yul\":7821:7828   */\n      dup6\n        /* \"#utility.yul\":7812:7818   */\n      dup3\n        /* \"#utility.yul\":7801:7810   */\n      dup7\n        /* \"#utility.yul\":7797:7819   */\n      add\n        /* \"#utility.yul\":7776:7829   */\n      tag_216\n      jump\t// in\n    tag_366:\n        /* \"#utility.yul\":7766:7829   */\n      swap3\n      pop\n        /* \"#utility.yul\":7722:7839   */\n      pop\n        /* \"#utility.yul\":7906:7908   */\n      0x20\n        /* \"#utility.yul\":7895:7904   */\n      dup4\n        /* \"#utility.yul\":7891:7909   */\n      add\n        /* \"#utility.yul\":7878:7910   */\n      calldataload\n        /* \"#utility.yul\":7937:7955   */\n      0xffffffffffffffff\n        /* \"#utility.yul\":7929:7935   */\n      dup2\n        /* \"#utility.yul\":7926:7956   */\n      gt\n        /* \"#utility.yul\":7923:8040   */\n      iszero\n      tag_367\n      jumpi\n        /* \"#utility.yul\":7959:8038   */\n      tag_368\n      tag_213\n      jump\t// in\n    tag_368:\n        /* \"#utility.yul\":7923:8040   */\n    tag_367:\n        /* \"#utility.yul\":8064:8127   */\n      tag_369\n        /* \"#utility.yul\":8119:8126   */\n      dup6\n        /* \"#utility.yul\":8110:8116   */\n      dup3\n        /* \"#utility.yul\":8099:8108   */\n      dup7\n        /* \"#utility.yul\":8095:8117   */\n      add\n        /* \"#utility.yul\":8064:8127   */\n      tag_240\n      jump\t// in\n    tag_369:\n        /* \"#utility.yul\":8054:8127   */\n      swap2\n      pop\n        /* \"#utility.yul\":7849:8137   */\n      pop\n        /* \"#utility.yul\":7490:8144   */\n      swap3\n      pop\n      swap3\n      swap1\n      pop\n      jump\t// out\n        /* \"#utility.yul\":8150:8330   */\n    tag_241:\n        /* \"#utility.yul\":8198:8275   */\n      0x4e487b7100000000000000000000000000000000000000000000000000000000\n        /* \"#utility.yul\":8195:8196   */\n      0x00\n        /* \"#utility.yul\":8188:8276   */\n      mstore\n        /* \"#utility.yul\":8295:8299   */\n      0x22\n        /* \"#utility.yul\":8292:8293   */\n      0x04\n        /* \"#utility.yul\":8285:8300   */\n      mstore\n        /* \"#utility.yul\":8319:8323   */\n      0x24\n        /* \"#utility.yul\":8316:8317   */\n      0x00\n        /* \"#utility.yul\":8309:8324   */\n      revert\n        /* \"#utility.yul\":8336:8656   */\n    tag_85:\n        /* \"#utility.yul\":8380:8386   */\n      0x00\n        /* \"#utility.yul\":8417:8418   */\n      0x02\n        /* \"#utility.yul\":8411:8415   */\n      dup3\n        /* \"#utility.yul\":8407:8419   */\n      div\n        /* \"#utility.yul\":8397:8419   */\n      swap1\n      pop\n        /* \"#utility.yul\":8464:8465   */\n      0x01\n        /* \"#utility.yul\":8458:8462   */\n      dup3\n        /* \"#utility.yul\":8454:8466   */\n      and\n        /* \"#utility.yul\":8485:8503   */\n      dup1\n        /* \"#utility.yul\":8475:8556   */\n      tag_372\n      jumpi\n        /* \"#utility.yul\":8541:8545   */\n      0x7f\n        /* \"#utility.yul\":8533:8539   */\n      dup3\n        /* \"#utility.yul\":8529:8546   */\n      and\n        /* \"#utility.yul\":8519:8546   */\n      swap2\n      pop\n        /* \"#utility.yul\":8475:8556   */\n    tag_372:\n        /* \"#utility.yul\":8603:8605   */\n      0x20\n        /* \"#utility.yul\":8595:8601   */\n      dup3\n        /* \"#utility.yul\":8592:8606   */\n      lt\n        /* \"#utility.yul\":8572:8590   */\n      dup2\n        /* \"#utility.yul\":8569:8607   */\n      sub\n        /* \"#utility.yul\":8566:8650   */\n      tag_373\n      jumpi\n        /* \"#utility.yul\":8622:8640   */\n      tag_374\n      tag_241\n      jump\t// in\n    tag_374:\n        /* \"#utility.yul\":8566:8650   */\n    tag_373:\n        /* \"#utility.yul\":8387:8656   */\n      pop\n        /* \"#utility.yul\":8336:8656   */\n      swap2\n      swap1\n      pop\n      jump\t// out\n        /* \"#utility.yul\":8662:8884   */\n    tag_242:\n        /* \"#utility.yul\":8802:8836   */\n      0x4f6e6c79204f776e6572732043616e20506572666f726d205468697320416374\n        /* \"#utility.yul\":8798:8799   */\n      0x00\n        /* \"#utility.yul\":8790:8796   */\n      dup3\n        /* \"#utility.yul\":8786:8800   */\n      add\n        /* \"#utility.yul\":8779:8837   */\n      mstore\n        /* \"#utility.yul\":8871:8876   */\n      0x696f6e0000000000000000000000000000000000000000000000000000000000\n        /* \"#utility.yul\":8866:8868   */\n      0x20\n        /* \"#utility.yul\":8858:8864   */\n      dup3\n        /* \"#utility.yul\":8854:8869   */\n      add\n        /* \"#utility.yul\":8847:8877   */\n      mstore\n        /* \"#utility.yul\":8662:8884   */\n      pop\n      jump\t// out\n        /* \"#utility.yul\":8890:9256   */\n    tag_243:\n        /* \"#utility.yul\":9032:9035   */\n      0x00\n        /* \"#utility.yul\":9053:9120   */\n      tag_377\n        /* \"#utility.yul\":9117:9119   */\n      0x23\n        /* \"#utility.yul\":9112:9115   */\n      dup4\n        /* \"#utility.yul\":9053:9120   */\n      tag_218\n      jump\t// in\n    tag_377:\n        /* \"#utility.yul\":9046:9120   */\n      swap2\n      pop\n        /* \"#utility.yul\":9129:9222   */\n      tag_378\n        /* \"#utility.yul\":9218:9221   */\n      dup3\n        /* \"#utility.yul\":9129:9222   */\n      tag_242\n      jump\t// in\n    tag_378:\n        /* \"#utility.yul\":9247:9249   */\n      0x40\n        /* \"#utility.yul\":9242:9245   */\n      dup3\n        /* \"#utility.yul\":9238:9250   */\n      add\n        /* \"#utility.yul\":9231:9250   */\n      swap1\n      pop\n        /* \"#utility.yul\":8890:9256   */\n      swap2\n      swap1\n      pop\n      jump\t// out\n        /* \"#utility.yul\":9262:9681   */\n    tag_99:\n        /* \"#utility.yul\":9428:9432   */\n      0x00\n        /* \"#utility.yul\":9466:9468   */\n      0x20\n        /* \"#utility.yul\":9455:9464   */\n      dup3\n        /* \"#utility.yul\":9451:9469   */\n      add\n        /* \"#utility.yul\":9443:9469   */\n      swap1\n      pop\n        /* \"#utility.yul\":9515:9524   */\n      dup2\n        /* \"#utility.yul\":9509:9513   */\n      dup2\n        /* \"#utility.yul\":9505:9525   */\n      sub\n        /* \"#utility.yul\":9501:9502   */\n      0x00\n        /* \"#utility.yul\":9490:9499   */\n      dup4\n        /* \"#utility.yul\":9486:9503   */\n      add\n        /* \"#utility.yul\":9479:9526   */\n      mstore\n        /* \"#utility.yul\":9543:9674   */\n      tag_380\n        /* \"#utility.yul\":9669:9673   */\n      dup2\n        /* \"#utility.yul\":9543:9674   */\n      tag_243\n      jump\t// in\n    tag_380:\n        /* \"#utility.yul\":9535:9674   */\n      swap1\n      pop\n        /* \"#utility.yul\":9262:9681   */\n      swap2\n      swap1\n      pop\n      jump\t// out\n        /* \"#utility.yul\":9687:9864   */\n    tag_244:\n        /* \"#utility.yul\":9827:9856   */\n      0x43616d706169676e206e6f7420796574205375636365737366756c0000000000\n        /* \"#utility.yul\":9823:9824   */\n      0x00\n        /* \"#utility.yul\":9815:9821   */\n      dup3\n        /* \"#utility.yul\":9811:9825   */\n      add\n        /* \"#utility.yul\":9804:9857   */\n      mstore\n        /* \"#utility.yul\":9687:9864   */\n      pop\n      jump\t// out\n        /* \"#utility.yul\":9870:10236   */\n    tag_245:\n        /* \"#utility.yul\":10012:10015   */\n      0x00\n        /* \"#utility.yul\":10033:10100   */\n      tag_383\n        /* \"#utility.yul\":10097:10099   */\n      0x1b\n        /* \"#utility.yul\":10092:10095   */\n      dup4\n        /* \"#utility.yul\":10033:10100   */\n      tag_218\n      jump\t// in\n    tag_383:\n        /* \"#utility.yul\":10026:10100   */\n      swap2\n      pop\n        /* \"#utility.yul\":10109:10202   */\n      tag_384\n        /* \"#utility.yul\":10198:10201   */\n      dup3\n        /* \"#utility.yul\":10109:10202   */\n      tag_244\n      jump\t// in\n    tag_384:\n        /* \"#utility.yul\":10227:10229   */\n      0x20\n        /* \"#utility.yul\":10222:10225   */\n      dup3\n        /* \"#utility.yul\":10218:10230   */\n      add\n        /* \"#utility.yul\":10211:10230   */\n      swap1\n      pop\n        /* \"#utility.yul\":9870:10236   */\n      swap2\n      swap1\n      pop\n      jump\t// out\n        /* \"#utility.yul\":10242:10661   */\n    tag_110:\n        /* \"#utility.yul\":10408:10412   */\n      0x00\n        /* \"#utility.yul\":10446:10448   */\n      0x20\n        /* \"#utility.yul\":10435:10444   */\n      dup3\n        /* \"#utility.yul\":10431:10449   */\n      add\n        /* \"#utility.yul\":10423:10449   */\n      swap1\n      pop\n        /* \"#utility.yul\":10495:10504   */\n      dup2\n        /* \"#utility.yul\":10489:10493   */\n      dup2\n        /* \"#utility.yul\":10485:10505   */\n      sub\n        /* \"#utility.yul\":10481:10482   */\n      0x00\n        /* \"#utility.yul\":10470:10479   */\n      dup4\n        /* \"#utility.yul\":10466:10483   */\n      add\n        /* \"#utility.yul\":10459:10506   */\n      mstore\n        /* \"#utility.yul\":10523:10654   */\n      tag_386\n        /* \"#utility.yul\":10649:10653   */\n      dup2\n        /* \"#utility.yul\":10523:10654   */\n      tag_245\n      jump\t// in\n    tag_386:\n        /* \"#utility.yul\":10515:10654   */\n      swap1\n      pop\n        /* \"#utility.yul\":10242:10661   */\n      swap2\n      swap1\n      pop\n      jump\t// out\n        /* \"#utility.yul\":10667:10889   */\n    tag_246:\n        /* \"#utility.yul\":10807:10841   */\n      0x5472616e7366657220616d6f756e74206d757374206265206d6f726520746861\n        /* \"#utility.yul\":10803:10804   */\n      0x00\n        /* \"#utility.yul\":10795:10801   */\n      dup3\n        /* \"#utility.yul\":10791:10805   */\n      add\n        /* \"#utility.yul\":10784:10842   */\n      mstore\n        /* \"#utility.yul\":10876:10881   */\n      0x6e20300000000000000000000000000000000000000000000000000000000000\n        /* \"#utility.yul\":10871:10873   */\n      0x20\n        /* \"#utility.yul\":10863:10869   */\n      dup3\n        /* \"#utility.yul\":10859:10874   */\n      add\n        /* \"#utility.yul\":10852:10882   */\n      mstore\n        /* \"#utility.yul\":10667:10889   */\n      pop\n      jump\t// out\n        /* \"#utility.yul\":10895:11261   */\n    tag_247:\n        /* \"#utility.yul\":11037:11040   */\n      0x00\n        /* \"#utility.yul\":11058:11125   */\n      tag_389\n        /* \"#utility.yul\":11122:11124   */\n      0x23\n        /* \"#utility.yul\":11117:11120   */\n      dup4\n        /* \"#utility.yul\":11058:11125   */\n      tag_218\n      jump\t// in\n    tag_389:\n        /* \"#utility.yul\":11051:11125   */\n      swap2\n      pop\n        /* \"#utility.yul\":11134:11227   */\n      tag_390\n        /* \"#utility.yul\":11223:11226   */\n      dup3\n        /* \"#utility.yul\":11134:11227   */\n      tag_246\n      jump\t// in\n    tag_390:\n        /* \"#utility.yul\":11252:11254   */\n      0x40\n        /* \"#utility.yul\":11247:11250   */\n      dup3\n        /* \"#utility.yul\":11243:11255   */\n      add\n        /* \"#utility.yul\":11236:11255   */\n      swap1\n      pop\n        /* \"#utility.yul\":10895:11261   */\n      swap2\n      swap1\n      pop\n      jump\t// out\n        /* \"#utility.yul\":11267:11686   */\n    tag_113:\n        /* \"#utility.yul\":11433:11437   */\n      0x00\n        /* \"#utility.yul\":11471:11473   */\n      0x20\n        /* \"#utility.yul\":11460:11469   */\n      dup3\n        /* \"#utility.yul\":11456:11474   */\n      add\n        /* \"#utility.yul\":11448:11474   */\n      swap1\n      pop\n        /* \"#utility.yul\":11520:11529   */\n      dup2\n        /* \"#utility.yul\":11514:11518   */\n      dup2\n        /* \"#utility.yul\":11510:11530   */\n      sub\n        /* \"#utility.yul\":11506:11507   */\n      0x00\n        /* \"#utility.yul\":11495:11504   */\n      dup4\n        /* \"#utility.yul\":11491:11508   */\n      add\n        /* \"#utility.yul\":11484:11531   */\n      mstore\n        /* \"#utility.yul\":11548:11679   */\n      tag_392\n        /* \"#utility.yul\":11674:11678   */\n      dup2\n        /* \"#utility.yul\":11548:11679   */\n      tag_247\n      jump\t// in\n    tag_392:\n        /* \"#utility.yul\":11540:11679   */\n      swap1\n      pop\n        /* \"#utility.yul\":11267:11686   */\n      swap2\n      swap1\n      pop\n      jump\t// out\n        /* \"#utility.yul\":11692:11861   */\n    tag_248:\n        /* \"#utility.yul\":11832:11853   */\n      0x5469657220646f6573206e6f7420657869737400000000000000000000000000\n        /* \"#utility.yul\":11828:11829   */\n      0x00\n        /* \"#utility.yul\":11820:11826   */\n      dup3\n        /* \"#utility.yul\":11816:11830   */\n      add\n        /* \"#utility.yul\":11809:11854   */\n      mstore\n        /* \"#utility.yul\":11692:11861   */\n      pop\n      jump\t// out\n        /* \"#utility.yul\":11867:12233   */\n    tag_249:\n        /* \"#utility.yul\":12009:12012   */\n      0x00\n        /* \"#utility.yul\":12030:12097   */\n      tag_395\n        /* \"#utility.yul\":12094:12096   */\n      0x13\n        /* \"#utility.yul\":12089:12092   */\n      dup4\n        /* \"#utility.yul\":12030:12097   */\n      tag_218\n      jump\t// in\n    tag_395:\n        /* \"#utility.yul\":12023:12097   */\n      swap2\n      pop\n        /* \"#utility.yul\":12106:12199   */\n      tag_396\n        /* \"#utility.yul\":12195:12198   */\n      dup3\n        /* \"#utility.yul\":12106:12199   */\n      tag_248\n      jump\t// in\n    tag_396:\n        /* \"#utility.yul\":12224:12226   */\n      0x20\n        /* \"#utility.yul\":12219:12222   */\n      dup3\n        /* \"#utility.yul\":12215:12227   */\n      add\n        /* \"#utility.yul\":12208:12227   */\n      swap1\n      pop\n        /* \"#utility.yul\":11867:12233   */\n      swap2\n      swap1\n      pop\n      jump\t// out\n        /* \"#utility.yul\":12239:12658   */\n    tag_131:\n        /* \"#utility.yul\":12405:12409   */\n      0x00\n        /* \"#utility.yul\":12443:12445   */\n      0x20\n        /* \"#utility.yul\":12432:12441   */\n      dup3\n        /* \"#utility.yul\":12428:12446   */\n      add\n        /* \"#utility.yul\":12420:12446   */\n      swap1\n      pop\n        /* \"#utility.yul\":12492:12501   */\n      dup2\n        /* \"#utility.yul\":12486:12490   */\n      dup2\n        /* \"#utility.yul\":12482:12502   */\n      sub\n        /* \"#utility.yul\":12478:12479   */\n      0x00\n        /* \"#utility.yul\":12467:12476   */\n      dup4\n        /* \"#utility.yul\":12463:12480   */\n      add\n        /* \"#utility.yul\":12456:12503   */\n      mstore\n        /* \"#utility.yul\":12520:12651   */\n      tag_398\n        /* \"#utility.yul\":12646:12650   */\n      dup2\n        /* \"#utility.yul\":12520:12651   */\n      tag_249\n      jump\t// in\n    tag_398:\n        /* \"#utility.yul\":12512:12651   */\n      swap1\n      pop\n        /* \"#utility.yul\":12239:12658   */\n      swap2\n      swap1\n      pop\n      jump\t// out\n        /* \"#utility.yul\":12664:12844   */\n    tag_250:\n        /* \"#utility.yul\":12712:12789   */\n      0x4e487b7100000000000000000000000000000000000000000000000000000000\n        /* \"#utility.yul\":12709:12710   */\n      0x00\n        /* \"#utility.yul\":12702:12790   */\n      mstore\n        /* \"#utility.yul\":12809:12813   */\n      0x11\n        /* \"#utility.yul\":12806:12807   */\n      0x04\n        /* \"#utility.yul\":12799:12814   */\n      mstore\n        /* \"#utility.yul\":12833:12837   */\n      0x24\n        /* \"#utility.yul\":12830:12831   */\n      0x00\n        /* \"#utility.yul\":12823:12838   */\n      revert\n        /* \"#utility.yul\":12850:13044   */\n    tag_133:\n        /* \"#utility.yul\":12890:12894   */\n      0x00\n        /* \"#utility.yul\":12910:12930   */\n      tag_401\n        /* \"#utility.yul\":12928:12929   */\n      dup3\n        /* \"#utility.yul\":12910:12930   */\n      tag_214\n      jump\t// in\n    tag_401:\n        /* \"#utility.yul\":12905:12930   */\n      swap2\n      pop\n        /* \"#utility.yul\":12944:12964   */\n      tag_402\n        /* \"#utility.yul\":12962:12963   */\n      dup4\n        /* \"#utility.yul\":12944:12964   */\n      tag_214\n      jump\t// in\n    tag_402:\n        /* \"#utility.yul\":12939:12964   */\n      swap3\n      pop\n        /* \"#utility.yul\":12988:12989   */\n      dup3\n        /* \"#utility.yul\":12985:12986   */\n      dup3\n        /* \"#utility.yul\":12981:12990   */\n      sub\n        /* \"#utility.yul\":12973:12990   */\n      swap1\n      pop\n        /* \"#utility.yul\":13012:13013   */\n      dup2\n        /* \"#utility.yul\":13006:13010   */\n      dup2\n        /* \"#utility.yul\":13003:13014   */\n      gt\n        /* \"#utility.yul\":13000:13037   */\n      iszero\n      tag_403\n      jumpi\n        /* \"#utility.yul\":13017:13035   */\n      tag_404\n      tag_250\n      jump\t// in\n    tag_404:\n        /* \"#utility.yul\":13000:13037   */\n    tag_403:\n        /* \"#utility.yul\":12850:13044   */\n      swap3\n      swap2\n      pop\n      pop\n      jump\t// out\n        /* \"#utility.yul\":13050:13230   */\n    tag_136:\n        /* \"#utility.yul\":13098:13175   */\n      0x4e487b7100000000000000000000000000000000000000000000000000000000\n        /* \"#utility.yul\":13095:13096   */\n      0x00\n        /* \"#utility.yul\":13088:13176   */\n      mstore\n        /* \"#utility.yul\":13195:13199   */\n      0x32\n        /* \"#utility.yul\":13192:13193   */\n      0x04\n        /* \"#utility.yul\":13185:13200   */\n      mstore\n        /* \"#utility.yul\":13219:13223   */\n      0x24\n        /* \"#utility.yul\":13216:13217   */\n      0x00\n        /* \"#utility.yul\":13209:13224   */\n      revert\n        /* \"#utility.yul\":13236:13385   */\n    tag_251:\n        /* \"#utility.yul\":13285:13291   */\n      0x00\n        /* \"#utility.yul\":13319:13324   */\n      dup2\n        /* \"#utility.yul\":13313:13325   */\n      sload\n        /* \"#utility.yul\":13303:13325   */\n      swap1\n      pop\n        /* \"#utility.yul\":13345:13378   */\n      tag_407\n        /* \"#utility.yul\":13371:13377   */\n      dup2\n        /* \"#utility.yul\":13345:13378   */\n      tag_85\n      jump\t// in\n    tag_407:\n        /* \"#utility.yul\":13335:13378   */\n      swap1\n      pop\n        /* \"#utility.yul\":13236:13385   */\n      swap2\n      swap1\n      pop\n      jump\t// out\n        /* \"#utility.yul\":13391:13532   */\n    tag_252:\n        /* \"#utility.yul\":13440:13444   */\n      0x00\n        /* \"#utility.yul\":13463:13466   */\n      dup2\n        /* \"#utility.yul\":13455:13466   */\n      swap1\n      pop\n        /* \"#utility.yul\":13486:13489   */\n      dup2\n        /* \"#utility.yul\":13483:13484   */\n      0x00\n        /* \"#utility.yul\":13476:13490   */\n      mstore\n        /* \"#utility.yul\":13520:13524   */\n      0x20\n        /* \"#utility.yul\":13517:13518   */\n      0x00\n        /* \"#utility.yul\":13507:13525   */\n      keccak256\n        /* \"#utility.yul\":13499:13525   */\n      swap1\n      pop\n        /* \"#utility.yul\":13391:13532   */\n      swap2\n      swap1\n      pop\n      jump\t// out\n        /* \"#utility.yul\":13538:13631   */\n    tag_253:\n        /* \"#utility.yul\":13575:13581   */\n      0x00\n        /* \"#utility.yul\":13622:13624   */\n      0x20\n        /* \"#utility.yul\":13617:13619   */\n      0x1f\n        /* \"#utility.yul\":13610:13615   */\n      dup4\n        /* \"#utility.yul\":13606:13620   */\n      add\n        /* \"#utility.yul\":13602:13625   */\n      div\n        /* \"#utility.yul\":13592:13625   */\n      swap1\n      pop\n        /* \"#utility.yul\":13538:13631   */\n      swap2\n      swap1\n      pop\n      jump\t// out\n        /* \"#utility.yul\":13637:13744   */\n    tag_254:\n        /* \"#utility.yul\":13681:13689   */\n      0x00\n        /* \"#utility.yul\":13731:13736   */\n      dup3\n        /* \"#utility.yul\":13725:13729   */\n      dup3\n        /* \"#utility.yul\":13721:13737   */\n      shl\n        /* \"#utility.yul\":13700:13737   */\n      swap1\n      pop\n        /* \"#utility.yul\":13637:13744   */\n      swap3\n      swap2\n      pop\n      pop\n      jump\t// out\n        /* \"#utility.yul\":13750:14143   */\n    tag_255:\n        /* \"#utility.yul\":13819:13825   */\n      0x00\n        /* \"#utility.yul\":13869:13870   */\n      0x08\n        /* \"#utility.yul\":13857:13867   */\n      dup4\n        /* \"#utility.yul\":13853:13871   */\n      mul\n        /* \"#utility.yul\":13892:13989   */\n      tag_412\n        /* \"#utility.yul\":13922:13988   */\n      0xffffffffffffffffffffffffffffffffffffffffffffffffffffffffffffffff\n        /* \"#utility.yul\":13911:13920   */\n      dup3\n        /* \"#utility.yul\":13892:13989   */\n      tag_254\n      jump\t// in\n    tag_412:\n        /* \"#utility.yul\":14010:14049   */\n      tag_413\n        /* \"#utility.yul\":14040:14048   */\n      dup7\n        /* \"#utility.yul\":14029:14038   */\n      dup4\n        /* \"#utility.yul\":14010:14049   */\n      tag_254\n      jump\t// in\n    tag_413:\n        /* \"#utility.yul\":13998:14049   */\n      swap6\n      pop\n        /* \"#utility.yul\":14082:14086   */\n      dup1\n        /* \"#utility.yul\":14078:14087   */\n      not\n        /* \"#utility.yul\":14071:14076   */\n      dup5\n        /* \"#utility.yul\":14067:14088   */\n      and\n        /* \"#utility.yul\":14058:14088   */\n      swap4\n      pop\n        /* \"#utility.yul\":14131:14135   */\n      dup1\n        /* \"#utility.yul\":14121:14129   */\n      dup7\n        /* \"#utility.yul\":14117:14136   */\n      and\n        /* \"#utility.yul\":14110:14115   */\n      dup5\n        /* \"#utility.yul\":14107:14137   */\n      or\n        /* \"#utility.yul\":14097:14137   */\n      swap3\n      pop\n        /* \"#utility.yul\":13826:14143   */\n      pop\n      pop\n        /* \"#utility.yul\":13750:14143   */\n      swap4\n      swap3\n      pop\n      pop\n      pop\n      jump\t// out\n        /* \"#utility.yul\":14149:14209   */\n    tag_256:\n        /* \"#utility.yul\":14177:14180   */\n      0x00\n        /* \"#utility.yul\":14198:14203   */\n      dup2\n        /* \"#utility.yul\":14191:14203   */\n      swap1\n      pop\n        /* \"#utility.yul\":14149:14209   */\n      swap2\n      swap1\n      pop\n      jump\t// out\n        /* \"#utility.yul\":14215:14357   */\n    tag_257:\n        /* \"#utility.yul\":14265:14274   */\n      0x00\n        /* \"#utility.yul\":14298:14351   */\n      tag_416\n        /* \"#utility.yul\":14316:14350   */\n      tag_417\n        /* \"#utility.yul\":14325:14349   */\n      tag_418\n        /* \"#utility.yul\":14343:14348   */\n      dup5\n        /* \"#utility.yul\":14325:14349   */\n      tag_214\n      jump\t// in\n    tag_418:\n        /* \"#utility.yul\":14316:14350   */\n      tag_256\n      jump\t// in\n    tag_417:\n        /* \"#utility.yul\":14298:14351   */\n      tag_214\n      jump\t// in\n    tag_416:\n        /* \"#utility.yul\":14285:14351   */\n      swap1\n      pop\n        /* \"#utility.yul\":14215:14357   */\n      swap2\n      swap1\n      pop\n      jump\t// out\n        /* \"#utility.yul\":14363:14438   */\n    tag_258:\n        /* \"#utility.yul\":14406:14409   */\n      0x00\n        /* \"#utility.yul\":14427:14432   */\n      dup2\n        /* \"#utility.yul\":14420:14432   */\n      swap1\n      pop\n        /* \"#utility.yul\":14363:14438   */\n      swap2\n      swap1\n      pop\n      jump\t// out\n        /* \"#utility.yul\":14444:14713   */\n    tag_259:\n        /* \"#utility.yul\":14554:14593   */\n      tag_421\n        /* \"#utility.yul\":14585:14592   */\n      dup4\n        /* \"#utility.yul\":14554:14593   */\n      tag_257\n      jump\t// in\n    tag_421:\n        /* \"#utility.yul\":14615:14706   */\n      tag_422\n        /* \"#utility.yul\":14664:14705   */\n      tag_423\n        /* \"#utility.yul\":14688:14704   */\n      dup3\n        /* \"#utility.yul\":14664:14705   */\n      tag_258\n      jump\t// in\n    tag_423:\n        /* \"#utility.yul\":14656:14662   */\n      dup5\n        /* \"#utility.yul\":14649:14653   */\n      dup5\n        /* \"#utility.yul\":14643:14654   */\n      sload\n        /* \"#utility.yul\":14615:14706   */\n      tag_255\n      jump\t// in\n    tag_422:\n        /* \"#utility.yul\":14609:14613   */\n      dup3\n        /* \"#utility.yul\":14602:14707   */\n      sstore\n        /* \"#utility.yul\":14520:14713   */\n      pop\n        /* \"#utility.yul\":14444:14713   */\n      pop\n      pop\n      pop\n      jump\t// out\n        /* \"#utility.yul\":14719:14792   */\n    tag_260:\n        /* \"#utility.yul\":14764:14767   */\n      0x00\n        /* \"#utility.yul\":14719:14792   */\n      swap1\n      jump\t// out\n        /* \"#utility.yul\":14798:14987   */\n    tag_261:\n        /* \"#utility.yul\":14875:14907   */\n      tag_426\n      tag_260\n      jump\t// in\n    tag_426:\n        /* \"#utility.yul\":14916:14981   */\n      tag_427\n        /* \"#utility.yul\":14974:14980   */\n      dup2\n        /* \"#utility.yul\":14966:14972   */\n      dup5\n        /* \"#utility.yul\":14960:14964   */\n      dup5\n        /* \"#utility.yul\":14916:14981   */\n      tag_259\n      jump\t// in\n    tag_427:\n        /* \"#utility.yul\":14851:14987   */\n      pop\n        /* \"#utility.yul\":14798:14987   */\n      pop\n      pop\n      jump\t// out\n        /* \"#utility.yul\":14993:15179   */\n    tag_262:\n        /* \"#utility.yul\":15053:15173   */\n    tag_429:\n        /* \"#utility.yul\":15070:15073   */\n      dup2\n        /* \"#utility.yul\":15063:15068   */\n      dup2\n        /* \"#utility.yul\":15060:15074   */\n      lt\n        /* \"#utility.yul\":15053:15173   */\n      iszero\n      tag_431\n      jumpi\n        /* \"#utility.yul\":15124:15163   */\n      tag_432\n        /* \"#utility.yul\":15161:15162   */\n      0x00\n        /* \"#utility.yul\":15154:15159   */\n      dup3\n        /* \"#utility.yul\":15124:15163   */\n      tag_261\n      jump\t// in\n    tag_432:\n        /* \"#utility.yul\":15097:15098   */\n      0x01\n        /* \"#utility.yul\":15090:15095   */\n      dup2\n        /* \"#utility.yul\":15086:15099   */\n      add\n        /* \"#utility.yul\":15077:15099   */\n      swap1\n      pop\n        /* \"#utility.yul\":15053:15173   */\n      jump(tag_429)\n    tag_431:\n        /* \"#utility.yul\":14993:15179   */\n      pop\n      pop\n      jump\t// out\n        /* \"#utility.yul\":15185:15728   */\n    tag_263:\n        /* \"#utility.yul\":15286:15288   */\n      0x1f\n        /* \"#utility.yul\":15281:15284   */\n      dup3\n        /* \"#utility.yul\":15278:15289   */\n      gt\n        /* \"#utility.yul\":15275:15721   */\n      iszero\n      tag_434\n      jumpi\n        /* \"#utility.yul\":15320:15358   */\n      tag_435\n        /* \"#utility.yul\":15352:15357   */\n      dup2\n        /* \"#utility.yul\":15320:15358   */\n      tag_252\n      jump\t// in\n    tag_435:\n        /* \"#utility.yul\":15404:15433   */\n      tag_436\n        /* \"#utility.yul\":15422:15432   */\n      dup5\n        /* \"#utility.yul\":15404:15433   */\n      tag_253\n      jump\t// in\n    tag_436:\n        /* \"#utility.yul\":15394:15402   */\n      dup2\n        /* \"#utility.yul\":15390:15434   */\n      add\n        /* \"#utility.yul\":15587:15589   */\n      0x20\n        /* \"#utility.yul\":15575:15585   */\n      dup6\n        /* \"#utility.yul\":15572:15590   */\n      lt\n        /* \"#utility.yul\":15569:15618   */\n      iszero\n      tag_437\n      jumpi\n        /* \"#utility.yul\":15608:15616   */\n      dup2\n        /* \"#utility.yul\":15593:15616   */\n      swap1\n      pop\n        /* \"#utility.yul\":15569:15618   */\n    tag_437:\n        /* \"#utility.yul\":15631:15711   */\n      tag_438\n        /* \"#utility.yul\":15687:15709   */\n      tag_439\n        /* \"#utility.yul\":15705:15708   */\n      dup6\n        /* \"#utility.yul\":15687:15709   */\n      tag_253\n      jump\t// in\n    tag_439:\n        /* \"#utility.yul\":15677:15685   */\n      dup4\n        /* \"#utility.yul\":15673:15710   */\n      add\n        /* \"#utility.yul\":15660:15671   */\n      dup3\n        /* \"#utility.yul\":15631:15711   */\n      tag_262\n      jump\t// in\n    tag_438:\n        /* \"#utility.yul\":15290:15721   */\n      pop\n      pop\n        /* \"#utility.yul\":15275:15721   */\n    tag_434:\n        /* \"#utility.yul\":15185:15728   */\n      pop\n      pop\n      pop\n      jump\t// out\n        /* \"#utility.yul\":15734:15851   */\n    tag_264:\n        /* \"#utility.yul\":15788:15796   */\n      0x00\n        /* \"#utility.yul\":15838:15843   */\n      dup3\n        /* \"#utility.yul\":15832:15836   */\n      dup3\n        /* \"#utility.yul\":15828:15844   */\n      shr\n        /* \"#utility.yul\":15807:15844   */\n      swap1\n      pop\n        /* \"#utility.yul\":15734:15851   */\n      swap3\n      swap2\n      pop\n      pop\n      jump\t// out\n        /* \"#utility.yul\":15857:16026   */\n    tag_265:\n        /* \"#utility.yul\":15901:15907   */\n      0x00\n        /* \"#utility.yul\":15934:15985   */\n      tag_442\n        /* \"#utility.yul\":15982:15983   */\n      0x00\n        /* \"#utility.yul\":15978:15984   */\n      not\n        /* \"#utility.yul\":15970:15975   */\n      dup5\n        /* \"#utility.yul\":15967:15968   */\n      0x08\n        /* \"#utility.yul\":15963:15976   */\n      mul\n        /* \"#utility.yul\":15934:15985   */\n      tag_264\n      jump\t// in\n    tag_442:\n        /* \"#utility.yul\":15930:15986   */\n      not\n        /* \"#utility.yul\":16015:16019   */\n      dup1\n        /* \"#utility.yul\":16009:16013   */\n      dup4\n        /* \"#utility.yul\":16005:16020   */\n      and\n        /* \"#utility.yul\":15995:16020   */\n      swap2\n      pop\n        /* \"#utility.yul\":15908:16026   */\n      pop\n        /* \"#utility.yul\":15857:16026   */\n      swap3\n      swap2\n      pop\n      pop\n      jump\t// out\n        /* \"#utility.yul\":16031:16326   */\n    tag_266:\n        /* \"#utility.yul\":16107:16111   */\n      0x00\n        /* \"#utility.yul\":16253:16282   */\n      tag_444\n        /* \"#utility.yul\":16278:16281   */\n      dup4\n        /* \"#utility.yul\":16272:16276   */\n      dup4\n        /* \"#utility.yul\":16253:16282   */\n      tag_265\n      jump\t// in\n    tag_444:\n        /* \"#utility.yul\":16245:16282   */\n      swap2\n      pop\n        /* \"#utility.yul\":16315:16318   */\n      dup3\n        /* \"#utility.yul\":16312:16313   */\n      0x02\n        /* \"#utility.yul\":16308:16319   */\n      mul\n        /* \"#utility.yul\":16302:16306   */\n      dup3\n        /* \"#utility.yul\":16299:16320   */\n      or\n        /* \"#utility.yul\":16291:16320   */\n      swap1\n      pop\n        /* \"#utility.yul\":16031:16326   */\n      swap3\n      swap2\n      pop\n      pop\n      jump\t// out\n        /* \"#utility.yul\":16331:17782   */\n    tag_142:\n        /* \"#utility.yul\":16442:16445   */\n      dup2\n        /* \"#utility.yul\":16436:16440   */\n      dup2\n        /* \"#utility.yul\":16433:16446   */\n      sub\n        /* \"#utility.yul\":16430:16456   */\n      tag_446\n      jumpi\n        /* \"#utility.yul\":16449:16454   */\n      pop\n      pop\n      jump(tag_445)\n        /* \"#utility.yul\":16430:16456   */\n    tag_446:\n        /* \"#utility.yul\":16480:16514   */\n      tag_447\n        /* \"#utility.yul\":16510:16513   */\n      dup3\n        /* \"#utility.yul\":16480:16514   */\n      tag_251\n      jump\t// in\n    tag_447:\n        /* \"#utility.yul\":16579:16597   */\n      0xffffffffffffffff\n        /* \"#utility.yul\":16571:16577   */\n      dup2\n        /* \"#utility.yul\":16568:16598   */\n      gt\n        /* \"#utility.yul\":16565:16621   */\n      iszero\n      tag_448\n      jumpi\n        /* \"#utility.yul\":16601:16619   */\n      tag_449\n      tag_234\n      jump\t// in\n    tag_449:\n        /* \"#utility.yul\":16565:16621   */\n    tag_448:\n        /* \"#utility.yul\":16645:16683   */\n      tag_450\n        /* \"#utility.yul\":16677:16681   */\n      dup3\n        /* \"#utility.yul\":16671:16682   */\n      sload\n        /* \"#utility.yul\":16645:16683   */\n      tag_85\n      jump\t// in\n    tag_450:\n        /* \"#utility.yul\":16730:16797   */\n      tag_451\n        /* \"#utility.yul\":16790:16796   */\n      dup3\n        /* \"#utility.yul\":16782:16788   */\n      dup3\n        /* \"#utility.yul\":16776:16780   */\n      dup6\n        /* \"#utility.yul\":16730:16797   */\n      tag_263\n      jump\t// in\n    tag_451:\n        /* \"#utility.yul\":16824:16825   */\n      0x00\n        /* \"#utility.yul\":16853:16855   */\n      0x1f\n        /* \"#utility.yul\":16845:16851   */\n      dup4\n        /* \"#utility.yul\":16842:16856   */\n      gt\n        /* \"#utility.yul\":16870:16871   */\n      0x01\n        /* \"#utility.yul\":16865:17537   */\n      dup2\n      eq\n      tag_453\n      jumpi\n        /* \"#utility.yul\":17581:17582   */\n      0x00\n        /* \"#utility.yul\":17598:17604   */\n      dup5\n        /* \"#utility.yul\":17595:17672   */\n      iszero\n      tag_454\n      jumpi\n        /* \"#utility.yul\":17647:17656   */\n      dup3\n        /* \"#utility.yul\":17642:17645   */\n      dup8\n        /* \"#utility.yul\":17638:17657   */\n      add\n        /* \"#utility.yul\":17632:17658   */\n      sload\n        /* \"#utility.yul\":17623:17658   */\n      swap1\n      pop\n        /* \"#utility.yul\":17595:17672   */\n    tag_454:\n        /* \"#utility.yul\":17698:17765   */\n      tag_455\n        /* \"#utility.yul\":17758:17764   */\n      dup6\n        /* \"#utility.yul\":17751:17756   */\n      dup3\n        /* \"#utility.yul\":17698:17765   */\n      tag_266\n      jump\t// in\n    tag_455:\n        /* \"#utility.yul\":17692:17696   */\n      dup7\n        /* \"#utility.yul\":17685:17766   */\n      sstore\n        /* \"#utility.yul\":17554:17776   */\n      pop\n        /* \"#utility.yul\":16835:17776   */\n      jump(tag_452)\n        /* \"#utility.yul\":16865:17537   */\n    tag_453:\n        /* \"#utility.yul\":16917:16921   */\n      0x1f\n        /* \"#utility.yul\":16913:16922   */\n      not\n        /* \"#utility.yul\":16905:16911   */\n      dup5\n        /* \"#utility.yul\":16901:16923   */\n      and\n        /* \"#utility.yul\":16943:16979   */\n      tag_456\n        /* \"#utility.yul\":16975:16978   */\n      dup8\n        /* \"#utility.yul\":16943:16979   */\n      tag_252\n      jump\t// in\n    tag_456:\n        /* \"#utility.yul\":16936:16979   */\n      swap7\n      pop\n        /* \"#utility.yul\":17006:17043   */\n      tag_457\n        /* \"#utility.yul\":17038:17042   */\n      dup7\n        /* \"#utility.yul\":17006:17043   */\n      tag_252\n      jump\t// in\n    tag_457:\n        /* \"#utility.yul\":17065:17066   */\n      0x00\n        /* \"#utility.yul\":17079:17286   */\n    tag_458:\n        /* \"#utility.yul\":17093:17100   */\n      dup3\n        /* \"#utility.yul\":17090:17091   */\n      dup2\n        /* \"#utility.yul\":17087:17101   */\n      lt\n        /* \"#utility.yul\":17079:17286   */\n      iszero\n      tag_460\n      jumpi\n        /* \"#utility.yul\":17172:17181   */\n      dup5\n        /* \"#utility.yul\":17167:17170   */\n      dup10\n        /* \"#utility.yul\":17163:17182   */\n      add\n        /* \"#utility.yul\":17157:17183   */\n      sload\n        /* \"#utility.yul\":17149:17155   */\n      dup3\n        /* \"#utility.yul\":17142:17184   */\n      sstore\n        /* \"#utility.yul\":17223:17224   */\n      0x01\n        /* \"#utility.yul\":17215:17221   */\n      dup3\n        /* \"#utility.yul\":17211:17225   */\n      add\n        /* \"#utility.yul\":17201:17225   */\n      swap2\n      pop\n        /* \"#utility.yul\":17270:17271   */\n      0x01\n        /* \"#utility.yul\":17259:17268   */\n      dup6\n        /* \"#utility.yul\":17255:17272   */\n      add\n        /* \"#utility.yul\":17242:17272   */\n      swap5\n      pop\n        /* \"#utility.yul\":17116:17120   */\n      0x20\n        /* \"#utility.yul\":17113:17114   */\n      dup2\n        /* \"#utility.yul\":17109:17121   */\n      add\n        /* \"#utility.yul\":17104:17121   */\n      swap1\n      pop\n        /* \"#utility.yul\":17079:17286   */\n      jump(tag_458)\n    tag_460:\n        /* \"#utility.yul\":17314:17320   */\n      dup7\n        /* \"#utility.yul\":17305:17312   */\n      dup4\n        /* \"#utility.yul\":17302:17321   */\n      lt\n        /* \"#utility.yul\":17299:17478   */\n      iszero\n      tag_461\n      jumpi\n        /* \"#utility.yul\":17372:17381   */\n      dup5\n        /* \"#utility.yul\":17367:17370   */\n      dup10\n        /* \"#utility.yul\":17363:17382   */\n      add\n        /* \"#utility.yul\":17357:17383   */\n      sload\n        /* \"#utility.yul\":17415:17463   */\n      tag_462\n        /* \"#utility.yul\":17457:17461   */\n      0x1f\n        /* \"#utility.yul\":17449:17455   */\n      dup10\n        /* \"#utility.yul\":17445:17462   */\n      and\n        /* \"#utility.yul\":17434:17443   */\n      dup3\n        /* \"#utility.yul\":17415:17463   */\n      tag_265\n      jump\t// in\n    tag_462:\n        /* \"#utility.yul\":17407:17413   */\n      dup4\n        /* \"#utility.yul\":17400:17464   */\n      sstore\n        /* \"#utility.yul\":17322:17478   */\n      pop\n        /* \"#utility.yul\":17299:17478   */\n    tag_461:\n        /* \"#utility.yul\":17524:17525   */\n      0x01\n        /* \"#utility.yul\":17520:17521   */\n      0x02\n        /* \"#utility.yul\":17512:17518   */\n      dup9\n        /* \"#utility.yul\":17508:17522   */\n      mul\n        /* \"#utility.yul\":17504:17526   */\n      add\n        /* \"#utility.yul\":17498:17502   */\n      dup9\n        /* \"#utility.yul\":17491:17527   */\n      sstore\n        /* \"#utility.yul\":16872:17537   */\n      pop\n      pop\n      pop\n        /* \"#utility.yul\":16835:17776   */\n    tag_452:\n      pop\n        /* \"#utility.yul\":16420:17782   */\n      pop\n      pop\n      pop\n        /* \"#utility.yul\":16331:17782   */\n      pop\n      pop\n    tag_445:\n      jump\t// out\n        /* \"#utility.yul\":17788:17968   */\n    tag_145:\n        /* \"#utility.yul\":17836:17913   */\n      0x4e487b7100000000000000000000000000000000000000000000000000000000\n        /* \"#utility.yul\":17833:17834   */\n      0x00\n        /* \"#utility.yul\":17826:17914   */\n      mstore\n        /* \"#utility.yul\":17933:17937   */\n      0x31\n        /* \"#utility.yul\":17930:17931   */\n      0x04\n        /* \"#utility.yul\":17923:17938   */\n      mstore\n        /* \"#utility.yul\":17957:17961   */\n      0x24\n        /* \"#utility.yul\":17954:17955   */\n      0x00\n        /* \"#utility.yul\":17947:17962   */\n      revert\n        /* \"#utility.yul\":17974:18146   */\n    tag_267:\n        /* \"#utility.yul\":18114:18138   */\n      0x43616d706169676e206973206e6f742041637469766500000000000000000000\n        /* \"#utility.yul\":18110:18111   */\n      0x00\n        /* \"#utility.yul\":18102:18108   */\n      dup3\n        /* \"#utility.yul\":18098:18112   */\n      add\n        /* \"#utility.yul\":18091:18139   */\n      mstore\n        /* \"#utility.yul\":17974:18146   */\n      pop\n      jump\t// out\n        /* \"#utility.yul\":18152:18518   */\n    tag_268:\n        /* \"#utility.yul\":18294:18297   */\n      0x00\n        /* \"#utility.yul\":18315:18382   */\n      tag_466\n        /* \"#utility.yul\":18379:18381   */\n      0x16\n        /* \"#utility.yul\":18374:18377   */\n      dup4\n        /* \"#utility.yul\":18315:18382   */\n      tag_218\n      jump\t// in\n    tag_466:\n        /* \"#utility.yul\":18308:18382   */\n      swap2\n      pop\n        /* \"#utility.yul\":18391:18484   */\n      tag_467\n        /* \"#utility.yul\":18480:18483   */\n      dup3\n        /* \"#utility.yul\":18391:18484   */\n      tag_267\n      jump\t// in\n    tag_467:\n        /* \"#utility.yul\":18509:18511   */\n      0x20\n        /* \"#utility.yul\":18504:18507   */\n      dup3\n        /* \"#utility.yul\":18500:18512   */\n      add\n        /* \"#utility.yul\":18493:18512   */\n      swap1\n      pop\n        /* \"#utility.yul\":18152:18518   */\n      swap2\n      swap1\n      pop\n      jump\t// out\n        /* \"#utility.yul\":18524:18943   */\n    tag_156:\n        /* \"#utility.yul\":18690:18694   */\n      0x00\n        /* \"#utility.yul\":18728:18730   */\n      0x20\n        /* \"#utility.yul\":18717:18726   */\n      dup3\n        /* \"#utility.yul\":18713:18731   */\n      add\n        /* \"#utility.yul\":18705:18731   */\n      swap1\n      pop\n        /* \"#utility.yul\":18777:18786   */\n      dup2\n        /* \"#utility.yul\":18771:18775   */\n      dup2\n        /* \"#utility.yul\":18767:18787   */\n      sub\n        /* \"#utility.yul\":18763:18764   */\n      0x00\n        /* \"#utility.yul\":18752:18761   */\n      dup4\n        /* \"#utility.yul\":18748:18765   */\n      add\n        /* \"#utility.yul\":18741:18788   */\n      mstore\n        /* \"#utility.yul\":18805:18936   */\n      tag_469\n        /* \"#utility.yul\":18931:18935   */\n      dup2\n        /* \"#utility.yul\":18805:18936   */\n      tag_268\n      jump\t// in\n    tag_469:\n        /* \"#utility.yul\":18797:18936   */\n      swap1\n      pop\n        /* \"#utility.yul\":18524:18943   */\n      swap2\n      swap1\n      pop\n      jump\t// out\n        /* \"#utility.yul\":18949:19117   */\n    tag_269:\n        /* \"#utility.yul\":19089:19109   */\n      0x43616d706169676e2068617320656e6465640000000000000000000000000000\n        /* \"#utility.yul\":19085:19086   */\n      0x00\n        /* \"#utility.yul\":19077:19083   */\n      dup3\n        /* \"#utility.yul\":19073:19087   */\n      add\n        /* \"#utility.yul\":19066:19110   */\n      mstore\n        /* \"#utility.yul\":18949:19117   */\n      pop\n      jump\t// out\n        /* \"#utility.yul\":19123:19489   */\n    tag_270:\n        /* \"#utility.yul\":19265:19268   */\n      0x00\n        /* \"#utility.yul\":19286:19353   */\n      tag_472\n        /* \"#utility.yul\":19350:19352   */\n      0x12\n        /* \"#utility.yul\":19345:19348   */\n      dup4\n        /* \"#utility.yul\":19286:19353   */\n      tag_218\n      jump\t// in\n    tag_472:\n        /* \"#utility.yul\":19279:19353   */\n      swap2\n      pop\n        /* \"#utility.yul\":19362:19455   */\n      tag_473\n        /* \"#utility.yul\":19451:19454   */\n      dup3\n        /* \"#utility.yul\":19362:19455   */\n      tag_269\n      jump\t// in\n    tag_473:\n        /* \"#utility.yul\":19480:19482   */\n      0x20\n        /* \"#utility.yul\":19475:19478   */\n      dup3\n        /* \"#utility.yul\":19471:19483   */\n      add\n        /* \"#utility.yul\":19464:19483   */\n      swap1\n      pop\n        /* \"#utility.yul\":19123:19489   */\n      swap2\n      swap1\n      pop\n      jump\t// out\n        /* \"#utility.yul\":19495:19914   */\n    tag_160:\n        /* \"#utility.yul\":19661:19665   */\n      0x00\n        /* \"#utility.yul\":19699:19701   */\n      0x20\n        /* \"#utility.yul\":19688:19697   */\n      dup3\n        /* \"#utility.yul\":19684:19702   */\n      add\n        /* \"#utility.yul\":19676:19702   */\n      swap1\n      pop\n        /* \"#utility.yul\":19748:19757   */\n      dup2\n        /* \"#utility.yul\":19742:19746   */\n      dup2\n        /* \"#utility.yul\":19738:19758   */\n      sub\n        /* \"#utility.yul\":19734:19735   */\n      0x00\n        /* \"#utility.yul\":19723:19732   */\n      dup4\n        /* \"#utility.yul\":19719:19736   */\n      add\n        /* \"#utility.yul\":19712:19759   */\n      mstore\n        /* \"#utility.yul\":19776:19907   */\n      tag_475\n        /* \"#utility.yul\":19902:19906   */\n      dup2\n        /* \"#utility.yul\":19776:19907   */\n      tag_270\n      jump\t// in\n    tag_475:\n        /* \"#utility.yul\":19768:19907   */\n      swap1\n      pop\n        /* \"#utility.yul\":19495:19914   */\n      swap2\n      swap1\n      pop\n      jump\t// out\n        /* \"#utility.yul\":19920:20082   */\n    tag_271:\n        /* \"#utility.yul\":20060:20074   */\n      0x496e76616c696420546965720000000000000000000000000000000000000000\n        /* \"#utility.yul\":20056:20057   */\n      0x00\n        /* \"#utility.yul\":20048:20054   */\n      dup3\n        /* \"#utility.yul\":20044:20058   */\n      add\n        /* \"#utility.yul\":20037:20075   */\n      mstore\n        /* \"#utility.yul\":19920:20082   */\n      pop\n      jump\t// out\n        /* \"#utility.yul\":20088:20454   */\n    tag_272:\n        /* \"#utility.yul\":20230:20233   */\n      0x00\n        /* \"#utility.yul\":20251:20318   */\n      tag_478\n        /* \"#utility.yul\":20315:20317   */\n      0x0c\n        /* \"#utility.yul\":20310:20313   */\n      dup4\n        /* \"#utility.yul\":20251:20318   */\n      tag_218\n      jump\t// in\n    tag_478:\n        /* \"#utility.yul\":20244:20318   */\n      swap2\n      pop\n        /* \"#utility.yul\":20327:20420   */\n      tag_479\n        /* \"#utility.yul\":20416:20419   */\n      dup3\n        /* \"#utility.yul\":20327:20420   */\n      tag_271\n      jump\t// in\n    tag_479:\n        /* \"#utility.yul\":20445:20447   */\n      0x20\n        /* \"#utility.yul\":20440:20443   */\n      dup3\n        /* \"#utility.yul\":20436:20448   */\n      add\n        /* \"#utility.yul\":20429:20448   */\n      swap1\n      pop\n        /* \"#utility.yul\":20088:20454   */\n      swap2\n      swap1\n      pop\n      jump\t// out\n        /* \"#utility.yul\":20460:20879   */\n    tag_163:\n        /* \"#utility.yul\":20626:20630   */\n      0x00\n        /* \"#utility.yul\":20664:20666   */\n      0x20\n        /* \"#utility.yul\":20653:20662   */\n      dup3\n        /* \"#utility.yul\":20649:20667   */\n      add\n        /* \"#utility.yul\":20641:20667   */\n      swap1\n      pop\n        /* \"#utility.yul\":20713:20722   */\n      dup2\n        /* \"#utility.yul\":20707:20711   */\n      dup2\n        /* \"#utility.yul\":20703:20723   */\n      sub\n        /* \"#utility.yul\":20699:20700   */\n      0x00\n        /* \"#utility.yul\":20688:20697   */\n      dup4\n        /* \"#utility.yul\":20684:20701   */\n      add\n        /* \"#utility.yul\":20677:20724   */\n      mstore\n        /* \"#utility.yul\":20741:20872   */\n      tag_481\n        /* \"#utility.yul\":20867:20871   */\n      dup2\n        /* \"#utility.yul\":20741:20872   */\n      tag_272\n      jump\t// in\n    tag_481:\n        /* \"#utility.yul\":20733:20872   */\n      swap1\n      pop\n        /* \"#utility.yul\":20460:20879   */\n      swap2\n      swap1\n      pop\n      jump\t// out\n        /* \"#utility.yul\":20885:21061   */\n    tag_273:\n        /* \"#utility.yul\":21025:21053   */\n      0x5469657220616d6f756e7420646f6573206e6f74206d61746368000000000000\n        /* \"#utility.yul\":21021:21022   */\n      0x00\n        /* \"#utility.yul\":21013:21019   */\n      dup3\n        /* \"#utility.yul\":21009:21023   */\n      add\n        /* \"#utility.yul\":21002:21054   */\n      mstore\n        /* \"#utility.yul\":20885:21061   */\n      pop\n      jump\t// out\n        /* \"#utility.yul\":21067:21433   */\n    tag_274:\n        /* \"#utility.yul\":21209:21212   */\n      0x00\n        /* \"#utility.yul\":21230:21297   */\n      tag_484\n        /* \"#utility.yul\":21294:21296   */\n      0x1a\n        /* \"#utility.yul\":21289:21292   */\n      dup4\n        /* \"#utility.yul\":21230:21297   */\n      tag_218\n      jump\t// in\n    tag_484:\n        /* \"#utility.yul\":21223:21297   */\n      swap2\n      pop\n        /* \"#utility.yul\":21306:21399   */\n      tag_485\n        /* \"#utility.yul\":21395:21398   */\n      dup3\n        /* \"#utility.yul\":21306:21399   */\n      tag_273\n      jump\t// in\n    tag_485:\n        /* \"#utility.yul\":21424:21426   */\n      0x20\n        /* \"#utility.yul\":21419:21422   */\n      dup3\n        /* \"#utility.yul\":21415:21427   */\n      add\n        /* \"#utility.yul\":21408:21427   */\n      swap1\n      pop\n        /* \"#utility.yul\":21067:21433   */\n      swap2\n      swap1\n      pop\n      jump\t// out\n        /* \"#utility.yul\":21439:21858   */\n    tag_169:\n        /* \"#utility.yul\":21605:21609   */\n      0x00\n        /* \"#utility.yul\":21643:21645   */\n      0x20\n        /* \"#utility.yul\":21632:21641   */\n      dup3\n        /* \"#utility.yul\":21628:21646   */\n      add\n        /* \"#utility.yul\":21620:21646   */\n      swap1\n      pop\n        /* \"#utility.yul\":21692:21701   */\n      dup2\n        /* \"#utility.yul\":21686:21690   */\n      dup2\n        /* \"#utility.yul\":21682:21702   */\n      sub\n        /* \"#utility.yul\":21678:21679   */\n      0x00\n        /* \"#utility.yul\":21667:21676   */\n      dup4\n        /* \"#utility.yul\":21663:21680   */\n      add\n        /* \"#utility.yul\":21656:21703   */\n      mstore\n        /* \"#utility.yul\":21720:21851   */\n      tag_487\n        /* \"#utility.yul\":21846:21850   */\n      dup2\n        /* \"#utility.yul\":21720:21851   */\n      tag_274\n      jump\t// in\n    tag_487:\n        /* \"#utility.yul\":21712:21851   */\n      swap1\n      pop\n        /* \"#utility.yul\":21439:21858   */\n      swap2\n      swap1\n      pop\n      jump\t// out\n        /* \"#utility.yul\":21864:22097   */\n    tag_174:\n        /* \"#utility.yul\":21903:21906   */\n      0x00\n        /* \"#utility.yul\":21926:21950   */\n      tag_489\n        /* \"#utility.yul\":21944:21949   */\n      dup3\n        /* \"#utility.yul\":21926:21950   */\n      tag_214\n      jump\t// in\n    tag_489:\n        /* \"#utility.yul\":21917:21950   */\n      swap2\n      pop\n        /* \"#utility.yul\":21972:22038   */\n      0xffffffffffffffffffffffffffffffffffffffffffffffffffffffffffffffff\n        /* \"#utility.yul\":21965:21970   */\n      dup3\n        /* \"#utility.yul\":21962:22039   */\n      sub\n        /* \"#utility.yul\":21959:22062   */\n      tag_490\n      jumpi\n        /* \"#utility.yul\":22042:22060   */\n      tag_491\n      tag_250\n      jump\t// in\n    tag_491:\n        /* \"#utility.yul\":21959:22062   */\n    tag_490:\n        /* \"#utility.yul\":22089:22090   */\n      0x01\n        /* \"#utility.yul\":22082:22087   */\n      dup3\n        /* \"#utility.yul\":22078:22091   */\n      add\n        /* \"#utility.yul\":22071:22091   */\n      swap1\n      pop\n        /* \"#utility.yul\":21864:22097   */\n      swap2\n      swap1\n      pop\n      jump\t// out\n        /* \"#utility.yul\":22103:22294   */\n    tag_176:\n        /* \"#utility.yul\":22143:22146   */\n      0x00\n        /* \"#utility.yul\":22162:22182   */\n      tag_493\n        /* \"#utility.yul\":22180:22181   */\n      dup3\n        /* \"#utility.yul\":22162:22182   */\n      tag_214\n      jump\t// in\n    tag_493:\n        /* \"#utility.yul\":22157:22182   */\n      swap2\n      pop\n        /* \"#utility.yul\":22196:22216   */\n      tag_494\n        /* \"#utility.yul\":22214:22215   */\n      dup4\n        /* \"#utility.yul\":22196:22216   */\n      tag_214\n      jump\t// in\n    tag_494:\n        /* \"#utility.yul\":22191:22216   */\n      swap3\n      pop\n        /* \"#utility.yul\":22239:22240   */\n      dup3\n        /* \"#utility.yul\":22236:22237   */\n      dup3\n        /* \"#utility.yul\":22232:22241   */\n      add\n        /* \"#utility.yul\":22225:22241   */\n      swap1\n      pop\n        /* \"#utility.yul\":22260:22263   */\n      dup1\n        /* \"#utility.yul\":22257:22258   */\n      dup3\n        /* \"#utility.yul\":22254:22264   */\n      gt\n        /* \"#utility.yul\":22251:22287   */\n      iszero\n      tag_495\n      jumpi\n        /* \"#utility.yul\":22267:22285   */\n      tag_496\n      tag_250\n      jump\t// in\n    tag_496:\n        /* \"#utility.yul\":22251:22287   */\n    tag_495:\n        /* \"#utility.yul\":22103:22294   */\n      swap3\n      swap2\n      pop\n      pop\n      jump\t// out\n        /* \"#utility.yul\":22300:22482   */\n    tag_275:\n        /* \"#utility.yul\":22440:22474   */\n      0x416d6f756e74206d7573742062652067726561746572207468616e207a65726f\n        /* \"#utility.yul\":22436:22437   */\n      0x00\n        /* \"#utility.yul\":22428:22434   */\n      dup3\n        /* \"#utility.yul\":22424:22438   */\n      add\n        /* \"#utility.yul\":22417:22475   */\n      mstore\n        /* \"#utility.yul\":22300:22482   */\n      pop\n      jump\t// out\n        /* \"#utility.yul\":22488:22854   */\n    tag_276:\n        /* \"#utility.yul\":22630:22633   */\n      0x00\n        /* \"#utility.yul\":22651:22718   */\n      tag_499\n        /* \"#utility.yul\":22715:22717   */\n      0x20\n        /* \"#utility.yul\":22710:22713   */\n      dup4\n        /* \"#utility.yul\":22651:22718   */\n      tag_218\n      jump\t// in\n    tag_499:\n        /* \"#utility.yul\":22644:22718   */\n      swap2\n      pop\n        /* \"#utility.yul\":22727:22820   */\n      tag_500\n        /* \"#utility.yul\":22816:22819   */\n      dup3\n        /* \"#utility.yul\":22727:22820   */\n      tag_275\n      jump\t// in\n    tag_500:\n        /* \"#utility.yul\":22845:22847   */\n      0x20\n        /* \"#utility.yul\":22840:22843   */\n      dup3\n        /* \"#utility.yul\":22836:22848   */\n      add\n        /* \"#utility.yul\":22829:22848   */\n      swap1\n      pop\n        /* \"#utility.yul\":22488:22854   */\n      swap2\n      swap1\n      pop\n      jump\t// out\n        /* \"#utility.yul\":22860:23279   */\n    tag_184:\n        /* \"#utility.yul\":23026:23030   */\n      0x00\n        /* \"#utility.yul\":23064:23066   */\n      0x20\n        /* \"#utility.yul\":23053:23062   */\n      dup3\n        /* \"#utility.yul\":23049:23067   */\n      add\n        /* \"#utility.yul\":23041:23067   */\n      swap1\n      pop\n        /* \"#utility.yul\":23113:23122   */\n      dup2\n        /* \"#utility.yul\":23107:23111   */\n      dup2\n        /* \"#utility.yul\":23103:23123   */\n      sub\n        /* \"#utility.yul\":23099:23100   */\n      0x00\n        /* \"#utility.yul\":23088:23097   */\n      dup4\n        /* \"#utility.yul\":23084:23101   */\n      add\n        /* \"#utility.yul\":23077:23124   */\n      mstore\n        /* \"#utility.yul\":23141:23272   */\n      tag_502\n        /* \"#utility.yul\":23267:23271   */\n      dup2\n        /* \"#utility.yul\":23141:23272   */\n      tag_276\n      jump\t// in\n    tag_502:\n        /* \"#utility.yul\":23133:23272   */\n      swap1\n      pop\n        /* \"#utility.yul\":22860:23279   */\n      swap2\n      swap1\n      pop\n      jump\t// out\n        /* \"#utility.yul\":23285:24680   */\n    tag_187:\n        /* \"#utility.yul\":23402:23439   */\n      tag_504\n        /* \"#utility.yul\":23435:23438   */\n      dup3\n        /* \"#utility.yul\":23402:23439   */\n      tag_217\n      jump\t// in\n    tag_504:\n        /* \"#utility.yul\":23504:23522   */\n      0xffffffffffffffff\n        /* \"#utility.yul\":23496:23502   */\n      dup2\n        /* \"#utility.yul\":23493:23523   */\n      gt\n        /* \"#utility.yul\":23490:23546   */\n      iszero\n      tag_505\n      jumpi\n        /* \"#utility.yul\":23526:23544   */\n      tag_506\n      tag_234\n      jump\t// in\n    tag_506:\n        /* \"#utility.yul\":23490:23546   */\n    tag_505:\n        /* \"#utility.yul\":23570:23608   */\n      tag_507\n        /* \"#utility.yul\":23602:23606   */\n      dup3\n        /* \"#utility.yul\":23596:23607   */\n      sload\n        /* \"#utility.yul\":23570:23608   */\n      tag_85\n      jump\t// in\n    tag_507:\n        /* \"#utility.yul\":23655:23722   */\n      tag_508\n        /* \"#utility.yul\":23715:23721   */\n      dup3\n        /* \"#utility.yul\":23707:23713   */\n      dup3\n        /* \"#utility.yul\":23701:23705   */\n      dup6\n        /* \"#utility.yul\":23655:23722   */\n      tag_263\n      jump\t// in\n    tag_508:\n        /* \"#utility.yul\":23749:23750   */\n      0x00\n        /* \"#utility.yul\":23773:23777   */\n      0x20\n        /* \"#utility.yul\":23760:23777   */\n      swap1\n      pop\n        /* \"#utility.yul\":23805:23807   */\n      0x1f\n        /* \"#utility.yul\":23797:23803   */\n      dup4\n        /* \"#utility.yul\":23794:23808   */\n      gt\n        /* \"#utility.yul\":23822:23823   */\n      0x01\n        /* \"#utility.yul\":23817:24435   */\n      dup2\n      eq\n      tag_510\n      jumpi\n        /* \"#utility.yul\":24479:24480   */\n      0x00\n        /* \"#utility.yul\":24496:24502   */\n      dup5\n        /* \"#utility.yul\":24493:24570   */\n      iszero\n      tag_511\n      jumpi\n        /* \"#utility.yul\":24545:24554   */\n      dup3\n        /* \"#utility.yul\":24540:24543   */\n      dup8\n        /* \"#utility.yul\":24536:24555   */\n      add\n        /* \"#utility.yul\":24530:24556   */\n      mload\n        /* \"#utility.yul\":24521:24556   */\n      swap1\n      pop\n        /* \"#utility.yul\":24493:24570   */\n    tag_511:\n        /* \"#utility.yul\":24596:24663   */\n      tag_512\n        /* \"#utility.yul\":24656:24662   */\n      dup6\n        /* \"#utility.yul\":24649:24654   */\n      dup3\n        /* \"#utility.yul\":24596:24663   */\n      tag_266\n      jump\t// in\n    tag_512:\n        /* \"#utility.yul\":24590:24594   */\n      dup7\n        /* \"#utility.yul\":24583:24664   */\n      sstore\n        /* \"#utility.yul\":24452:24674   */\n      pop\n        /* \"#utility.yul\":23787:24674   */\n      jump(tag_509)\n        /* \"#utility.yul\":23817:24435   */\n    tag_510:\n        /* \"#utility.yul\":23869:23873   */\n      0x1f\n        /* \"#utility.yul\":23865:23874   */\n      not\n        /* \"#utility.yul\":23857:23863   */\n      dup5\n        /* \"#utility.yul\":23853:23875   */\n      and\n        /* \"#utility.yul\":23903:23940   */\n      tag_513\n        /* \"#utility.yul\":23935:23939   */\n      dup7\n        /* \"#utility.yul\":23903:23940   */\n      tag_252\n      jump\t// in\n    tag_513:\n        /* \"#utility.yul\":23962:23963   */\n      0x00\n        /* \"#utility.yul\":23976:24184   */\n    tag_514:\n        /* \"#utility.yul\":23990:23997   */\n      dup3\n        /* \"#utility.yul\":23987:23988   */\n      dup2\n        /* \"#utility.yul\":23984:23998   */\n      lt\n        /* \"#utility.yul\":23976:24184   */\n      iszero\n      tag_516\n      jumpi\n        /* \"#utility.yul\":24069:24078   */\n      dup5\n        /* \"#utility.yul\":24064:24067   */\n      dup10\n        /* \"#utility.yul\":24060:24079   */\n      add\n        /* \"#utility.yul\":24054:24080   */\n      mload\n        /* \"#utility.yul\":24046:24052   */\n      dup3\n        /* \"#utility.yul\":24039:24081   */\n      sstore\n        /* \"#utility.yul\":24120:24121   */\n      0x01\n        /* \"#utility.yul\":24112:24118   */\n      dup3\n        /* \"#utility.yul\":24108:24122   */\n      add\n        /* \"#utility.yul\":24098:24122   */\n      swap2\n      pop\n        /* \"#utility.yul\":24167:24169   */\n      0x20\n        /* \"#utility.yul\":24156:24165   */\n      dup6\n        /* \"#utility.yul\":24152:24170   */\n      add\n        /* \"#utility.yul\":24139:24170   */\n      swap5\n      pop\n        /* \"#utility.yul\":24013:24017   */\n      0x20\n        /* \"#utility.yul\":24010:24011   */\n      dup2\n        /* \"#utility.yul\":24006:24018   */\n      add\n        /* \"#utility.yul\":24001:24018   */\n      swap1\n      pop\n        /* \"#utility.yul\":23976:24184   */\n      jump(tag_514)\n    tag_516:\n        /* \"#utility.yul\":24212:24218   */\n      dup7\n        /* \"#utility.yul\":24203:24210   */\n      dup4\n        /* \"#utility.yul\":24200:24219   */\n      lt\n        /* \"#utility.yul\":24197:24376   */\n      iszero\n      tag_517\n      jumpi\n        /* \"#utility.yul\":24270:24279   */\n      dup5\n        /* \"#utility.yul\":24265:24268   */\n      dup10\n        /* \"#utility.yul\":24261:24280   */\n      add\n        /* \"#utility.yul\":24255:24281   */\n      mload\n        /* \"#utility.yul\":24313:24361   */\n      tag_518\n        /* \"#utility.yul\":24355:24359   */\n      0x1f\n        /* \"#utility.yul\":24347:24353   */\n      dup10\n        /* \"#utility.yul\":24343:24360   */\n      and\n        /* \"#utility.yul\":24332:24341   */\n      dup3\n        /* \"#utility.yul\":24313:24361   */\n      tag_265\n      jump\t// in\n    tag_518:\n        /* \"#utility.yul\":24305:24311   */\n      dup4\n        /* \"#utility.yul\":24298:24362   */\n      sstore\n        /* \"#utility.yul\":24220:24376   */\n      pop\n        /* \"#utility.yul\":24197:24376   */\n    tag_517:\n        /* \"#utility.yul\":24422:24423   */\n      0x01\n        /* \"#utility.yul\":24418:24419   */\n      0x02\n        /* \"#utility.yul\":24410:24416   */\n      dup9\n        /* \"#utility.yul\":24406:24420   */\n      mul\n        /* \"#utility.yul\":24402:24424   */\n      add\n        /* \"#utility.yul\":24396:24400   */\n      dup9\n        /* \"#utility.yul\":24389:24425   */\n      sstore\n        /* \"#utility.yul\":23824:24435   */\n      pop\n      pop\n      pop\n        /* \"#utility.yul\":23787:24674   */\n    tag_509:\n      pop\n        /* \"#utility.yul\":23377:24680   */\n      pop\n      pop\n      pop\n        /* \"#utility.yul\":23285:24680   */\n      pop\n      pop\n      jump\t// out\n\n    auxdata: 0xa26469706673582212209eb4cd68eb08af906748dee1a4b8efd124aa12b0ad618baaa6b88a3bbfdb7e6164736f6c634300081a0033\n}\n",
				"bytecode": {
					"linkReferences": {},
					"object": "608060405234801561000f575f80fd5b506040516121ef3803806121ef8339818101604052810190610031919061026a565b835f908161003f919061050a565b50826001908161004f919061050a565b508160028190555062015180816100669190610606565b426100719190610647565b6003819055503360045f6101000a81548173ffffffffffffffffffffffffffffffffffffffff021916908373ffffffffffffffffffffffffffffffffffffffff1602179055505f600460146101000a81548160ff021916908360028111156100dc576100db61067a565b5b0217905550505050506106a7565b5f604051905090565b5f80fd5b5f80fd5b5f80fd5b5f80fd5b5f601f19601f8301169050919050565b7f4e487b71000000000000000000000000000000000000000000000000000000005f52604160045260245ffd5b61014982610103565b810181811067ffffffffffffffff8211171561016857610167610113565b5b80604052505050565b5f61017a6100ea565b90506101868282610140565b919050565b5f67ffffffffffffffff8211156101a5576101a4610113565b5b6101ae82610103565b9050602081019050919050565b8281835e5f83830152505050565b5f6101db6101d68461018b565b610171565b9050828152602081018484840111156101f7576101f66100ff565b5b6102028482856101bb565b509392505050565b5f82601f83011261021e5761021d6100fb565b5b815161022e8482602086016101c9565b91505092915050565b5f819050919050565b61024981610237565b8114610253575f80fd5b50565b5f8151905061026481610240565b92915050565b5f805f8060808587031215610282576102816100f3565b5b5f85015167ffffffffffffffff81111561029f5761029e6100f7565b5b6102ab8782880161020a565b945050602085015167ffffffffffffffff8111156102cc576102cb6100f7565b5b6102d88782880161020a565b93505060406102e987828801610256565b92505060606102fa87828801610256565b91505092959194509250565b5f81519050919050565b7f4e487b71000000000000000000000000000000000000000000000000000000005f52602260045260245ffd5b5f600282049050600182168061035457607f821691505b60208210810361036757610366610310565b5b50919050565b5f819050815f5260205f209050919050565b5f6020601f8301049050919050565b5f82821b905092915050565b5f600883026103c97fffffffffffffffffffffffffffffffffffffffffffffffffffffffffffffffff8261038e565b6103d3868361038e565b95508019841693508086168417925050509392505050565b5f819050919050565b5f61040e61040961040484610237565b6103eb565b610237565b9050919050565b5f819050919050565b610427836103f4565b61043b61043382610415565b84845461039a565b825550505050565b5f90565b61044f610443565b61045a81848461041e565b505050565b5b8181101561047d576104725f82610447565b600181019050610460565b5050565b601f8211156104c2576104938161036d565b61049c8461037f565b810160208510156104ab578190505b6104bf6104b78561037f565b83018261045f565b50505b505050565b5f82821c905092915050565b5f6104e25f19846008026104c7565b1980831691505092915050565b5f6104fa83836104d3565b9150826002028217905092915050565b61051382610306565b67ffffffffffffffff81111561052c5761052b610113565b5b610536825461033d565b610541828285610481565b5f60209050601f831160018114610572575f8415610560578287015190505b61056a85826104ef565b8655506105d1565b601f1984166105808661036d565b5f5b828110156105a757848901518255600182019150602085019450602081019050610582565b868310156105c457848901516105c0601f8916826104d3565b8355505b6001600288020188555050505b505050505050565b7f4e487b71000000000000000000000000000000000000000000000000000000005f52601160045260245ffd5b5f61061082610237565b915061061b83610237565b925082820261062981610237565b915082820484148315176106405761063f6105d9565b5b5092915050565b5f61065182610237565b915061065c83610237565b9250828201905080821115610674576106736105d9565b5b92915050565b7f4e487b71000000000000000000000000000000000000000000000000000000005f52602160045260245ffd5b611b3b806106b45f395ff3fe6080604052600436106100dc575f3560e01c80637497211b1161007e578063b85dfb8011610058578063b85dfb801461026e578063c19d93fb146102aa578063ca1d209d146102d4578063f38210c6146102f0576100dc565b80637497211b146101f25780638da5cb5b1461021a578063953b8fb814610244576100dc565b806329dcb0cf116100ba57806329dcb0cf146101725780633ccfd60b1461019c578063590e1ae3146101b25780637284e416146101c8576100dc565b8063039af9eb146100e05780630724fda91461011e57806312065fe014610148575b5f80fd5b3480156100eb575f80fd5b5061010660048036038101906101019190610e3c565b610318565b60405161011593929190610ee6565b60405180910390f35b348015610129575f80fd5b506101326103d3565b60405161013f9190610f22565b60405180910390f35b348015610153575f80fd5b5061015c61045e565b6040516101699190610f42565b60405180910390f35b34801561017d575f80fd5b50610186610465565b6040516101939190610f42565b60405180910390f35b3480156101a7575f80fd5b506101b061046b565b005b3480156101bd575f80fd5b506101c6610626565b005b3480156101d3575f80fd5b506101dc6106b8565b6040516101e99190610f22565b60405180910390f35b3480156101fd575f80fd5b5061021860048036038101906102139190610e3c565b610744565b005b348015610225575f80fd5b5061022e6108dd565b60405161023b9190610f9a565b60405180910390f35b34801561024f575f80fd5b50610258610902565b6040516102659190610f42565b60405180910390f35b348015610279575f80fd5b50610294600480360381019061028f9190610fdd565b610908565b6040516102a19190610f42565b60405180910390f35b3480156102b5575f80fd5b506102be610922565b6040516102cb919061107b565b60405180910390f35b6102ee60048036038101906102e99190610e3c565b610935565b005b3480156102fb575f80fd5b50610316600480360381019061031191906111c0565b610b99565b005b60068181548110610327575f80fd5b905f5260205f2090600302015f91509050805f01805461034690611247565b80601f016020809104026020016040519081016040528092919081815260200182805461037290611247565b80156103bd5780601f10610394576101008083540402835291602001916103bd565b820191905f5260205f20905b8154815290600101906020018083116103a057829003601f168201915b5050505050908060010154908060020154905083565b5f80546103df90611247565b80601f016020809104026020016040519081016040528092919081815260200182805461040b90611247565b80156104565780601f1061042d57610100808354040283529160200191610456565b820191905f5260205f20905b81548152906001019060200180831161043957829003601f168201915b505050505081565b5f47905090565b60035481565b60045f9054906101000a900473ffffffffffffffffffffffffffffffffffffffff1673ffffffffffffffffffffffffffffffffffffffff163373ffffffffffffffffffffffffffffffffffffffff16146104fa576040517f08c379a00000000000000000000000000000000000000000000000000000000081526004016104f1906112e7565b60405180910390fd5b610502610cdb565b6001600281111561051657610515611008565b5b600460149054906101000a900460ff16600281111561053857610537611008565b5b14610578576040517f08c379a000000000000000000000000000000000000000000000000000000000815260040161056f9061134f565b60405180910390fd5b5f4790505f81116105be576040517f08c379a00000000000000000000000000000000000000000000000000000000081526004016105b5906113dd565b60405180910390fd5b60045f9054906101000a900473ffffffffffffffffffffffffffffffffffffffff1673ffffffffffffffffffffffffffffffffffffffff166108fc8290811502906040515f60405180830381858888f19350505050158015610622573d5f803e3d5ffd5b5050565b61062e610cdb565b5f60055f3373ffffffffffffffffffffffffffffffffffffffff1673ffffffffffffffffffffffffffffffffffffffff1681526020019081526020015f205f015490503373ffffffffffffffffffffffffffffffffffffffff166108fc8290811502906040515f60405180830381858888f193505050501580156106b4573d5f803e3d5ffd5b5050565b600180546106c590611247565b80601f01602080910402602001604051908101604052809291908181526020018280546106f190611247565b801561073c5780601f106107135761010080835404028352916020019161073c565b820191905f5260205f20905b81548152906001019060200180831161071f57829003601f168201915b505050505081565b60045f9054906101000a900473ffffffffffffffffffffffffffffffffffffffff1673ffffffffffffffffffffffffffffffffffffffff163373ffffffffffffffffffffffffffffffffffffffff16146107d3576040517f08c379a00000000000000000000000000000000000000000000000000000000081526004016107ca906112e7565b60405180910390fd5b600680549050811061081a576040517f08c379a000000000000000000000000000000000000000000000000000000000815260040161081190611445565b60405180910390fd5b6006600160068054905061082e9190611490565b8154811061083f5761083e6114c3565b5b905f5260205f2090600302016006828154811061085f5761085e6114c3565b5b905f5260205f2090600302015f8201815f01908161087d91906116a2565b50600182015481600101556002820154816002015590505060068054806108a7576108a6611787565b5b600190038181905f5260205f2090600302015f8082015f6108c89190610da0565b600182015f9055600282015f90555050905550565b60045f9054906101000a900473ffffffffffffffffffffffffffffffffffffffff1681565b60025481565b6005602052805f5260405f205f91509050805f0154905081565b600460149054906101000a900460ff1681565b5f600281111561094857610947611008565b5b600460149054906101000a900460ff16600281111561096a57610969611008565b5b146109aa576040517f08c379a00000000000000000000000000000000000000000000000000000000081526004016109a1906117fe565b60405180910390fd5b60035442106109ee576040517f08c379a00000000000000000000000000000000000000000000000000000000081526004016109e590611866565b60405180910390fd5b6006805490508110610a35576040517f08c379a0000000000000000000000000000000000000000000000000000000008152600401610a2c906118ce565b60405180910390fd5b60068181548110610a4957610a486114c3565b5b905f5260205f209060030201600101543414610a9a576040517f08c379a0000000000000000000000000000000000000000000000000000000008152600401610a9190611936565b60405180910390fd5b60068181548110610aae57610aad6114c3565b5b905f5260205f2090600302016002015f815480929190610acd90611954565b9190505550600160055f3373ffffffffffffffffffffffffffffffffffffffff1673ffffffffffffffffffffffffffffffffffffffff1681526020019081526020015f206001015f8381526020019081526020015f205f6101000a81548160ff0219169083151502179055503460055f3373ffffffffffffffffffffffffffffffffffffffff1673ffffffffffffffffffffffffffffffffffffffff1681526020019081526020015f205f015f828254610b87919061199b565b92505081905550610b96610cdb565b50565b60045f9054906101000a900473ffffffffffffffffffffffffffffffffffffffff1673ffffffffffffffffffffffffffffffffffffffff163373ffffffffffffffffffffffffffffffffffffffff1614610c28576040517f08c379a0000000000000000000000000000000000000000000000000000000008152600401610c1f906112e7565b60405180910390fd5b5f8211610c6a576040517f08c379a0000000000000000000000000000000000000000000000000000000008152600401610c6190611a18565b60405180910390fd5b600660405180606001604052808381526020018481526020015f815250908060018154018082558091505060019003905f5260205f2090600302015f909190919091505f820151815f019081610cc09190611a36565b50602082015181600101556040820151816002015550505050565b5f6002811115610cee57610ced611008565b5b600460149054906101000a900460ff166002811115610d1057610d0f611008565b5b03610d9e576003544210610d6057600254471015610d2f576002610d32565b60015b600460146101000a81548160ff02191690836002811115610d5657610d55611008565b5b0217905550610d9d565b600254471015610d70575f610d73565b60015b600460146101000a81548160ff02191690836002811115610d9757610d96611008565b5b02179055505b5b565b508054610dac90611247565b5f825580601f10610dbd5750610dda565b601f0160209004905f5260205f2090810190610dd99190610ddd565b5b50565b5b80821115610df4575f815f905550600101610dde565b5090565b5f604051905090565b5f80fd5b5f80fd5b5f819050919050565b610e1b81610e09565b8114610e25575f80fd5b50565b5f81359050610e3681610e12565b92915050565b5f60208284031215610e5157610e50610e01565b5b5f610e5e84828501610e28565b91505092915050565b5f81519050919050565b5f82825260208201905092915050565b8281835e5f83830152505050565b5f601f19601f8301169050919050565b5f610ea982610e67565b610eb38185610e71565b9350610ec3818560208601610e81565b610ecc81610e8f565b840191505092915050565b610ee081610e09565b82525050565b5f6060820190508181035f830152610efe8186610e9f565b9050610f0d6020830185610ed7565b610f1a6040830184610ed7565b949350505050565b5f6020820190508181035f830152610f3a8184610e9f565b905092915050565b5f602082019050610f555f830184610ed7565b92915050565b5f73ffffffffffffffffffffffffffffffffffffffff82169050919050565b5f610f8482610f5b565b9050919050565b610f9481610f7a565b82525050565b5f602082019050610fad5f830184610f8b565b92915050565b610fbc81610f7a565b8114610fc6575f80fd5b50565b5f81359050610fd781610fb3565b92915050565b5f60208284031215610ff257610ff1610e01565b5b5f610fff84828501610fc9565b91505092915050565b7f4e487b71000000000000000000000000000000000000000000000000000000005f52602160045260245ffd5b6003811061104657611045611008565b5b50565b5f81905061105682611035565b919050565b5f61106582611049565b9050919050565b6110758161105b565b82525050565b5f60208201905061108e5f83018461106c565b92915050565b5f80fd5b5f80fd5b7f4e487b71000000000000000000000000000000000000000000000000000000005f52604160045260245ffd5b6110d282610e8f565b810181811067ffffffffffffffff821117156110f1576110f061109c565b5b80604052505050565b5f611103610df8565b905061110f82826110c9565b919050565b5f67ffffffffffffffff82111561112e5761112d61109c565b5b61113782610e8f565b9050602081019050919050565b828183375f83830152505050565b5f61116461115f84611114565b6110fa565b9050828152602081018484840111156111805761117f611098565b5b61118b848285611144565b509392505050565b5f82601f8301126111a7576111a6611094565b5b81356111b7848260208601611152565b91505092915050565b5f80604083850312156111d6576111d5610e01565b5b5f6111e385828601610e28565b925050602083013567ffffffffffffffff81111561120457611203610e05565b5b61121085828601611193565b9150509250929050565b7f4e487b71000000000000000000000000000000000000000000000000000000005f52602260045260245ffd5b5f600282049050600182168061125e57607f821691505b6020821081036112715761127061121a565b5b50919050565b7f4f6e6c79204f776e6572732043616e20506572666f726d2054686973204163745f8201527f696f6e0000000000000000000000000000000000000000000000000000000000602082015250565b5f6112d1602383610e71565b91506112dc82611277565b604082019050919050565b5f6020820190508181035f8301526112fe816112c5565b9050919050565b7f43616d706169676e206e6f7420796574205375636365737366756c00000000005f82015250565b5f611339601b83610e71565b915061134482611305565b602082019050919050565b5f6020820190508181035f8301526113668161132d565b9050919050565b7f5472616e7366657220616d6f756e74206d757374206265206d6f7265207468615f8201527f6e20300000000000000000000000000000000000000000000000000000000000602082015250565b5f6113c7602383610e71565b91506113d28261136d565b604082019050919050565b5f6020820190508181035f8301526113f4816113bb565b9050919050565b7f5469657220646f6573206e6f74206578697374000000000000000000000000005f82015250565b5f61142f601383610e71565b915061143a826113fb565b602082019050919050565b5f6020820190508181035f83015261145c81611423565b9050919050565b7f4e487b71000000000000000000000000000000000000000000000000000000005f52601160045260245ffd5b5f61149a82610e09565b91506114a583610e09565b92508282039050818111156114bd576114bc611463565b5b92915050565b7f4e487b71000000000000000000000000000000000000000000000000000000005f52603260045260245ffd5b5f815490506114fe81611247565b9050919050565b5f819050815f5260205f209050919050565b5f6020601f8301049050919050565b5f82821b905092915050565b5f600883026115617fffffffffffffffffffffffffffffffffffffffffffffffffffffffffffffffff82611526565b61156b8683611526565b95508019841693508086168417925050509392505050565b5f819050919050565b5f6115a66115a161159c84610e09565b611583565b610e09565b9050919050565b5f819050919050565b6115bf8361158c565b6115d36115cb826115ad565b848454611532565b825550505050565b5f90565b6115e76115db565b6115f28184846115b6565b505050565b5b818110156116155761160a5f826115df565b6001810190506115f8565b5050565b601f82111561165a5761162b81611505565b61163484611517565b81016020851015611643578190505b61165761164f85611517565b8301826115f7565b50505b505050565b5f82821c905092915050565b5f61167a5f198460080261165f565b1980831691505092915050565b5f611692838361166b565b9150826002028217905092915050565b8181036116b0575050611785565b6116b9826114f0565b67ffffffffffffffff8111156116d2576116d161109c565b5b6116dc8254611247565b6116e7828285611619565b5f601f831160018114611714575f8415611702578287015490505b61170c8582611687565b86555061177e565b601f19841661172287611505565b965061172d86611505565b5f5b828110156117545784890154825560018201915060018501945060208101905061172f565b86831015611771578489015461176d601f89168261166b565b8355505b6001600288020188555050505b5050505050505b565b7f4e487b71000000000000000000000000000000000000000000000000000000005f52603160045260245ffd5b7f43616d706169676e206973206e6f7420416374697665000000000000000000005f82015250565b5f6117e8601683610e71565b91506117f3826117b4565b602082019050919050565b5f6020820190508181035f830152611815816117dc565b9050919050565b7f43616d706169676e2068617320656e64656400000000000000000000000000005f82015250565b5f611850601283610e71565b915061185b8261181c565b602082019050919050565b5f6020820190508181035f83015261187d81611844565b9050919050565b7f496e76616c6964205469657200000000000000000000000000000000000000005f82015250565b5f6118b8600c83610e71565b91506118c382611884565b602082019050919050565b5f6020820190508181035f8301526118e5816118ac565b9050919050565b7f5469657220616d6f756e7420646f6573206e6f74206d617463680000000000005f82015250565b5f611920601a83610e71565b915061192b826118ec565b602082019050919050565b5f6020820190508181035f83015261194d81611914565b9050919050565b5f61195e82610e09565b91507fffffffffffffffffffffffffffffffffffffffffffffffffffffffffffffffff82036119905761198f611463565b5b600182019050919050565b5f6119a582610e09565b91506119b083610e09565b92508282019050808211156119c8576119c7611463565b5b92915050565b7f416d6f756e74206d7573742062652067726561746572207468616e207a65726f5f82015250565b5f611a02602083610e71565b9150611a0d826119ce565b602082019050919050565b5f6020820190508181035f830152611a2f816119f6565b9050919050565b611a3f82610e67565b67ffffffffffffffff811115611a5857611a5761109c565b5b611a628254611247565b611a6d828285611619565b5f60209050601f831160018114611a9e575f8415611a8c578287015190505b611a968582611687565b865550611afd565b601f198416611aac86611505565b5f5b82811015611ad357848901518255600182019150602085019450602081019050611aae565b86831015611af05784890151611aec601f89168261166b565b8355505b6001600288020188555050505b50505050505056fea26469706673582212209eb4cd68eb08af906748dee1a4b8efd124aa12b0ad618baaa6b88a3bbfdb7e6164736f6c634300081a0033",
					"opcodes": "PUSH1 0x80 PUSH1 0x40 MSTORE CALLVALUE DUP1 ISZERO PUSH2 0xF JUMPI PUSH0 DUP1 REVERT JUMPDEST POP PUSH1 0x40 MLOAD PUSH2 0x21EF CODESIZE SUB DUP1 PUSH2 0x21EF DUP4 CODECOPY DUP2 DUP2 ADD PUSH1 0x40 MSTORE DUP2 ADD SWAP1 PUSH2 0x31 SWAP2 SWAP1 PUSH2 0x26A JUMP JUMPDEST DUP4 PUSH0 SWAP1 DUP2 PUSH2 0x3F SWAP2 SWAP1 PUSH2 0x50A JUMP JUMPDEST POP DUP3 PUSH1 0x1 SWAP1 DUP2 PUSH2 0x4F SWAP2 SWAP1 PUSH2 0x50A JUMP JUMPDEST POP DUP2 PUSH1 0x2 DUP2 SWAP1 SSTORE POP PUSH3 0x15180 DUP2 PUSH2 0x66 SWAP2 SWAP1 PUSH2 0x606 JUMP JUMPDEST TIMESTAMP PUSH2 0x71 SWAP2 SWAP1 PUSH2 0x647 JUMP JUMPDEST PUSH1 0x3 DUP2 SWAP1 SSTORE POP CALLER PUSH1 0x4 PUSH0 PUSH2 0x100 EXP DUP2 SLOAD DUP2 PUSH20 0xFFFFFFFFFFFFFFFFFFFFFFFFFFFFFFFFFFFFFFFF MUL NOT AND SWAP1 DUP4 PUSH20 0xFFFFFFFFFFFFFFFFFFFFFFFFFFFFFFFFFFFFFFFF AND MUL OR SWAP1 SSTORE POP PUSH0 PUSH1 0x4 PUSH1 0x14 PUSH2 0x100 EXP DUP2 SLOAD DUP2 PUSH1 0xFF MUL NOT AND SWAP1 DUP4 PUSH1 0x2 DUP2 GT ISZERO PUSH2 0xDC JUMPI PUSH2 0xDB PUSH2 0x67A JUMP JUMPDEST JUMPDEST MUL OR SWAP1 SSTORE POP POP POP POP POP PUSH2 0x6A7 JUMP JUMPDEST PUSH0 PUSH1 0x40 MLOAD SWAP1 POP SWAP1 JUMP JUMPDEST PUSH0 DUP1 REVERT JUMPDEST PUSH0 DUP1 REVERT JUMPDEST PUSH0 DUP1 REVERT JUMPDEST PUSH0 DUP1 REVERT JUMPDEST PUSH0 PUSH1 0x1F NOT PUSH1 0x1F DUP4 ADD AND SWAP1 POP SWAP2 SWAP1 POP JUMP JUMPDEST PUSH32 0x4E487B7100000000000000000000000000000000000000000000000000000000 PUSH0 MSTORE PUSH1 0x41 PUSH1 0x4 MSTORE PUSH1 0x24 PUSH0 REVERT JUMPDEST PUSH2 0x149 DUP3 PUSH2 0x103 JUMP JUMPDEST DUP2 ADD DUP2 DUP2 LT PUSH8 0xFFFFFFFFFFFFFFFF DUP3 GT OR ISZERO PUSH2 0x168 JUMPI PUSH2 0x167 PUSH2 0x113 JUMP JUMPDEST JUMPDEST DUP1 PUSH1 0x40 MSTORE POP POP POP JUMP JUMPDEST PUSH0 PUSH2 0x17A PUSH2 0xEA JUMP JUMPDEST SWAP1 POP PUSH2 0x186 DUP3 DUP3 PUSH2 0x140 JUMP JUMPDEST SWAP2 SWAP1 POP JUMP JUMPDEST PUSH0 PUSH8 0xFFFFFFFFFFFFFFFF DUP3 GT ISZERO PUSH2 0x1A5 JUMPI PUSH2 0x1A4 PUSH2 0x113 JUMP JUMPDEST JUMPDEST PUSH2 0x1AE DUP3 PUSH2 0x103 JUMP JUMPDEST SWAP1 POP PUSH1 0x20 DUP2 ADD SWAP1 POP SWAP2 SWAP1 POP JUMP JUMPDEST DUP3 DUP2 DUP4 MCOPY PUSH0 DUP4 DUP4 ADD MSTORE POP POP POP JUMP JUMPDEST PUSH0 PUSH2 0x1DB PUSH2 0x1D6 DUP5 PUSH2 0x18B JUMP JUMPDEST PUSH2 0x171 JUMP JUMPDEST SWAP1 POP DUP3 DUP2 MSTORE PUSH1 0x20 DUP2 ADD DUP5 DUP5 DUP5 ADD GT ISZERO PUSH2 0x1F7 JUMPI PUSH2 0x1F6 PUSH2 0xFF JUMP JUMPDEST JUMPDEST PUSH2 0x202 DUP5 DUP3 DUP6 PUSH2 0x1BB JUMP JUMPDEST POP SWAP4 SWAP3 POP POP POP JUMP JUMPDEST PUSH0 DUP3 PUSH1 0x1F DUP4 ADD SLT PUSH2 0x21E JUMPI PUSH2 0x21D PUSH2 0xFB JUMP JUMPDEST JUMPDEST DUP2 MLOAD PUSH2 0x22E DUP5 DUP3 PUSH1 0x20 DUP7 ADD PUSH2 0x1C9 JUMP JUMPDEST SWAP2 POP POP SWAP3 SWAP2 POP POP JUMP JUMPDEST PUSH0 DUP2 SWAP1 POP SWAP2 SWAP1 POP JUMP JUMPDEST PUSH2 0x249 DUP2 PUSH2 0x237 JUMP JUMPDEST DUP2 EQ PUSH2 0x253 JUMPI PUSH0 DUP1 REVERT JUMPDEST POP JUMP JUMPDEST PUSH0 DUP2 MLOAD SWAP1 POP PUSH2 0x264 DUP2 PUSH2 0x240 JUMP JUMPDEST SWAP3 SWAP2 POP POP JUMP JUMPDEST PUSH0 DUP1 PUSH0 DUP1 PUSH1 0x80 DUP6 DUP8 SUB SLT ISZERO PUSH2 0x282 JUMPI PUSH2 0x281 PUSH2 0xF3 JUMP JUMPDEST JUMPDEST PUSH0 DUP6 ADD MLOAD PUSH8 0xFFFFFFFFFFFFFFFF DUP2 GT ISZERO PUSH2 0x29F JUMPI PUSH2 0x29E PUSH2 0xF7 JUMP JUMPDEST JUMPDEST PUSH2 0x2AB DUP8 DUP3 DUP9 ADD PUSH2 0x20A JUMP JUMPDEST SWAP5 POP POP PUSH1 0x20 DUP6 ADD MLOAD PUSH8 0xFFFFFFFFFFFFFFFF DUP2 GT ISZERO PUSH2 0x2CC JUMPI PUSH2 0x2CB PUSH2 0xF7 JUMP JUMPDEST JUMPDEST PUSH2 0x2D8 DUP8 DUP3 DUP9 ADD PUSH2 0x20A JUMP JUMPDEST SWAP4 POP POP PUSH1 0x40 PUSH2 0x2E9 DUP8 DUP3 DUP9 ADD PUSH2 0x256 JUMP JUMPDEST SWAP3 POP POP PUSH1 0x60 PUSH2 0x2FA DUP8 DUP3 DUP9 ADD PUSH2 0x256 JUMP JUMPDEST SWAP2 POP POP SWAP3 SWAP6 SWAP2 SWAP5 POP SWAP3 POP JUMP JUMPDEST PUSH0 DUP2 MLOAD SWAP1 POP SWAP2 SWAP1 POP JUMP JUMPDEST PUSH32 0x4E487B7100000000000000000000000000000000000000000000000000000000 PUSH0 MSTORE PUSH1 0x22 PUSH1 0x4 MSTORE PUSH1 0x24 PUSH0 REVERT JUMPDEST PUSH0 PUSH1 0x2 DUP3 DIV SWAP1 POP PUSH1 0x1 DUP3 AND DUP1 PUSH2 0x354 JUMPI PUSH1 0x7F DUP3 AND SWAP2 POP JUMPDEST PUSH1 0x20 DUP3 LT DUP2 SUB PUSH2 0x367 JUMPI PUSH2 0x366 PUSH2 0x310 JUMP JUMPDEST JUMPDEST POP SWAP2 SWAP1 POP JUMP JUMPDEST PUSH0 DUP2 SWAP1 POP DUP2 PUSH0 MSTORE PUSH1 0x20 PUSH0 KECCAK256 SWAP1 POP SWAP2 SWAP1 POP JUMP JUMPDEST PUSH0 PUSH1 0x20 PUSH1 0x1F DUP4 ADD DIV SWAP1 POP SWAP2 SWAP1 POP JUMP JUMPDEST PUSH0 DUP3 DUP3 SHL SWAP1 POP SWAP3 SWAP2 POP POP JUMP JUMPDEST PUSH0 PUSH1 0x8 DUP4 MUL PUSH2 0x3C9 PUSH32 0xFFFFFFFFFFFFFFFFFFFFFFFFFFFFFFFFFFFFFFFFFFFFFFFFFFFFFFFFFFFFFFFF DUP3 PUSH2 0x38E JUMP JUMPDEST PUSH2 0x3D3 DUP7 DUP4 PUSH2 0x38E JUMP JUMPDEST SWAP6 POP DUP1 NOT DUP5 AND SWAP4 POP DUP1 DUP7 AND DUP5 OR SWAP3 POP POP POP SWAP4 SWAP3 POP POP POP JUMP JUMPDEST PUSH0 DUP2 SWAP1 POP SWAP2 SWAP1 POP JUMP JUMPDEST PUSH0 PUSH2 0x40E PUSH2 0x409 PUSH2 0x404 DUP5 PUSH2 0x237 JUMP JUMPDEST PUSH2 0x3EB JUMP JUMPDEST PUSH2 0x237 JUMP JUMPDEST SWAP1 POP SWAP2 SWAP1 POP JUMP JUMPDEST PUSH0 DUP2 SWAP1 POP SWAP2 SWAP1 POP JUMP JUMPDEST PUSH2 0x427 DUP4 PUSH2 0x3F4 JUMP JUMPDEST PUSH2 0x43B PUSH2 0x433 DUP3 PUSH2 0x415 JUMP JUMPDEST DUP5 DUP5 SLOAD PUSH2 0x39A JUMP JUMPDEST DUP3 SSTORE POP POP POP POP JUMP JUMPDEST PUSH0 SWAP1 JUMP JUMPDEST PUSH2 0x44F PUSH2 0x443 JUMP JUMPDEST PUSH2 0x45A DUP2 DUP5 DUP5 PUSH2 0x41E JUMP JUMPDEST POP POP POP JUMP JUMPDEST JUMPDEST DUP2 DUP2 LT ISZERO PUSH2 0x47D JUMPI PUSH2 0x472 PUSH0 DUP3 PUSH2 0x447 JUMP JUMPDEST PUSH1 0x1 DUP2 ADD SWAP1 POP PUSH2 0x460 JUMP JUMPDEST POP POP JUMP JUMPDEST PUSH1 0x1F DUP3 GT ISZERO PUSH2 0x4C2 JUMPI PUSH2 0x493 DUP2 PUSH2 0x36D JUMP JUMPDEST PUSH2 0x49C DUP5 PUSH2 0x37F JUMP JUMPDEST DUP2 ADD PUSH1 0x20 DUP6 LT ISZERO PUSH2 0x4AB JUMPI DUP2 SWAP1 POP JUMPDEST PUSH2 0x4BF PUSH2 0x4B7 DUP6 PUSH2 0x37F JUMP JUMPDEST DUP4 ADD DUP3 PUSH2 0x45F JUMP JUMPDEST POP POP JUMPDEST POP POP POP JUMP JUMPDEST PUSH0 DUP3 DUP3 SHR SWAP1 POP SWAP3 SWAP2 POP POP JUMP JUMPDEST PUSH0 PUSH2 0x4E2 PUSH0 NOT DUP5 PUSH1 0x8 MUL PUSH2 0x4C7 JUMP JUMPDEST NOT DUP1 DUP4 AND SWAP2 POP POP SWAP3 SWAP2 POP POP JUMP JUMPDEST PUSH0 PUSH2 0x4FA DUP4 DUP4 PUSH2 0x4D3 JUMP JUMPDEST SWAP2 POP DUP3 PUSH1 0x2 MUL DUP3 OR SWAP1 POP SWAP3 SWAP2 POP POP JUMP JUMPDEST PUSH2 0x513 DUP3 PUSH2 0x306 JUMP JUMPDEST PUSH8 0xFFFFFFFFFFFFFFFF DUP2 GT ISZERO PUSH2 0x52C JUMPI PUSH2 0x52B PUSH2 0x113 JUMP JUMPDEST JUMPDEST PUSH2 0x536 DUP3 SLOAD PUSH2 0x33D JUMP JUMPDEST PUSH2 0x541 DUP3 DUP3 DUP6 PUSH2 0x481 JUMP JUMPDEST PUSH0 PUSH1 0x20 SWAP1 POP PUSH1 0x1F DUP4 GT PUSH1 0x1 DUP2 EQ PUSH2 0x572 JUMPI PUSH0 DUP5 ISZERO PUSH2 0x560 JUMPI DUP3 DUP8 ADD MLOAD SWAP1 POP JUMPDEST PUSH2 0x56A DUP6 DUP3 PUSH2 0x4EF JUMP JUMPDEST DUP7 SSTORE POP PUSH2 0x5D1 JUMP JUMPDEST PUSH1 0x1F NOT DUP5 AND PUSH2 0x580 DUP7 PUSH2 0x36D JUMP JUMPDEST PUSH0 JUMPDEST DUP3 DUP2 LT ISZERO PUSH2 0x5A7 JUMPI DUP5 DUP10 ADD MLOAD DUP3 SSTORE PUSH1 0x1 DUP3 ADD SWAP2 POP PUSH1 0x20 DUP6 ADD SWAP5 POP PUSH1 0x20 DUP2 ADD SWAP1 POP PUSH2 0x582 JUMP JUMPDEST DUP7 DUP4 LT ISZERO PUSH2 0x5C4 JUMPI DUP5 DUP10 ADD MLOAD PUSH2 0x5C0 PUSH1 0x1F DUP10 AND DUP3 PUSH2 0x4D3 JUMP JUMPDEST DUP4 SSTORE POP JUMPDEST PUSH1 0x1 PUSH1 0x2 DUP9 MUL ADD DUP9 SSTORE POP POP POP JUMPDEST POP POP POP POP POP POP JUMP JUMPDEST PUSH32 0x4E487B7100000000000000000000000000000000000000000000000000000000 PUSH0 MSTORE PUSH1 0x11 PUSH1 0x4 MSTORE PUSH1 0x24 PUSH0 REVERT JUMPDEST PUSH0 PUSH2 0x610 DUP3 PUSH2 0x237 JUMP JUMPDEST SWAP2 POP PUSH2 0x61B DUP4 PUSH2 0x237 JUMP JUMPDEST SWAP3 POP DUP3 DUP3 MUL PUSH2 0x629 DUP2 PUSH2 0x237 JUMP JUMPDEST SWAP2 POP DUP3 DUP3 DIV DUP5 EQ DUP4 ISZERO OR PUSH2 0x640 JUMPI PUSH2 0x63F PUSH2 0x5D9 JUMP JUMPDEST JUMPDEST POP SWAP3 SWAP2 POP POP JUMP JUMPDEST PUSH0 PUSH2 0x651 DUP3 PUSH2 0x237 JUMP JUMPDEST SWAP2 POP PUSH2 0x65C DUP4 PUSH2 0x237 JUMP JUMPDEST SWAP3 POP DUP3 DUP3 ADD SWAP1 POP DUP1 DUP3 GT ISZERO PUSH2 0x674 JUMPI PUSH2 0x673 PUSH2 0x5D9 JUMP JUMPDEST JUMPDEST SWAP3 SWAP2 POP POP JUMP JUMPDEST PUSH32 0x4E487B7100000000000000000000000000000000000000000000000000000000 PUSH0 MSTORE PUSH1 0x21 PUSH1 0x4 MSTORE PUSH1 0x24 PUSH0 REVERT JUMPDEST PUSH2 0x1B3B DUP1 PUSH2 0x6B4 PUSH0 CODECOPY PUSH0 RETURN INVALID PUSH1 0x80 PUSH1 0x40 MSTORE PUSH1 0x4 CALLDATASIZE LT PUSH2 0xDC JUMPI PUSH0 CALLDATALOAD PUSH1 0xE0 SHR DUP1 PUSH4 0x7497211B GT PUSH2 0x7E JUMPI DUP1 PUSH4 0xB85DFB80 GT PUSH2 0x58 JUMPI DUP1 PUSH4 0xB85DFB80 EQ PUSH2 0x26E JUMPI DUP1 PUSH4 0xC19D93FB EQ PUSH2 0x2AA JUMPI DUP1 PUSH4 0xCA1D209D EQ PUSH2 0x2D4 JUMPI DUP1 PUSH4 0xF38210C6 EQ PUSH2 0x2F0 JUMPI PUSH2 0xDC JUMP JUMPDEST DUP1 PUSH4 0x7497211B EQ PUSH2 0x1F2 JUMPI DUP1 PUSH4 0x8DA5CB5B EQ PUSH2 0x21A JUMPI DUP1 PUSH4 0x953B8FB8 EQ PUSH2 0x244 JUMPI PUSH2 0xDC JUMP JUMPDEST DUP1 PUSH4 0x29DCB0CF GT PUSH2 0xBA JUMPI DUP1 PUSH4 0x29DCB0CF EQ PUSH2 0x172 JUMPI DUP1 PUSH4 0x3CCFD60B EQ PUSH2 0x19C JUMPI DUP1 PUSH4 0x590E1AE3 EQ PUSH2 0x1B2 JUMPI DUP1 PUSH4 0x7284E416 EQ PUSH2 0x1C8 JUMPI PUSH2 0xDC JUMP JUMPDEST DUP1 PUSH4 0x39AF9EB EQ PUSH2 0xE0 JUMPI DUP1 PUSH4 0x724FDA9 EQ PUSH2 0x11E JUMPI DUP1 PUSH4 0x12065FE0 EQ PUSH2 0x148 JUMPI JUMPDEST PUSH0 DUP1 REVERT JUMPDEST CALLVALUE DUP1 ISZERO PUSH2 0xEB JUMPI PUSH0 DUP1 REVERT JUMPDEST POP PUSH2 0x106 PUSH1 0x4 DUP1 CALLDATASIZE SUB DUP2 ADD SWAP1 PUSH2 0x101 SWAP2 SWAP1 PUSH2 0xE3C JUMP JUMPDEST PUSH2 0x318 JUMP JUMPDEST PUSH1 0x40 MLOAD PUSH2 0x115 SWAP4 SWAP3 SWAP2 SWAP1 PUSH2 0xEE6 JUMP JUMPDEST PUSH1 0x40 MLOAD DUP1 SWAP2 SUB SWAP1 RETURN JUMPDEST CALLVALUE DUP1 ISZERO PUSH2 0x129 JUMPI PUSH0 DUP1 REVERT JUMPDEST POP PUSH2 0x132 PUSH2 0x3D3 JUMP JUMPDEST PUSH1 0x40 MLOAD PUSH2 0x13F SWAP2 SWAP1 PUSH2 0xF22 JUMP JUMPDEST PUSH1 0x40 MLOAD DUP1 SWAP2 SUB SWAP1 RETURN JUMPDEST CALLVALUE DUP1 ISZERO PUSH2 0x153 JUMPI PUSH0 DUP1 REVERT JUMPDEST POP PUSH2 0x15C PUSH2 0x45E JUMP JUMPDEST PUSH1 0x40 MLOAD PUSH2 0x169 SWAP2 SWAP1 PUSH2 0xF42 JUMP JUMPDEST PUSH1 0x40 MLOAD DUP1 SWAP2 SUB SWAP1 RETURN JUMPDEST CALLVALUE DUP1 ISZERO PUSH2 0x17D JUMPI PUSH0 DUP1 REVERT JUMPDEST POP PUSH2 0x186 PUSH2 0x465 JUMP JUMPDEST PUSH1 0x40 MLOAD PUSH2 0x193 SWAP2 SWAP1 PUSH2 0xF42 JUMP JUMPDEST PUSH1 0x40 MLOAD DUP1 SWAP2 SUB SWAP1 RETURN JUMPDEST CALLVALUE DUP1 ISZERO PUSH2 0x1A7 JUMPI PUSH0 DUP1 REVERT JUMPDEST POP PUSH2 0x1B0 PUSH2 0x46B JUMP JUMPDEST STOP JUMPDEST CALLVALUE DUP1 ISZERO PUSH2 0x1BD JUMPI PUSH0 DUP1 REVERT JUMPDEST POP PUSH2 0x1C6 PUSH2 0x626 JUMP JUMPDEST STOP JUMPDEST CALLVALUE DUP1 ISZERO PUSH2 0x1D3 JUMPI PUSH0 DUP1 REVERT JUMPDEST POP PUSH2 0x1DC PUSH2 0x6B8 JUMP JUMPDEST PUSH1 0x40 MLOAD PUSH2 0x1E9 SWAP2 SWAP1 PUSH2 0xF22 JUMP JUMPDEST PUSH1 0x40 MLOAD DUP1 SWAP2 SUB SWAP1 RETURN JUMPDEST CALLVALUE DUP1 ISZERO PUSH2 0x1FD JUMPI PUSH0 DUP1 REVERT JUMPDEST POP PUSH2 0x218 PUSH1 0x4 DUP1 CALLDATASIZE SUB DUP2 ADD SWAP1 PUSH2 0x213 SWAP2 SWAP1 PUSH2 0xE3C JUMP JUMPDEST PUSH2 0x744 JUMP JUMPDEST STOP JUMPDEST CALLVALUE DUP1 ISZERO PUSH2 0x225 JUMPI PUSH0 DUP1 REVERT JUMPDEST POP PUSH2 0x22E PUSH2 0x8DD JUMP JUMPDEST PUSH1 0x40 MLOAD PUSH2 0x23B SWAP2 SWAP1 PUSH2 0xF9A JUMP JUMPDEST PUSH1 0x40 MLOAD DUP1 SWAP2 SUB SWAP1 RETURN JUMPDEST CALLVALUE DUP1 ISZERO PUSH2 0x24F JUMPI PUSH0 DUP1 REVERT JUMPDEST POP PUSH2 0x258 PUSH2 0x902 JUMP JUMPDEST PUSH1 0x40 MLOAD PUSH2 0x265 SWAP2 SWAP1 PUSH2 0xF42 JUMP JUMPDEST PUSH1 0x40 MLOAD DUP1 SWAP2 SUB SWAP1 RETURN JUMPDEST CALLVALUE DUP1 ISZERO PUSH2 0x279 JUMPI PUSH0 DUP1 REVERT JUMPDEST POP PUSH2 0x294 PUSH1 0x4 DUP1 CALLDATASIZE SUB DUP2 ADD SWAP1 PUSH2 0x28F SWAP2 SWAP1 PUSH2 0xFDD JUMP JUMPDEST PUSH2 0x908 JUMP JUMPDEST PUSH1 0x40 MLOAD PUSH2 0x2A1 SWAP2 SWAP1 PUSH2 0xF42 JUMP JUMPDEST PUSH1 0x40 MLOAD DUP1 SWAP2 SUB SWAP1 RETURN JUMPDEST CALLVALUE DUP1 ISZERO PUSH2 0x2B5 JUMPI PUSH0 DUP1 REVERT JUMPDEST POP PUSH2 0x2BE PUSH2 0x922 JUMP JUMPDEST PUSH1 0x40 MLOAD PUSH2 0x2CB SWAP2 SWAP1 PUSH2 0x107B JUMP JUMPDEST PUSH1 0x40 MLOAD DUP1 SWAP2 SUB SWAP1 RETURN JUMPDEST PUSH2 0x2EE PUSH1 0x4 DUP1 CALLDATASIZE SUB DUP2 ADD SWAP1 PUSH2 0x2E9 SWAP2 SWAP1 PUSH2 0xE3C JUMP JUMPDEST PUSH2 0x935 JUMP JUMPDEST STOP JUMPDEST CALLVALUE DUP1 ISZERO PUSH2 0x2FB JUMPI PUSH0 DUP1 REVERT JUMPDEST POP PUSH2 0x316 PUSH1 0x4 DUP1 CALLDATASIZE SUB DUP2 ADD SWAP1 PUSH2 0x311 SWAP2 SWAP1 PUSH2 0x11C0 JUMP JUMPDEST PUSH2 0xB99 JUMP JUMPDEST STOP JUMPDEST PUSH1 0x6 DUP2 DUP2 SLOAD DUP2 LT PUSH2 0x327 JUMPI PUSH0 DUP1 REVERT JUMPDEST SWAP1 PUSH0 MSTORE PUSH1 0x20 PUSH0 KECCAK256 SWAP1 PUSH1 0x3 MUL ADD PUSH0 SWAP2 POP SWAP1 POP DUP1 PUSH0 ADD DUP1 SLOAD PUSH2 0x346 SWAP1 PUSH2 0x1247 JUMP JUMPDEST DUP1 PUSH1 0x1F ADD PUSH1 0x20 DUP1 SWAP2 DIV MUL PUSH1 0x20 ADD PUSH1 0x40 MLOAD SWAP1 DUP2 ADD PUSH1 0x40 MSTORE DUP1 SWAP3 SWAP2 SWAP1 DUP2 DUP2 MSTORE PUSH1 0x20 ADD DUP3 DUP1 SLOAD PUSH2 0x372 SWAP1 PUSH2 0x1247 JUMP JUMPDEST DUP1 ISZERO PUSH2 0x3BD JUMPI DUP1 PUSH1 0x1F LT PUSH2 0x394 JUMPI PUSH2 0x100 DUP1 DUP4 SLOAD DIV MUL DUP4 MSTORE SWAP2 PUSH1 0x20 ADD SWAP2 PUSH2 0x3BD JUMP JUMPDEST DUP3 ADD SWAP2 SWAP1 PUSH0 MSTORE PUSH1 0x20 PUSH0 KECCAK256 SWAP1 JUMPDEST DUP2 SLOAD DUP2 MSTORE SWAP1 PUSH1 0x1 ADD SWAP1 PUSH1 0x20 ADD DUP1 DUP4 GT PUSH2 0x3A0 JUMPI DUP3 SWAP1 SUB PUSH1 0x1F AND DUP3 ADD SWAP2 JUMPDEST POP POP POP POP POP SWAP1 DUP1 PUSH1 0x1 ADD SLOAD SWAP1 DUP1 PUSH1 0x2 ADD SLOAD SWAP1 POP DUP4 JUMP JUMPDEST PUSH0 DUP1 SLOAD PUSH2 0x3DF SWAP1 PUSH2 0x1247 JUMP JUMPDEST DUP1 PUSH1 0x1F ADD PUSH1 0x20 DUP1 SWAP2 DIV MUL PUSH1 0x20 ADD PUSH1 0x40 MLOAD SWAP1 DUP2 ADD PUSH1 0x40 MSTORE DUP1 SWAP3 SWAP2 SWAP1 DUP2 DUP2 MSTORE PUSH1 0x20 ADD DUP3 DUP1 SLOAD PUSH2 0x40B SWAP1 PUSH2 0x1247 JUMP JUMPDEST DUP1 ISZERO PUSH2 0x456 JUMPI DUP1 PUSH1 0x1F LT PUSH2 0x42D JUMPI PUSH2 0x100 DUP1 DUP4 SLOAD DIV MUL DUP4 MSTORE SWAP2 PUSH1 0x20 ADD SWAP2 PUSH2 0x456 JUMP JUMPDEST DUP3 ADD SWAP2 SWAP1 PUSH0 MSTORE PUSH1 0x20 PUSH0 KECCAK256 SWAP1 JUMPDEST DUP2 SLOAD DUP2 MSTORE SWAP1 PUSH1 0x1 ADD SWAP1 PUSH1 0x20 ADD DUP1 DUP4 GT PUSH2 0x439 JUMPI DUP3 SWAP1 SUB PUSH1 0x1F AND DUP3 ADD SWAP2 JUMPDEST POP POP POP POP POP DUP2 JUMP JUMPDEST PUSH0 SELFBALANCE SWAP1 POP SWAP1 JUMP JUMPDEST PUSH1 0x3 SLOAD DUP2 JUMP JUMPDEST PUSH1 0x4 PUSH0 SWAP1 SLOAD SWAP1 PUSH2 0x100 EXP SWAP1 DIV PUSH20 0xFFFFFFFFFFFFFFFFFFFFFFFFFFFFFFFFFFFFFFFF AND PUSH20 0xFFFFFFFFFFFFFFFFFFFFFFFFFFFFFFFFFFFFFFFF AND CALLER PUSH20 0xFFFFFFFFFFFFFFFFFFFFFFFFFFFFFFFFFFFFFFFF AND EQ PUSH2 0x4FA JUMPI PUSH1 0x40 MLOAD PUSH32 0x8C379A000000000000000000000000000000000000000000000000000000000 DUP2 MSTORE PUSH1 0x4 ADD PUSH2 0x4F1 SWAP1 PUSH2 0x12E7 JUMP JUMPDEST PUSH1 0x40 MLOAD DUP1 SWAP2 SUB SWAP1 REVERT JUMPDEST PUSH2 0x502 PUSH2 0xCDB JUMP JUMPDEST PUSH1 0x1 PUSH1 0x2 DUP2 GT ISZERO PUSH2 0x516 JUMPI PUSH2 0x515 PUSH2 0x1008 JUMP JUMPDEST JUMPDEST PUSH1 0x4 PUSH1 0x14 SWAP1 SLOAD SWAP1 PUSH2 0x100 EXP SWAP1 DIV PUSH1 0xFF AND PUSH1 0x2 DUP2 GT ISZERO PUSH2 0x538 JUMPI PUSH2 0x537 PUSH2 0x1008 JUMP JUMPDEST JUMPDEST EQ PUSH2 0x578 JUMPI PUSH1 0x40 MLOAD PUSH32 0x8C379A000000000000000000000000000000000000000000000000000000000 DUP2 MSTORE PUSH1 0x4 ADD PUSH2 0x56F SWAP1 PUSH2 0x134F JUMP JUMPDEST PUSH1 0x40 MLOAD DUP1 SWAP2 SUB SWAP1 REVERT JUMPDEST PUSH0 SELFBALANCE SWAP1 POP PUSH0 DUP2 GT PUSH2 0x5BE JUMPI PUSH1 0x40 MLOAD PUSH32 0x8C379A000000000000000000000000000000000000000000000000000000000 DUP2 MSTORE PUSH1 0x4 ADD PUSH2 0x5B5 SWAP1 PUSH2 0x13DD JUMP JUMPDEST PUSH1 0x40 MLOAD DUP1 SWAP2 SUB SWAP1 REVERT JUMPDEST PUSH1 0x4 PUSH0 SWAP1 SLOAD SWAP1 PUSH2 0x100 EXP SWAP1 DIV PUSH20 0xFFFFFFFFFFFFFFFFFFFFFFFFFFFFFFFFFFFFFFFF AND PUSH20 0xFFFFFFFFFFFFFFFFFFFFFFFFFFFFFFFFFFFFFFFF AND PUSH2 0x8FC DUP3 SWAP1 DUP2 ISZERO MUL SWAP1 PUSH1 0x40 MLOAD PUSH0 PUSH1 0x40 MLOAD DUP1 DUP4 SUB DUP2 DUP6 DUP9 DUP9 CALL SWAP4 POP POP POP POP ISZERO DUP1 ISZERO PUSH2 0x622 JUMPI RETURNDATASIZE PUSH0 DUP1 RETURNDATACOPY RETURNDATASIZE PUSH0 REVERT JUMPDEST POP POP JUMP JUMPDEST PUSH2 0x62E PUSH2 0xCDB JUMP JUMPDEST PUSH0 PUSH1 0x5 PUSH0 CALLER PUSH20 0xFFFFFFFFFFFFFFFFFFFFFFFFFFFFFFFFFFFFFFFF AND PUSH20 0xFFFFFFFFFFFFFFFFFFFFFFFFFFFFFFFFFFFFFFFF AND DUP2 MSTORE PUSH1 0x20 ADD SWAP1 DUP2 MSTORE PUSH1 0x20 ADD PUSH0 KECCAK256 PUSH0 ADD SLOAD SWAP1 POP CALLER PUSH20 0xFFFFFFFFFFFFFFFFFFFFFFFFFFFFFFFFFFFFFFFF AND PUSH2 0x8FC DUP3 SWAP1 DUP2 ISZERO MUL SWAP1 PUSH1 0x40 MLOAD PUSH0 PUSH1 0x40 MLOAD DUP1 DUP4 SUB DUP2 DUP6 DUP9 DUP9 CALL SWAP4 POP POP POP POP ISZERO DUP1 ISZERO PUSH2 0x6B4 JUMPI RETURNDATASIZE PUSH0 DUP1 RETURNDATACOPY RETURNDATASIZE PUSH0 REVERT JUMPDEST POP POP JUMP JUMPDEST PUSH1 0x1 DUP1 SLOAD PUSH2 0x6C5 SWAP1 PUSH2 0x1247 JUMP JUMPDEST DUP1 PUSH1 0x1F ADD PUSH1 0x20 DUP1 SWAP2 DIV MUL PUSH1 0x20 ADD PUSH1 0x40 MLOAD SWAP1 DUP2 ADD PUSH1 0x40 MSTORE DUP1 SWAP3 SWAP2 SWAP1 DUP2 DUP2 MSTORE PUSH1 0x20 ADD DUP3 DUP1 SLOAD PUSH2 0x6F1 SWAP1 PUSH2 0x1247 JUMP JUMPDEST DUP1 ISZERO PUSH2 0x73C JUMPI DUP1 PUSH1 0x1F LT PUSH2 0x713 JUMPI PUSH2 0x100 DUP1 DUP4 SLOAD DIV MUL DUP4 MSTORE SWAP2 PUSH1 0x20 ADD SWAP2 PUSH2 0x73C JUMP JUMPDEST DUP3 ADD SWAP2 SWAP1 PUSH0 MSTORE PUSH1 0x20 PUSH0 KECCAK256 SWAP1 JUMPDEST DUP2 SLOAD DUP2 MSTORE SWAP1 PUSH1 0x1 ADD SWAP1 PUSH1 0x20 ADD DUP1 DUP4 GT PUSH2 0x71F JUMPI DUP3 SWAP1 SUB PUSH1 0x1F AND DUP3 ADD SWAP2 JUMPDEST POP POP POP POP POP DUP2 JUMP JUMPDEST PUSH1 0x4 PUSH0 SWAP1 SLOAD SWAP1 PUSH2 0x100 EXP SWAP1 DIV PUSH20 0xFFFFFFFFFFFFFFFFFFFFFFFFFFFFFFFFFFFFFFFF AND PUSH20 0xFFFFFFFFFFFFFFFFFFFFFFFFFFFFFFFFFFFFFFFF AND CALLER PUSH20 0xFFFFFFFFFFFFFFFFFFFFFFFFFFFFFFFFFFFFFFFF AND EQ PUSH2 0x7D3 JUMPI PUSH1 0x40 MLOAD PUSH32 0x8C379A000000000000000000000000000000000000000000000000000000000 DUP2 MSTORE PUSH1 0x4 ADD PUSH2 0x7CA SWAP1 PUSH2 0x12E7 JUMP JUMPDEST PUSH1 0x40 MLOAD DUP1 SWAP2 SUB SWAP1 REVERT JUMPDEST PUSH1 0x6 DUP1 SLOAD SWAP1 POP DUP2 LT PUSH2 0x81A JUMPI PUSH1 0x40 MLOAD PUSH32 0x8C379A000000000000000000000000000000000000000000000000000000000 DUP2 MSTORE PUSH1 0x4 ADD PUSH2 0x811 SWAP1 PUSH2 0x1445 JUMP JUMPDEST PUSH1 0x40 MLOAD DUP1 SWAP2 SUB SWAP1 REVERT JUMPDEST PUSH1 0x6 PUSH1 0x1 PUSH1 0x6 DUP1 SLOAD SWAP1 POP PUSH2 0x82E SWAP2 SWAP1 PUSH2 0x1490 JUMP JUMPDEST DUP2 SLOAD DUP2 LT PUSH2 0x83F JUMPI PUSH2 0x83E PUSH2 0x14C3 JUMP JUMPDEST JUMPDEST SWAP1 PUSH0 MSTORE PUSH1 0x20 PUSH0 KECCAK256 SWAP1 PUSH1 0x3 MUL ADD PUSH1 0x6 DUP3 DUP2 SLOAD DUP2 LT PUSH2 0x85F JUMPI PUSH2 0x85E PUSH2 0x14C3 JUMP JUMPDEST JUMPDEST SWAP1 PUSH0 MSTORE PUSH1 0x20 PUSH0 KECCAK256 SWAP1 PUSH1 0x3 MUL ADD PUSH0 DUP3 ADD DUP2 PUSH0 ADD SWAP1 DUP2 PUSH2 0x87D SWAP2 SWAP1 PUSH2 0x16A2 JUMP JUMPDEST POP PUSH1 0x1 DUP3 ADD SLOAD DUP2 PUSH1 0x1 ADD SSTORE PUSH1 0x2 DUP3 ADD SLOAD DUP2 PUSH1 0x2 ADD SSTORE SWAP1 POP POP PUSH1 0x6 DUP1 SLOAD DUP1 PUSH2 0x8A7 JUMPI PUSH2 0x8A6 PUSH2 0x1787 JUMP JUMPDEST JUMPDEST PUSH1 0x1 SWAP1 SUB DUP2 DUP2 SWAP1 PUSH0 MSTORE PUSH1 0x20 PUSH0 KECCAK256 SWAP1 PUSH1 0x3 MUL ADD PUSH0 DUP1 DUP3 ADD PUSH0 PUSH2 0x8C8 SWAP2 SWAP1 PUSH2 0xDA0 JUMP JUMPDEST PUSH1 0x1 DUP3 ADD PUSH0 SWAP1 SSTORE PUSH1 0x2 DUP3 ADD PUSH0 SWAP1 SSTORE POP POP SWAP1 SSTORE POP JUMP JUMPDEST PUSH1 0x4 PUSH0 SWAP1 SLOAD SWAP1 PUSH2 0x100 EXP SWAP1 DIV PUSH20 0xFFFFFFFFFFFFFFFFFFFFFFFFFFFFFFFFFFFFFFFF AND DUP2 JUMP JUMPDEST PUSH1 0x2 SLOAD DUP2 JUMP JUMPDEST PUSH1 0x5 PUSH1 0x20 MSTORE DUP1 PUSH0 MSTORE PUSH1 0x40 PUSH0 KECCAK256 PUSH0 SWAP2 POP SWAP1 POP DUP1 PUSH0 ADD SLOAD SWAP1 POP DUP2 JUMP JUMPDEST PUSH1 0x4 PUSH1 0x14 SWAP1 SLOAD SWAP1 PUSH2 0x100 EXP SWAP1 DIV PUSH1 0xFF AND DUP2 JUMP JUMPDEST PUSH0 PUSH1 0x2 DUP2 GT ISZERO PUSH2 0x948 JUMPI PUSH2 0x947 PUSH2 0x1008 JUMP JUMPDEST JUMPDEST PUSH1 0x4 PUSH1 0x14 SWAP1 SLOAD SWAP1 PUSH2 0x100 EXP SWAP1 DIV PUSH1 0xFF AND PUSH1 0x2 DUP2 GT ISZERO PUSH2 0x96A JUMPI PUSH2 0x969 PUSH2 0x1008 JUMP JUMPDEST JUMPDEST EQ PUSH2 0x9AA JUMPI PUSH1 0x40 MLOAD PUSH32 0x8C379A000000000000000000000000000000000000000000000000000000000 DUP2 MSTORE PUSH1 0x4 ADD PUSH2 0x9A1 SWAP1 PUSH2 0x17FE JUMP JUMPDEST PUSH1 0x40 MLOAD DUP1 SWAP2 SUB SWAP1 REVERT JUMPDEST PUSH1 0x3 SLOAD TIMESTAMP LT PUSH2 0x9EE JUMPI PUSH1 0x40 MLOAD PUSH32 0x8C379A000000000000000000000000000000000000000000000000000000000 DUP2 MSTORE PUSH1 0x4 ADD PUSH2 0x9E5 SWAP1 PUSH2 0x1866 JUMP JUMPDEST PUSH1 0x40 MLOAD DUP1 SWAP2 SUB SWAP1 REVERT JUMPDEST PUSH1 0x6 DUP1 SLOAD SWAP1 POP DUP2 LT PUSH2 0xA35 JUMPI PUSH1 0x40 MLOAD PUSH32 0x8C379A000000000000000000000000000000000000000000000000000000000 DUP2 MSTORE PUSH1 0x4 ADD PUSH2 0xA2C SWAP1 PUSH2 0x18CE JUMP JUMPDEST PUSH1 0x40 MLOAD DUP1 SWAP2 SUB SWAP1 REVERT JUMPDEST PUSH1 0x6 DUP2 DUP2 SLOAD DUP2 LT PUSH2 0xA49 JUMPI PUSH2 0xA48 PUSH2 0x14C3 JUMP JUMPDEST JUMPDEST SWAP1 PUSH0 MSTORE PUSH1 0x20 PUSH0 KECCAK256 SWAP1 PUSH1 0x3 MUL ADD PUSH1 0x1 ADD SLOAD CALLVALUE EQ PUSH2 0xA9A JUMPI PUSH1 0x40 MLOAD PUSH32 0x8C379A000000000000000000000000000000000000000000000000000000000 DUP2 MSTORE PUSH1 0x4 ADD PUSH2 0xA91 SWAP1 PUSH2 0x1936 JUMP JUMPDEST PUSH1 0x40 MLOAD DUP1 SWAP2 SUB SWAP1 REVERT JUMPDEST PUSH1 0x6 DUP2 DUP2 SLOAD DUP2 LT PUSH2 0xAAE JUMPI PUSH2 0xAAD PUSH2 0x14C3 JUMP JUMPDEST JUMPDEST SWAP1 PUSH0 MSTORE PUSH1 0x20 PUSH0 KECCAK256 SWAP1 PUSH1 0x3 MUL ADD PUSH1 0x2 ADD PUSH0 DUP2 SLOAD DUP1 SWAP3 SWAP2 SWAP1 PUSH2 0xACD SWAP1 PUSH2 0x1954 JUMP JUMPDEST SWAP2 SWAP1 POP SSTORE POP PUSH1 0x1 PUSH1 0x5 PUSH0 CALLER PUSH20 0xFFFFFFFFFFFFFFFFFFFFFFFFFFFFFFFFFFFFFFFF AND PUSH20 0xFFFFFFFFFFFFFFFFFFFFFFFFFFFFFFFFFFFFFFFF AND DUP2 MSTORE PUSH1 0x20 ADD SWAP1 DUP2 MSTORE PUSH1 0x20 ADD PUSH0 KECCAK256 PUSH1 0x1 ADD PUSH0 DUP4 DUP2 MSTORE PUSH1 0x20 ADD SWAP1 DUP2 MSTORE PUSH1 0x20 ADD PUSH0 KECCAK256 PUSH0 PUSH2 0x100 EXP DUP2 SLOAD DUP2 PUSH1 0xFF MUL NOT AND SWAP1 DUP4 ISZERO ISZERO MUL OR SWAP1 SSTORE POP CALLVALUE PUSH1 0x5 PUSH0 CALLER PUSH20 0xFFFFFFFFFFFFFFFFFFFFFFFFFFFFFFFFFFFFFFFF AND PUSH20 0xFFFFFFFFFFFFFFFFFFFFFFFFFFFFFFFFFFFFFFFF AND DUP2 MSTORE PUSH1 0x20 ADD SWAP1 DUP2 MSTORE PUSH1 0x20 ADD PUSH0 KECCAK256 PUSH0 ADD PUSH0 DUP3 DUP3 SLOAD PUSH2 0xB87 SWAP2 SWAP1 PUSH2 0x199B JUMP JUMPDEST SWAP3 POP POP DUP2 SWAP1 SSTORE POP PUSH2 0xB96 PUSH2 0xCDB JUMP JUMPDEST POP JUMP JUMPDEST PUSH1 0x4 PUSH0 SWAP1 SLOAD SWAP1 PUSH2 0x100 EXP SWAP1 DIV PUSH20 0xFFFFFFFFFFFFFFFFFFFFFFFFFFFFFFFFFFFFFFFF AND PUSH20 0xFFFFFFFFFFFFFFFFFFFFFFFFFFFFFFFFFFFFFFFF AND CALLER PUSH20 0xFFFFFFFFFFFFFFFFFFFFFFFFFFFFFFFFFFFFFFFF AND EQ PUSH2 0xC28 JUMPI PUSH1 0x40 MLOAD PUSH32 0x8C379A000000000000000000000000000000000000000000000000000000000 DUP2 MSTORE PUSH1 0x4 ADD PUSH2 0xC1F SWAP1 PUSH2 0x12E7 JUMP JUMPDEST PUSH1 0x40 MLOAD DUP1 SWAP2 SUB SWAP1 REVERT JUMPDEST PUSH0 DUP3 GT PUSH2 0xC6A JUMPI PUSH1 0x40 MLOAD PUSH32 0x8C379A000000000000000000000000000000000000000000000000000000000 DUP2 MSTORE PUSH1 0x4 ADD PUSH2 0xC61 SWAP1 PUSH2 0x1A18 JUMP JUMPDEST PUSH1 0x40 MLOAD DUP1 SWAP2 SUB SWAP1 REVERT JUMPDEST PUSH1 0x6 PUSH1 0x40 MLOAD DUP1 PUSH1 0x60 ADD PUSH1 0x40 MSTORE DUP1 DUP4 DUP2 MSTORE PUSH1 0x20 ADD DUP5 DUP2 MSTORE PUSH1 0x20 ADD PUSH0 DUP2 MSTORE POP SWAP1 DUP1 PUSH1 0x1 DUP2 SLOAD ADD DUP1 DUP3 SSTORE DUP1 SWAP2 POP POP PUSH1 0x1 SWAP1 SUB SWAP1 PUSH0 MSTORE PUSH1 0x20 PUSH0 KECCAK256 SWAP1 PUSH1 0x3 MUL ADD PUSH0 SWAP1 SWAP2 SWAP1 SWAP2 SWAP1 SWAP2 POP PUSH0 DUP3 ADD MLOAD DUP2 PUSH0 ADD SWAP1 DUP2 PUSH2 0xCC0 SWAP2 SWAP1 PUSH2 0x1A36 JUMP JUMPDEST POP PUSH1 0x20 DUP3 ADD MLOAD DUP2 PUSH1 0x1 ADD SSTORE PUSH1 0x40 DUP3 ADD MLOAD DUP2 PUSH1 0x2 ADD SSTORE POP POP POP POP JUMP JUMPDEST PUSH0 PUSH1 0x2 DUP2 GT ISZERO PUSH2 0xCEE JUMPI PUSH2 0xCED PUSH2 0x1008 JUMP JUMPDEST JUMPDEST PUSH1 0x4 PUSH1 0x14 SWAP1 SLOAD SWAP1 PUSH2 0x100 EXP SWAP1 DIV PUSH1 0xFF AND PUSH1 0x2 DUP2 GT ISZERO PUSH2 0xD10 JUMPI PUSH2 0xD0F PUSH2 0x1008 JUMP JUMPDEST JUMPDEST SUB PUSH2 0xD9E JUMPI PUSH1 0x3 SLOAD TIMESTAMP LT PUSH2 0xD60 JUMPI PUSH1 0x2 SLOAD SELFBALANCE LT ISZERO PUSH2 0xD2F JUMPI PUSH1 0x2 PUSH2 0xD32 JUMP JUMPDEST PUSH1 0x1 JUMPDEST PUSH1 0x4 PUSH1 0x14 PUSH2 0x100 EXP DUP2 SLOAD DUP2 PUSH1 0xFF MUL NOT AND SWAP1 DUP4 PUSH1 0x2 DUP2 GT ISZERO PUSH2 0xD56 JUMPI PUSH2 0xD55 PUSH2 0x1008 JUMP JUMPDEST JUMPDEST MUL OR SWAP1 SSTORE POP PUSH2 0xD9D JUMP JUMPDEST PUSH1 0x2 SLOAD SELFBALANCE LT ISZERO PUSH2 0xD70 JUMPI PUSH0 PUSH2 0xD73 JUMP JUMPDEST PUSH1 0x1 JUMPDEST PUSH1 0x4 PUSH1 0x14 PUSH2 0x100 EXP DUP2 SLOAD DUP2 PUSH1 0xFF MUL NOT AND SWAP1 DUP4 PUSH1 0x2 DUP2 GT ISZERO PUSH2 0xD97 JUMPI PUSH2 0xD96 PUSH2 0x1008 JUMP JUMPDEST JUMPDEST MUL OR SWAP1 SSTORE POP JUMPDEST JUMPDEST JUMP JUMPDEST POP DUP1 SLOAD PUSH2 0xDAC SWAP1 PUSH2 0x1247 JUMP JUMPDEST PUSH0 DUP3 SSTORE DUP1 PUSH1 0x1F LT PUSH2 0xDBD JUMPI POP PUSH2 0xDDA JUMP JUMPDEST PUSH1 0x1F ADD PUSH1 0x20 SWAP1 DIV SWAP1 PUSH0 MSTORE PUSH1 0x20 PUSH0 KECCAK256 SWAP1 DUP2 ADD SWAP1 PUSH2 0xDD9 SWAP2 SWAP1 PUSH2 0xDDD JUMP JUMPDEST JUMPDEST POP JUMP JUMPDEST JUMPDEST DUP1 DUP3 GT ISZERO PUSH2 0xDF4 JUMPI PUSH0 DUP2 PUSH0 SWAP1 SSTORE POP PUSH1 0x1 ADD PUSH2 0xDDE JUMP JUMPDEST POP SWAP1 JUMP JUMPDEST PUSH0 PUSH1 0x40 MLOAD SWAP1 POP SWAP1 JUMP JUMPDEST PUSH0 DUP1 REVERT JUMPDEST PUSH0 DUP1 REVERT JUMPDEST PUSH0 DUP2 SWAP1 POP SWAP2 SWAP1 POP JUMP JUMPDEST PUSH2 0xE1B DUP2 PUSH2 0xE09 JUMP JUMPDEST DUP2 EQ PUSH2 0xE25 JUMPI PUSH0 DUP1 REVERT JUMPDEST POP JUMP JUMPDEST PUSH0 DUP2 CALLDATALOAD SWAP1 POP PUSH2 0xE36 DUP2 PUSH2 0xE12 JUMP JUMPDEST SWAP3 SWAP2 POP POP JUMP JUMPDEST PUSH0 PUSH1 0x20 DUP3 DUP5 SUB SLT ISZERO PUSH2 0xE51 JUMPI PUSH2 0xE50 PUSH2 0xE01 JUMP JUMPDEST JUMPDEST PUSH0 PUSH2 0xE5E DUP5 DUP3 DUP6 ADD PUSH2 0xE28 JUMP JUMPDEST SWAP2 POP POP SWAP3 SWAP2 POP POP JUMP JUMPDEST PUSH0 DUP2 MLOAD SWAP1 POP SWAP2 SWAP1 POP JUMP JUMPDEST PUSH0 DUP3 DUP3 MSTORE PUSH1 0x20 DUP3 ADD SWAP1 POP SWAP3 SWAP2 POP POP JUMP JUMPDEST DUP3 DUP2 DUP4 MCOPY PUSH0 DUP4 DUP4 ADD MSTORE POP POP POP JUMP JUMPDEST PUSH0 PUSH1 0x1F NOT PUSH1 0x1F DUP4 ADD AND SWAP1 POP SWAP2 SWAP1 POP JUMP JUMPDEST PUSH0 PUSH2 0xEA9 DUP3 PUSH2 0xE67 JUMP JUMPDEST PUSH2 0xEB3 DUP2 DUP6 PUSH2 0xE71 JUMP JUMPDEST SWAP4 POP PUSH2 0xEC3 DUP2 DUP6 PUSH1 0x20 DUP7 ADD PUSH2 0xE81 JUMP JUMPDEST PUSH2 0xECC DUP2 PUSH2 0xE8F JUMP JUMPDEST DUP5 ADD SWAP2 POP POP SWAP3 SWAP2 POP POP JUMP JUMPDEST PUSH2 0xEE0 DUP2 PUSH2 0xE09 JUMP JUMPDEST DUP3 MSTORE POP POP JUMP JUMPDEST PUSH0 PUSH1 0x60 DUP3 ADD SWAP1 POP DUP2 DUP2 SUB PUSH0 DUP4 ADD MSTORE PUSH2 0xEFE DUP2 DUP7 PUSH2 0xE9F JUMP JUMPDEST SWAP1 POP PUSH2 0xF0D PUSH1 0x20 DUP4 ADD DUP6 PUSH2 0xED7 JUMP JUMPDEST PUSH2 0xF1A PUSH1 0x40 DUP4 ADD DUP5 PUSH2 0xED7 JUMP JUMPDEST SWAP5 SWAP4 POP POP POP POP JUMP JUMPDEST PUSH0 PUSH1 0x20 DUP3 ADD SWAP1 POP DUP2 DUP2 SUB PUSH0 DUP4 ADD MSTORE PUSH2 0xF3A DUP2 DUP5 PUSH2 0xE9F JUMP JUMPDEST SWAP1 POP SWAP3 SWAP2 POP POP JUMP JUMPDEST PUSH0 PUSH1 0x20 DUP3 ADD SWAP1 POP PUSH2 0xF55 PUSH0 DUP4 ADD DUP5 PUSH2 0xED7 JUMP JUMPDEST SWAP3 SWAP2 POP POP JUMP JUMPDEST PUSH0 PUSH20 0xFFFFFFFFFFFFFFFFFFFFFFFFFFFFFFFFFFFFFFFF DUP3 AND SWAP1 POP SWAP2 SWAP1 POP JUMP JUMPDEST PUSH0 PUSH2 0xF84 DUP3 PUSH2 0xF5B JUMP JUMPDEST SWAP1 POP SWAP2 SWAP1 POP JUMP JUMPDEST PUSH2 0xF94 DUP2 PUSH2 0xF7A JUMP JUMPDEST DUP3 MSTORE POP POP JUMP JUMPDEST PUSH0 PUSH1 0x20 DUP3 ADD SWAP1 POP PUSH2 0xFAD PUSH0 DUP4 ADD DUP5 PUSH2 0xF8B JUMP JUMPDEST SWAP3 SWAP2 POP POP JUMP JUMPDEST PUSH2 0xFBC DUP2 PUSH2 0xF7A JUMP JUMPDEST DUP2 EQ PUSH2 0xFC6 JUMPI PUSH0 DUP1 REVERT JUMPDEST POP JUMP JUMPDEST PUSH0 DUP2 CALLDATALOAD SWAP1 POP PUSH2 0xFD7 DUP2 PUSH2 0xFB3 JUMP JUMPDEST SWAP3 SWAP2 POP POP JUMP JUMPDEST PUSH0 PUSH1 0x20 DUP3 DUP5 SUB SLT ISZERO PUSH2 0xFF2 JUMPI PUSH2 0xFF1 PUSH2 0xE01 JUMP JUMPDEST JUMPDEST PUSH0 PUSH2 0xFFF DUP5 DUP3 DUP6 ADD PUSH2 0xFC9 JUMP JUMPDEST SWAP2 POP POP SWAP3 SWAP2 POP POP JUMP JUMPDEST PUSH32 0x4E487B7100000000000000000000000000000000000000000000000000000000 PUSH0 MSTORE PUSH1 0x21 PUSH1 0x4 MSTORE PUSH1 0x24 PUSH0 REVERT JUMPDEST PUSH1 0x3 DUP2 LT PUSH2 0x1046 JUMPI PUSH2 0x1045 PUSH2 0x1008 JUMP JUMPDEST JUMPDEST POP JUMP JUMPDEST PUSH0 DUP2 SWAP1 POP PUSH2 0x1056 DUP3 PUSH2 0x1035 JUMP JUMPDEST SWAP2 SWAP1 POP JUMP JUMPDEST PUSH0 PUSH2 0x1065 DUP3 PUSH2 0x1049 JUMP JUMPDEST SWAP1 POP SWAP2 SWAP1 POP JUMP JUMPDEST PUSH2 0x1075 DUP2 PUSH2 0x105B JUMP JUMPDEST DUP3 MSTORE POP POP JUMP JUMPDEST PUSH0 PUSH1 0x20 DUP3 ADD SWAP1 POP PUSH2 0x108E PUSH0 DUP4 ADD DUP5 PUSH2 0x106C JUMP JUMPDEST SWAP3 SWAP2 POP POP JUMP JUMPDEST PUSH0 DUP1 REVERT JUMPDEST PUSH0 DUP1 REVERT JUMPDEST PUSH32 0x4E487B7100000000000000000000000000000000000000000000000000000000 PUSH0 MSTORE PUSH1 0x41 PUSH1 0x4 MSTORE PUSH1 0x24 PUSH0 REVERT JUMPDEST PUSH2 0x10D2 DUP3 PUSH2 0xE8F JUMP JUMPDEST DUP2 ADD DUP2 DUP2 LT PUSH8 0xFFFFFFFFFFFFFFFF DUP3 GT OR ISZERO PUSH2 0x10F1 JUMPI PUSH2 0x10F0 PUSH2 0x109C JUMP JUMPDEST JUMPDEST DUP1 PUSH1 0x40 MSTORE POP POP POP JUMP JUMPDEST PUSH0 PUSH2 0x1103 PUSH2 0xDF8 JUMP JUMPDEST SWAP1 POP PUSH2 0x110F DUP3 DUP3 PUSH2 0x10C9 JUMP JUMPDEST SWAP2 SWAP1 POP JUMP JUMPDEST PUSH0 PUSH8 0xFFFFFFFFFFFFFFFF DUP3 GT ISZERO PUSH2 0x112E JUMPI PUSH2 0x112D PUSH2 0x109C JUMP JUMPDEST JUMPDEST PUSH2 0x1137 DUP3 PUSH2 0xE8F JUMP JUMPDEST SWAP1 POP PUSH1 0x20 DUP2 ADD SWAP1 POP SWAP2 SWAP1 POP JUMP JUMPDEST DUP3 DUP2 DUP4 CALLDATACOPY PUSH0 DUP4 DUP4 ADD MSTORE POP POP POP JUMP JUMPDEST PUSH0 PUSH2 0x1164 PUSH2 0x115F DUP5 PUSH2 0x1114 JUMP JUMPDEST PUSH2 0x10FA JUMP JUMPDEST SWAP1 POP DUP3 DUP2 MSTORE PUSH1 0x20 DUP2 ADD DUP5 DUP5 DUP5 ADD GT ISZERO PUSH2 0x1180 JUMPI PUSH2 0x117F PUSH2 0x1098 JUMP JUMPDEST JUMPDEST PUSH2 0x118B DUP5 DUP3 DUP6 PUSH2 0x1144 JUMP JUMPDEST POP SWAP4 SWAP3 POP POP POP JUMP JUMPDEST PUSH0 DUP3 PUSH1 0x1F DUP4 ADD SLT PUSH2 0x11A7 JUMPI PUSH2 0x11A6 PUSH2 0x1094 JUMP JUMPDEST JUMPDEST DUP2 CALLDATALOAD PUSH2 0x11B7 DUP5 DUP3 PUSH1 0x20 DUP7 ADD PUSH2 0x1152 JUMP JUMPDEST SWAP2 POP POP SWAP3 SWAP2 POP POP JUMP JUMPDEST PUSH0 DUP1 PUSH1 0x40 DUP4 DUP6 SUB SLT ISZERO PUSH2 0x11D6 JUMPI PUSH2 0x11D5 PUSH2 0xE01 JUMP JUMPDEST JUMPDEST PUSH0 PUSH2 0x11E3 DUP6 DUP3 DUP7 ADD PUSH2 0xE28 JUMP JUMPDEST SWAP3 POP POP PUSH1 0x20 DUP4 ADD CALLDATALOAD PUSH8 0xFFFFFFFFFFFFFFFF DUP2 GT ISZERO PUSH2 0x1204 JUMPI PUSH2 0x1203 PUSH2 0xE05 JUMP JUMPDEST JUMPDEST PUSH2 0x1210 DUP6 DUP3 DUP7 ADD PUSH2 0x1193 JUMP JUMPDEST SWAP2 POP POP SWAP3 POP SWAP3 SWAP1 POP JUMP JUMPDEST PUSH32 0x4E487B7100000000000000000000000000000000000000000000000000000000 PUSH0 MSTORE PUSH1 0x22 PUSH1 0x4 MSTORE PUSH1 0x24 PUSH0 REVERT JUMPDEST PUSH0 PUSH1 0x2 DUP3 DIV SWAP1 POP PUSH1 0x1 DUP3 AND DUP1 PUSH2 0x125E JUMPI PUSH1 0x7F DUP3 AND SWAP2 POP JUMPDEST PUSH1 0x20 DUP3 LT DUP2 SUB PUSH2 0x1271 JUMPI PUSH2 0x1270 PUSH2 0x121A JUMP JUMPDEST JUMPDEST POP SWAP2 SWAP1 POP JUMP JUMPDEST PUSH32 0x4F6E6C79204F776E6572732043616E20506572666F726D205468697320416374 PUSH0 DUP3 ADD MSTORE PUSH32 0x696F6E0000000000000000000000000000000000000000000000000000000000 PUSH1 0x20 DUP3 ADD MSTORE POP JUMP JUMPDEST PUSH0 PUSH2 0x12D1 PUSH1 0x23 DUP4 PUSH2 0xE71 JUMP JUMPDEST SWAP2 POP PUSH2 0x12DC DUP3 PUSH2 0x1277 JUMP JUMPDEST PUSH1 0x40 DUP3 ADD SWAP1 POP SWAP2 SWAP1 POP JUMP JUMPDEST PUSH0 PUSH1 0x20 DUP3 ADD SWAP1 POP DUP2 DUP2 SUB PUSH0 DUP4 ADD MSTORE PUSH2 0x12FE DUP2 PUSH2 0x12C5 JUMP JUMPDEST SWAP1 POP SWAP2 SWAP1 POP JUMP JUMPDEST PUSH32 0x43616D706169676E206E6F7420796574205375636365737366756C0000000000 PUSH0 DUP3 ADD MSTORE POP JUMP JUMPDEST PUSH0 PUSH2 0x1339 PUSH1 0x1B DUP4 PUSH2 0xE71 JUMP JUMPDEST SWAP2 POP PUSH2 0x1344 DUP3 PUSH2 0x1305 JUMP JUMPDEST PUSH1 0x20 DUP3 ADD SWAP1 POP SWAP2 SWAP1 POP JUMP JUMPDEST PUSH0 PUSH1 0x20 DUP3 ADD SWAP1 POP DUP2 DUP2 SUB PUSH0 DUP4 ADD MSTORE PUSH2 0x1366 DUP2 PUSH2 0x132D JUMP JUMPDEST SWAP1 POP SWAP2 SWAP1 POP JUMP JUMPDEST PUSH32 0x5472616E7366657220616D6F756E74206D757374206265206D6F726520746861 PUSH0 DUP3 ADD MSTORE PUSH32 0x6E20300000000000000000000000000000000000000000000000000000000000 PUSH1 0x20 DUP3 ADD MSTORE POP JUMP JUMPDEST PUSH0 PUSH2 0x13C7 PUSH1 0x23 DUP4 PUSH2 0xE71 JUMP JUMPDEST SWAP2 POP PUSH2 0x13D2 DUP3 PUSH2 0x136D JUMP JUMPDEST PUSH1 0x40 DUP3 ADD SWAP1 POP SWAP2 SWAP1 POP JUMP JUMPDEST PUSH0 PUSH1 0x20 DUP3 ADD SWAP1 POP DUP2 DUP2 SUB PUSH0 DUP4 ADD MSTORE PUSH2 0x13F4 DUP2 PUSH2 0x13BB JUMP JUMPDEST SWAP1 POP SWAP2 SWAP1 POP JUMP JUMPDEST PUSH32 0x5469657220646F6573206E6F7420657869737400000000000000000000000000 PUSH0 DUP3 ADD MSTORE POP JUMP JUMPDEST PUSH0 PUSH2 0x142F PUSH1 0x13 DUP4 PUSH2 0xE71 JUMP JUMPDEST SWAP2 POP PUSH2 0x143A DUP3 PUSH2 0x13FB JUMP JUMPDEST PUSH1 0x20 DUP3 ADD SWAP1 POP SWAP2 SWAP1 POP JUMP JUMPDEST PUSH0 PUSH1 0x20 DUP3 ADD SWAP1 POP DUP2 DUP2 SUB PUSH0 DUP4 ADD MSTORE PUSH2 0x145C DUP2 PUSH2 0x1423 JUMP JUMPDEST SWAP1 POP SWAP2 SWAP1 POP JUMP JUMPDEST PUSH32 0x4E487B7100000000000000000000000000000000000000000000000000000000 PUSH0 MSTORE PUSH1 0x11 PUSH1 0x4 MSTORE PUSH1 0x24 PUSH0 REVERT JUMPDEST PUSH0 PUSH2 0x149A DUP3 PUSH2 0xE09 JUMP JUMPDEST SWAP2 POP PUSH2 0x14A5 DUP4 PUSH2 0xE09 JUMP JUMPDEST SWAP3 POP DUP3 DUP3 SUB SWAP1 POP DUP2 DUP2 GT ISZERO PUSH2 0x14BD JUMPI PUSH2 0x14BC PUSH2 0x1463 JUMP JUMPDEST JUMPDEST SWAP3 SWAP2 POP POP JUMP JUMPDEST PUSH32 0x4E487B7100000000000000000000000000000000000000000000000000000000 PUSH0 MSTORE PUSH1 0x32 PUSH1 0x4 MSTORE PUSH1 0x24 PUSH0 REVERT JUMPDEST PUSH0 DUP2 SLOAD SWAP1 POP PUSH2 0x14FE DUP2 PUSH2 0x1247 JUMP JUMPDEST SWAP1 POP SWAP2 SWAP1 POP JUMP JUMPDEST PUSH0 DUP2 SWAP1 POP DUP2 PUSH0 MSTORE PUSH1 0x20 PUSH0 KECCAK256 SWAP1 POP SWAP2 SWAP1 POP JUMP JUMPDEST PUSH0 PUSH1 0x20 PUSH1 0x1F DUP4 ADD DIV SWAP1 POP SWAP2 SWAP1 POP JUMP JUMPDEST PUSH0 DUP3 DUP3 SHL SWAP1 POP SWAP3 SWAP2 POP POP JUMP JUMPDEST PUSH0 PUSH1 0x8 DUP4 MUL PUSH2 0x1561 PUSH32 0xFFFFFFFFFFFFFFFFFFFFFFFFFFFFFFFFFFFFFFFFFFFFFFFFFFFFFFFFFFFFFFFF DUP3 PUSH2 0x1526 JUMP JUMPDEST PUSH2 0x156B DUP7 DUP4 PUSH2 0x1526 JUMP JUMPDEST SWAP6 POP DUP1 NOT DUP5 AND SWAP4 POP DUP1 DUP7 AND DUP5 OR SWAP3 POP POP POP SWAP4 SWAP3 POP POP POP JUMP JUMPDEST PUSH0 DUP2 SWAP1 POP SWAP2 SWAP1 POP JUMP JUMPDEST PUSH0 PUSH2 0x15A6 PUSH2 0x15A1 PUSH2 0x159C DUP5 PUSH2 0xE09 JUMP JUMPDEST PUSH2 0x1583 JUMP JUMPDEST PUSH2 0xE09 JUMP JUMPDEST SWAP1 POP SWAP2 SWAP1 POP JUMP JUMPDEST PUSH0 DUP2 SWAP1 POP SWAP2 SWAP1 POP JUMP JUMPDEST PUSH2 0x15BF DUP4 PUSH2 0x158C JUMP JUMPDEST PUSH2 0x15D3 PUSH2 0x15CB DUP3 PUSH2 0x15AD JUMP JUMPDEST DUP5 DUP5 SLOAD PUSH2 0x1532 JUMP JUMPDEST DUP3 SSTORE POP POP POP POP JUMP JUMPDEST PUSH0 SWAP1 JUMP JUMPDEST PUSH2 0x15E7 PUSH2 0x15DB JUMP JUMPDEST PUSH2 0x15F2 DUP2 DUP5 DUP5 PUSH2 0x15B6 JUMP JUMPDEST POP POP POP JUMP JUMPDEST JUMPDEST DUP2 DUP2 LT ISZERO PUSH2 0x1615 JUMPI PUSH2 0x160A PUSH0 DUP3 PUSH2 0x15DF JUMP JUMPDEST PUSH1 0x1 DUP2 ADD SWAP1 POP PUSH2 0x15F8 JUMP JUMPDEST POP POP JUMP JUMPDEST PUSH1 0x1F DUP3 GT ISZERO PUSH2 0x165A JUMPI PUSH2 0x162B DUP2 PUSH2 0x1505 JUMP JUMPDEST PUSH2 0x1634 DUP5 PUSH2 0x1517 JUMP JUMPDEST DUP2 ADD PUSH1 0x20 DUP6 LT ISZERO PUSH2 0x1643 JUMPI DUP2 SWAP1 POP JUMPDEST PUSH2 0x1657 PUSH2 0x164F DUP6 PUSH2 0x1517 JUMP JUMPDEST DUP4 ADD DUP3 PUSH2 0x15F7 JUMP JUMPDEST POP POP JUMPDEST POP POP POP JUMP JUMPDEST PUSH0 DUP3 DUP3 SHR SWAP1 POP SWAP3 SWAP2 POP POP JUMP JUMPDEST PUSH0 PUSH2 0x167A PUSH0 NOT DUP5 PUSH1 0x8 MUL PUSH2 0x165F JUMP JUMPDEST NOT DUP1 DUP4 AND SWAP2 POP POP SWAP3 SWAP2 POP POP JUMP JUMPDEST PUSH0 PUSH2 0x1692 DUP4 DUP4 PUSH2 0x166B JUMP JUMPDEST SWAP2 POP DUP3 PUSH1 0x2 MUL DUP3 OR SWAP1 POP SWAP3 SWAP2 POP POP JUMP JUMPDEST DUP2 DUP2 SUB PUSH2 0x16B0 JUMPI POP POP PUSH2 0x1785 JUMP JUMPDEST PUSH2 0x16B9 DUP3 PUSH2 0x14F0 JUMP JUMPDEST PUSH8 0xFFFFFFFFFFFFFFFF DUP2 GT ISZERO PUSH2 0x16D2 JUMPI PUSH2 0x16D1 PUSH2 0x109C JUMP JUMPDEST JUMPDEST PUSH2 0x16DC DUP3 SLOAD PUSH2 0x1247 JUMP JUMPDEST PUSH2 0x16E7 DUP3 DUP3 DUP6 PUSH2 0x1619 JUMP JUMPDEST PUSH0 PUSH1 0x1F DUP4 GT PUSH1 0x1 DUP2 EQ PUSH2 0x1714 JUMPI PUSH0 DUP5 ISZERO PUSH2 0x1702 JUMPI DUP3 DUP8 ADD SLOAD SWAP1 POP JUMPDEST PUSH2 0x170C DUP6 DUP3 PUSH2 0x1687 JUMP JUMPDEST DUP7 SSTORE POP PUSH2 0x177E JUMP JUMPDEST PUSH1 0x1F NOT DUP5 AND PUSH2 0x1722 DUP8 PUSH2 0x1505 JUMP JUMPDEST SWAP7 POP PUSH2 0x172D DUP7 PUSH2 0x1505 JUMP JUMPDEST PUSH0 JUMPDEST DUP3 DUP2 LT ISZERO PUSH2 0x1754 JUMPI DUP5 DUP10 ADD SLOAD DUP3 SSTORE PUSH1 0x1 DUP3 ADD SWAP2 POP PUSH1 0x1 DUP6 ADD SWAP5 POP PUSH1 0x20 DUP2 ADD SWAP1 POP PUSH2 0x172F JUMP JUMPDEST DUP7 DUP4 LT ISZERO PUSH2 0x1771 JUMPI DUP5 DUP10 ADD SLOAD PUSH2 0x176D PUSH1 0x1F DUP10 AND DUP3 PUSH2 0x166B JUMP JUMPDEST DUP4 SSTORE POP JUMPDEST PUSH1 0x1 PUSH1 0x2 DUP9 MUL ADD DUP9 SSTORE POP POP POP JUMPDEST POP POP POP POP POP POP JUMPDEST JUMP JUMPDEST PUSH32 0x4E487B7100000000000000000000000000000000000000000000000000000000 PUSH0 MSTORE PUSH1 0x31 PUSH1 0x4 MSTORE PUSH1 0x24 PUSH0 REVERT JUMPDEST PUSH32 0x43616D706169676E206973206E6F742041637469766500000000000000000000 PUSH0 DUP3 ADD MSTORE POP JUMP JUMPDEST PUSH0 PUSH2 0x17E8 PUSH1 0x16 DUP4 PUSH2 0xE71 JUMP JUMPDEST SWAP2 POP PUSH2 0x17F3 DUP3 PUSH2 0x17B4 JUMP JUMPDEST PUSH1 0x20 DUP3 ADD SWAP1 POP SWAP2 SWAP1 POP JUMP JUMPDEST PUSH0 PUSH1 0x20 DUP3 ADD SWAP1 POP DUP2 DUP2 SUB PUSH0 DUP4 ADD MSTORE PUSH2 0x1815 DUP2 PUSH2 0x17DC JUMP JUMPDEST SWAP1 POP SWAP2 SWAP1 POP JUMP JUMPDEST PUSH32 0x43616D706169676E2068617320656E6465640000000000000000000000000000 PUSH0 DUP3 ADD MSTORE POP JUMP JUMPDEST PUSH0 PUSH2 0x1850 PUSH1 0x12 DUP4 PUSH2 0xE71 JUMP JUMPDEST SWAP2 POP PUSH2 0x185B DUP3 PUSH2 0x181C JUMP JUMPDEST PUSH1 0x20 DUP3 ADD SWAP1 POP SWAP2 SWAP1 POP JUMP JUMPDEST PUSH0 PUSH1 0x20 DUP3 ADD SWAP1 POP DUP2 DUP2 SUB PUSH0 DUP4 ADD MSTORE PUSH2 0x187D DUP2 PUSH2 0x1844 JUMP JUMPDEST SWAP1 POP SWAP2 SWAP1 POP JUMP JUMPDEST PUSH32 0x496E76616C696420546965720000000000000000000000000000000000000000 PUSH0 DUP3 ADD MSTORE POP JUMP JUMPDEST PUSH0 PUSH2 0x18B8 PUSH1 0xC DUP4 PUSH2 0xE71 JUMP JUMPDEST SWAP2 POP PUSH2 0x18C3 DUP3 PUSH2 0x1884 JUMP JUMPDEST PUSH1 0x20 DUP3 ADD SWAP1 POP SWAP2 SWAP1 POP JUMP JUMPDEST PUSH0 PUSH1 0x20 DUP3 ADD SWAP1 POP DUP2 DUP2 SUB PUSH0 DUP4 ADD MSTORE PUSH2 0x18E5 DUP2 PUSH2 0x18AC JUMP JUMPDEST SWAP1 POP SWAP2 SWAP1 POP JUMP JUMPDEST PUSH32 0x5469657220616D6F756E7420646F6573206E6F74206D61746368000000000000 PUSH0 DUP3 ADD MSTORE POP JUMP JUMPDEST PUSH0 PUSH2 0x1920 PUSH1 0x1A DUP4 PUSH2 0xE71 JUMP JUMPDEST SWAP2 POP PUSH2 0x192B DUP3 PUSH2 0x18EC JUMP JUMPDEST PUSH1 0x20 DUP3 ADD SWAP1 POP SWAP2 SWAP1 POP JUMP JUMPDEST PUSH0 PUSH1 0x20 DUP3 ADD SWAP1 POP DUP2 DUP2 SUB PUSH0 DUP4 ADD MSTORE PUSH2 0x194D DUP2 PUSH2 0x1914 JUMP JUMPDEST SWAP1 POP SWAP2 SWAP1 POP JUMP JUMPDEST PUSH0 PUSH2 0x195E DUP3 PUSH2 0xE09 JUMP JUMPDEST SWAP2 POP PUSH32 0xFFFFFFFFFFFFFFFFFFFFFFFFFFFFFFFFFFFFFFFFFFFFFFFFFFFFFFFFFFFFFFFF DUP3 SUB PUSH2 0x1990 JUMPI PUSH2 0x198F PUSH2 0x1463 JUMP JUMPDEST JUMPDEST PUSH1 0x1 DUP3 ADD SWAP1 POP SWAP2 SWAP1 POP JUMP JUMPDEST PUSH0 PUSH2 0x19A5 DUP3 PUSH2 0xE09 JUMP JUMPDEST SWAP2 POP PUSH2 0x19B0 DUP4 PUSH2 0xE09 JUMP JUMPDEST SWAP3 POP DUP3 DUP3 ADD SWAP1 POP DUP1 DUP3 GT ISZERO PUSH2 0x19C8 JUMPI PUSH2 0x19C7 PUSH2 0x1463 JUMP JUMPDEST JUMPDEST SWAP3 SWAP2 POP POP JUMP JUMPDEST PUSH32 0x416D6F756E74206D7573742062652067726561746572207468616E207A65726F PUSH0 DUP3 ADD MSTORE POP JUMP JUMPDEST PUSH0 PUSH2 0x1A02 PUSH1 0x20 DUP4 PUSH2 0xE71 JUMP JUMPDEST SWAP2 POP PUSH2 0x1A0D DUP3 PUSH2 0x19CE JUMP JUMPDEST PUSH1 0x20 DUP3 ADD SWAP1 POP SWAP2 SWAP1 POP JUMP JUMPDEST PUSH0 PUSH1 0x20 DUP3 ADD SWAP1 POP DUP2 DUP2 SUB PUSH0 DUP4 ADD MSTORE PUSH2 0x1A2F DUP2 PUSH2 0x19F6 JUMP JUMPDEST SWAP1 POP SWAP2 SWAP1 POP JUMP JUMPDEST PUSH2 0x1A3F DUP3 PUSH2 0xE67 JUMP JUMPDEST PUSH8 0xFFFFFFFFFFFFFFFF DUP2 GT ISZERO PUSH2 0x1A58 JUMPI PUSH2 0x1A57 PUSH2 0x109C JUMP JUMPDEST JUMPDEST PUSH2 0x1A62 DUP3 SLOAD PUSH2 0x1247 JUMP JUMPDEST PUSH2 0x1A6D DUP3 DUP3 DUP6 PUSH2 0x1619 JUMP JUMPDEST PUSH0 PUSH1 0x20 SWAP1 POP PUSH1 0x1F DUP4 GT PUSH1 0x1 DUP2 EQ PUSH2 0x1A9E JUMPI PUSH0 DUP5 ISZERO PUSH2 0x1A8C JUMPI DUP3 DUP8 ADD MLOAD SWAP1 POP JUMPDEST PUSH2 0x1A96 DUP6 DUP3 PUSH2 0x1687 JUMP JUMPDEST DUP7 SSTORE POP PUSH2 0x1AFD JUMP JUMPDEST PUSH1 0x1F NOT DUP5 AND PUSH2 0x1AAC DUP7 PUSH2 0x1505 JUMP JUMPDEST PUSH0 JUMPDEST DUP3 DUP2 LT ISZERO PUSH2 0x1AD3 JUMPI DUP5 DUP10 ADD MLOAD DUP3 SSTORE PUSH1 0x1 DUP3 ADD SWAP2 POP PUSH1 0x20 DUP6 ADD SWAP5 POP PUSH1 0x20 DUP2 ADD SWAP1 POP PUSH2 0x1AAE JUMP JUMPDEST DUP7 DUP4 LT ISZERO PUSH2 0x1AF0 JUMPI DUP5 DUP10 ADD MLOAD PUSH2 0x1AEC PUSH1 0x1F DUP10 AND DUP3 PUSH2 0x166B JUMP JUMPDEST DUP4 SSTORE POP JUMPDEST PUSH1 0x1 PUSH1 0x2 DUP9 MUL ADD DUP9 SSTORE POP POP POP JUMPDEST POP POP POP POP POP POP JUMP INVALID LOG2 PUSH5 0x6970667358 0x22 SLT KECCAK256 SWAP15 0xB4 0xCD PUSH9 0xEB08AF906748DEE1A4 0xB8 0xEF 0xD1 0x24 0xAA SLT 0xB0 0xAD PUSH2 0x8BAA 0xA6 0xB8 DUP11 EXTCODESIZE 0xBF 0xDB PUSH31 0x6164736F6C634300081A003300000000000000000000000000000000000000 "
				},
				"gasEstimates": {
					"creation": {
						"codeDepositCost": "1394200",
						"executionCost": "infinite",
						"totalCost": "infinite"
					},
					"external": {
						"addTier(uint256,string)": "infinite",
						"backers(address)": "2837",
						"campaignName()": "infinite",
						"deadline()": "2448",
						"description()": "infinite",
						"fund(uint256)": "infinite",
						"getBalance()": "402",
						"owner()": "2553",
						"refund()": "infinite",
						"removeTier(uint256)": "infinite",
						"state()": "2649",
						"targetAmount()": "2492",
						"tiers(uint256)": "infinite",
						"withdraw()": "infinite"
					},
					"internal": {
						"checkAndUpdateCampaignState()": "30878"
					}
				},
				"methodIdentifiers": {
					"addTier(uint256,string)": "f38210c6",
					"backers(address)": "b85dfb80",
					"campaignName()": "0724fda9",
					"deadline()": "29dcb0cf",
					"description()": "7284e416",
					"fund(uint256)": "ca1d209d",
					"getBalance()": "12065fe0",
					"owner()": "8da5cb5b",
					"refund()": "590e1ae3",
					"removeTier(uint256)": "7497211b",
					"state()": "c19d93fb",
					"targetAmount()": "953b8fb8",
					"tiers(uint256)": "039af9eb",
					"withdraw()": "3ccfd60b"
				}
			},
			"storageLayout": {
				"storage": [
					{
						"astId": 3,
						"contract": "contracts/CrowdFunding.sol:CrowdFunding",
						"label": "campaignName",
						"offset": 0,
						"slot": "0",
						"type": "t_string_storage"
					},
					{
						"astId": 5,
						"contract": "contracts/CrowdFunding.sol:CrowdFunding",
						"label": "description",
						"offset": 0,
						"slot": "1",
						"type": "t_string_storage"
					},
					{
						"astId": 7,
						"contract": "contracts/CrowdFunding.sol:CrowdFunding",
						"label": "targetAmount",
						"offset": 0,
						"slot": "2",
						"type": "t_uint256"
					},
					{
						"astId": 9,
						"contract": "contracts/CrowdFunding.sol:CrowdFunding",
						"label": "deadline",
						"offset": 0,
						"slot": "3",
						"type": "t_uint256"
					},
					{
						"astId": 11,
						"contract": "contracts/CrowdFunding.sol:CrowdFunding",
						"label": "owner",
						"offset": 0,
						"slot": "4",
						"type": "t_address"
					},
					{
						"astId": 18,
						"contract": "contracts/CrowdFunding.sol:CrowdFunding",
						"label": "state",
						"offset": 20,
						"slot": "4",
						"type": "t_enum(CampaignState)15"
					},
					{
						"astId": 37,
						"contract": "contracts/CrowdFunding.sol:CrowdFunding",
						"label": "backers",
						"offset": 0,
						"slot": "5",
						"type": "t_mapping(t_address,t_struct(Backer)32_storage)"
					},
					{
						"astId": 41,
						"contract": "contracts/CrowdFunding.sol:CrowdFunding",
						"label": "tiers",
						"offset": 0,
						"slot": "6",
						"type": "t_array(t_struct(Tier)25_storage)dyn_storage"
					}
				],
				"types": {
					"t_address": {
						"encoding": "inplace",
						"label": "address",
						"numberOfBytes": "20"
					},
					"t_array(t_struct(Tier)25_storage)dyn_storage": {
						"base": "t_struct(Tier)25_storage",
						"encoding": "dynamic_array",
						"label": "struct CrowdFunding.Tier[]",
						"numberOfBytes": "32"
					},
					"t_bool": {
						"encoding": "inplace",
						"label": "bool",
						"numberOfBytes": "1"
					},
					"t_enum(CampaignState)15": {
						"encoding": "inplace",
						"label": "enum CrowdFunding.CampaignState",
						"numberOfBytes": "1"
					},
					"t_mapping(t_address,t_struct(Backer)32_storage)": {
						"encoding": "mapping",
						"key": "t_address",
						"label": "mapping(address => struct CrowdFunding.Backer)",
						"numberOfBytes": "32",
						"value": "t_struct(Backer)32_storage"
					},
					"t_mapping(t_uint256,t_bool)": {
						"encoding": "mapping",
						"key": "t_uint256",
						"label": "mapping(uint256 => bool)",
						"numberOfBytes": "32",
						"value": "t_bool"
					},
					"t_string_storage": {
						"encoding": "bytes",
						"label": "string",
						"numberOfBytes": "32"
					},
					"t_struct(Backer)32_storage": {
						"encoding": "inplace",
						"label": "struct CrowdFunding.Backer",
						"members": [
							{
								"astId": 27,
								"contract": "contracts/CrowdFunding.sol:CrowdFunding",
								"label": "totalContribution",
								"offset": 0,
								"slot": "0",
								"type": "t_uint256"
							},
							{
								"astId": 31,
								"contract": "contracts/CrowdFunding.sol:CrowdFunding",
								"label": "fundedTier",
								"offset": 0,
								"slot": "1",
								"type": "t_mapping(t_uint256,t_bool)"
							}
						],
						"numberOfBytes": "64"
					},
					"t_struct(Tier)25_storage": {
						"encoding": "inplace",
						"label": "struct CrowdFunding.Tier",
						"members": [
							{
								"astId": 20,
								"contract": "contracts/CrowdFunding.sol:CrowdFunding",
								"label": "name",
								"offset": 0,
								"slot": "0",
								"type": "t_string_storage"
							},
							{
								"astId": 22,
								"contract": "contracts/CrowdFunding.sol:CrowdFunding",
								"label": "amount",
								"offset": 0,
								"slot": "1",
								"type": "t_uint256"
							},
							{
								"astId": 24,
								"contract": "contracts/CrowdFunding.sol:CrowdFunding",
								"label": "backers",
								"offset": 0,
								"slot": "2",
								"type": "t_uint256"
							}
						],
						"numberOfBytes": "96"
					},
					"t_uint256": {
						"encoding": "inplace",
						"label": "uint256",
						"numberOfBytes": "32"
					}
				}
			},
			"userdoc": {
				"kind": "user",
				"methods": {},
				"version": 1
			}
		}
	}
}